{
	"contracts/TicketSale.sol": {
		"TicketSale": {
			"abi": [
				{
					"inputs": [
						{
							"internalType": "uint256",
							"name": "numTickets",
							"type": "uint256"
						},
						{
							"internalType": "uint256",
							"name": "price",
							"type": "uint256"
						}
					],
					"stateMutability": "nonpayable",
					"type": "constructor"
				},
				{
					"inputs": [
						{
							"internalType": "uint256",
							"name": "ticketId",
							"type": "uint256"
						}
					],
					"name": "acceptResale",
					"outputs": [],
					"stateMutability": "payable",
					"type": "function"
				},
				{
					"inputs": [
						{
							"internalType": "uint256",
							"name": "myTicketId",
							"type": "uint256"
						}
					],
					"name": "acceptSwap",
					"outputs": [],
					"stateMutability": "nonpayable",
					"type": "function"
				},
				{
					"inputs": [
						{
							"internalType": "uint256",
							"name": "ticketId",
							"type": "uint256"
						}
					],
					"name": "buyTicket",
					"outputs": [],
					"stateMutability": "payable",
					"type": "function"
				},
				{
					"inputs": [],
					"name": "checkResale",
					"outputs": [
						{
							"internalType": "uint256[]",
							"name": "",
							"type": "uint256[]"
						}
					],
					"stateMutability": "view",
					"type": "function"
				},
				{
					"inputs": [
						{
							"internalType": "address",
							"name": "person",
							"type": "address"
						}
					],
					"name": "getTicketOf",
					"outputs": [
						{
							"internalType": "uint256",
							"name": "",
							"type": "uint256"
						}
					],
					"stateMutability": "view",
					"type": "function"
				},
				{
					"inputs": [],
					"name": "manager",
					"outputs": [
						{
							"internalType": "address",
							"name": "",
							"type": "address"
						}
					],
					"stateMutability": "view",
					"type": "function"
				},
				{
					"inputs": [
						{
							"internalType": "uint256",
							"name": "ticketId",
							"type": "uint256"
						}
					],
					"name": "offerSwap",
					"outputs": [],
					"stateMutability": "nonpayable",
					"type": "function"
				},
				{
					"inputs": [
						{
							"internalType": "uint256",
							"name": "price",
							"type": "uint256"
						}
					],
					"name": "resaleTicket",
					"outputs": [],
					"stateMutability": "nonpayable",
					"type": "function"
				},
				{
					"inputs": [
						{
							"internalType": "address",
							"name": "",
							"type": "address"
						},
						{
							"internalType": "address",
							"name": "",
							"type": "address"
						}
					],
					"name": "swapOffers",
					"outputs": [
						{
							"internalType": "uint256",
							"name": "",
							"type": "uint256"
						}
					],
					"stateMutability": "view",
					"type": "function"
				},
				{
					"inputs": [
						{
							"internalType": "address",
							"name": "",
							"type": "address"
						}
					],
					"name": "ticketOwners",
					"outputs": [
						{
							"internalType": "uint256",
							"name": "",
							"type": "uint256"
						}
					],
					"stateMutability": "view",
					"type": "function"
				},
				{
					"inputs": [],
					"name": "ticketPrice",
					"outputs": [
						{
							"internalType": "uint256",
							"name": "",
							"type": "uint256"
						}
					],
					"stateMutability": "view",
					"type": "function"
				},
				{
					"inputs": [
						{
							"internalType": "uint256",
							"name": "",
							"type": "uint256"
						}
					],
					"name": "tickets",
					"outputs": [
						{
							"internalType": "address",
							"name": "owner",
							"type": "address"
						},
						{
							"internalType": "uint256",
							"name": "price",
							"type": "uint256"
						},
						{
							"internalType": "bool",
							"name": "forSale",
							"type": "bool"
						}
					],
					"stateMutability": "view",
					"type": "function"
				},
				{
					"inputs": [],
					"name": "totalTickets",
					"outputs": [
						{
							"internalType": "uint256",
							"name": "",
							"type": "uint256"
						}
					],
					"stateMutability": "view",
					"type": "function"
				}
			],
			"devdoc": {
				"kind": "dev",
				"methods": {},
				"version": 1
			},
			"evm": {
				"assembly": "    /* \"contracts/TicketSale.sol\":26:4002  contract TicketSale {... */\n  mstore(0x40, 0x80)\n    /* \"contracts/TicketSale.sol\":412:560  constructor(uint256 numTickets, uint256 price) {... */\n  callvalue\n  dup1\n  iszero\n  tag_1\n  jumpi\n  0x00\n  dup1\n  revert\ntag_1:\n  pop\n  mload(0x40)\n  sub(codesize, bytecodeSize)\n  dup1\n  bytecodeSize\n  dup4\n  codecopy\n  dup2\n  dup2\n  add\n  0x40\n  mstore\n  dup2\n  add\n  swap1\n  tag_2\n  swap2\n  swap1\n  tag_3\n  jump\t// in\ntag_2:\n    /* \"contracts/TicketSale.sol\":479:489  msg.sender */\n  caller\n    /* \"contracts/TicketSale.sol\":469:476  manager */\n  0x00\n  dup1\n    /* \"contracts/TicketSale.sol\":469:489  manager = msg.sender */\n  0x0100\n  exp\n  dup2\n  sload\n  dup2\n  0xffffffffffffffffffffffffffffffffffffffff\n  mul\n  not\n  and\n  swap1\n  dup4\n  0xffffffffffffffffffffffffffffffffffffffff\n  and\n  mul\n  or\n  swap1\n  sstore\n  pop\n    /* \"contracts/TicketSale.sol\":514:524  numTickets */\n  dup2\n    /* \"contracts/TicketSale.sol\":499:511  totalTickets */\n  0x02\n    /* \"contracts/TicketSale.sol\":499:524  totalTickets = numTickets */\n  dup2\n  swap1\n  sstore\n  pop\n    /* \"contracts/TicketSale.sol\":548:553  price */\n  dup1\n    /* \"contracts/TicketSale.sol\":534:545  ticketPrice */\n  0x01\n    /* \"contracts/TicketSale.sol\":534:553  ticketPrice = price */\n  dup2\n  swap1\n  sstore\n  pop\n    /* \"contracts/TicketSale.sol\":412:560  constructor(uint256 numTickets, uint256 price) {... */\n  pop\n  pop\n    /* \"contracts/TicketSale.sol\":26:4002  contract TicketSale {... */\n  jump(tag_6)\n    /* \"#utility.yul\":88:205   */\ntag_8:\n    /* \"#utility.yul\":197:198   */\n  0x00\n    /* \"#utility.yul\":194:195   */\n  dup1\n    /* \"#utility.yul\":187:199   */\n  revert\n    /* \"#utility.yul\":334:411   */\ntag_10:\n    /* \"#utility.yul\":371:378   */\n  0x00\n    /* \"#utility.yul\":400:405   */\n  dup2\n    /* \"#utility.yul\":389:405   */\n  swap1\n  pop\n    /* \"#utility.yul\":334:411   */\n  swap2\n  swap1\n  pop\n  jump\t// out\n    /* \"#utility.yul\":417:539   */\ntag_11:\n    /* \"#utility.yul\":490:514   */\n  tag_19\n    /* \"#utility.yul\":508:513   */\n  dup2\n    /* \"#utility.yul\":490:514   */\n  tag_10\n  jump\t// in\ntag_19:\n    /* \"#utility.yul\":483:488   */\n  dup2\n    /* \"#utility.yul\":480:515   */\n  eq\n    /* \"#utility.yul\":470:533   */\n  tag_20\n  jumpi\n    /* \"#utility.yul\":529:530   */\n  0x00\n    /* \"#utility.yul\":526:527   */\n  dup1\n    /* \"#utility.yul\":519:531   */\n  revert\n    /* \"#utility.yul\":470:533   */\ntag_20:\n    /* \"#utility.yul\":417:539   */\n  pop\n  jump\t// out\n    /* \"#utility.yul\":545:688   */\ntag_12:\n    /* \"#utility.yul\":602:607   */\n  0x00\n    /* \"#utility.yul\":633:639   */\n  dup2\n    /* \"#utility.yul\":627:640   */\n  mload\n    /* \"#utility.yul\":618:640   */\n  swap1\n  pop\n    /* \"#utility.yul\":649:682   */\n  tag_22\n    /* \"#utility.yul\":676:681   */\n  dup2\n    /* \"#utility.yul\":649:682   */\n  tag_11\n  jump\t// in\ntag_22:\n    /* \"#utility.yul\":545:688   */\n  swap3\n  swap2\n  pop\n  pop\n  jump\t// out\n    /* \"#utility.yul\":694:1201   */\ntag_3:\n    /* \"#utility.yul\":773:779   */\n  0x00\n    /* \"#utility.yul\":781:787   */\n  dup1\n    /* \"#utility.yul\":830:832   */\n  0x40\n    /* \"#utility.yul\":818:827   */\n  dup4\n    /* \"#utility.yul\":809:816   */\n  dup6\n    /* \"#utility.yul\":805:828   */\n  sub\n    /* \"#utility.yul\":801:833   */\n  slt\n    /* \"#utility.yul\":798:917   */\n  iszero\n  tag_24\n  jumpi\n    /* \"#utility.yul\":836:915   */\n  tag_25\n  tag_8\n  jump\t// in\ntag_25:\n    /* \"#utility.yul\":798:917   */\ntag_24:\n    /* \"#utility.yul\":956:957   */\n  0x00\n    /* \"#utility.yul\":981:1045   */\n  tag_26\n    /* \"#utility.yul\":1037:1044   */\n  dup6\n    /* \"#utility.yul\":1028:1034   */\n  dup3\n    /* \"#utility.yul\":1017:1026   */\n  dup7\n    /* \"#utility.yul\":1013:1035   */\n  add\n    /* \"#utility.yul\":981:1045   */\n  tag_12\n  jump\t// in\ntag_26:\n    /* \"#utility.yul\":971:1045   */\n  swap3\n  pop\n    /* \"#utility.yul\":927:1055   */\n  pop\n    /* \"#utility.yul\":1094:1096   */\n  0x20\n    /* \"#utility.yul\":1120:1184   */\n  tag_27\n    /* \"#utility.yul\":1176:1183   */\n  dup6\n    /* \"#utility.yul\":1167:1173   */\n  dup3\n    /* \"#utility.yul\":1156:1165   */\n  dup7\n    /* \"#utility.yul\":1152:1174   */\n  add\n    /* \"#utility.yul\":1120:1184   */\n  tag_12\n  jump\t// in\ntag_27:\n    /* \"#utility.yul\":1110:1184   */\n  swap2\n  pop\n    /* \"#utility.yul\":1065:1194   */\n  pop\n    /* \"#utility.yul\":694:1201   */\n  swap3\n  pop\n  swap3\n  swap1\n  pop\n  jump\t// out\n    /* \"contracts/TicketSale.sol\":26:4002  contract TicketSale {... */\ntag_6:\n  dataSize(sub_0)\n  dup1\n  dataOffset(sub_0)\n  0x00\n  codecopy\n  0x00\n  return\nstop\n\nsub_0: assembly {\n        /* \"contracts/TicketSale.sol\":26:4002  contract TicketSale {... */\n      mstore(0x40, 0x80)\n      jumpi(tag_1, lt(calldatasize, 0x04))\n      shr(0xe0, calldataload(0x00))\n      dup1\n      0x481c6a75\n      gt\n      tag_15\n      jumpi\n      dup1\n      0x943ba212\n      gt\n      tag_16\n      jumpi\n      dup1\n      0x943ba212\n      eq\n      tag_11\n      jumpi\n      dup1\n      0xa3c1a1fe\n      eq\n      tag_12\n      jumpi\n      dup1\n      0xc4a4be83\n      eq\n      tag_13\n      jumpi\n      dup1\n      0xdd11247e\n      eq\n      tag_14\n      jumpi\n      jump(tag_1)\n    tag_16:\n      dup1\n      0x481c6a75\n      eq\n      tag_8\n      jumpi\n      dup1\n      0x50b44712\n      eq\n      tag_9\n      jumpi\n      dup1\n      0x67dd74ca\n      eq\n      tag_10\n      jumpi\n      jump(tag_1)\n    tag_15:\n      dup1\n      0x0412f4ab\n      eq\n      tag_2\n      jumpi\n      dup1\n      0x1209b1f6\n      eq\n      tag_3\n      jumpi\n      dup1\n      0x1bf33004\n      eq\n      tag_4\n      jumpi\n      dup1\n      0x1f6ea787\n      eq\n      tag_5\n      jumpi\n      dup1\n      0x212d94c3\n      eq\n      tag_6\n      jumpi\n      dup1\n      0x406b2c2c\n      eq\n      tag_7\n      jumpi\n    tag_1:\n      0x00\n      dup1\n      revert\n        /* \"contracts/TicketSale.sol\":1029:1140  function getTicketOf(address person) public view returns (uint256) {... */\n    tag_2:\n      callvalue\n      dup1\n      iszero\n      tag_17\n      jumpi\n      0x00\n      dup1\n      revert\n    tag_17:\n      pop\n      tag_18\n      0x04\n      dup1\n      calldatasize\n      sub\n      dup2\n      add\n      swap1\n      tag_19\n      swap2\n      swap1\n      tag_20\n      jump\t// in\n    tag_19:\n      tag_21\n      jump\t// in\n    tag_18:\n      mload(0x40)\n      tag_22\n      swap2\n      swap1\n      tag_23\n      jump\t// in\n    tag_22:\n      mload(0x40)\n      dup1\n      swap2\n      sub\n      swap1\n      return\n        /* \"contracts/TicketSale.sol\":175:201  uint256 public ticketPrice */\n    tag_3:\n      callvalue\n      dup1\n      iszero\n      tag_24\n      jumpi\n      0x00\n      dup1\n      revert\n    tag_24:\n      pop\n      tag_25\n      tag_26\n      jump\t// in\n    tag_25:\n      mload(0x40)\n      tag_27\n      swap2\n      swap1\n      tag_23\n      jump\t// in\n    tag_27:\n      mload(0x40)\n      dup1\n      swap2\n      sub\n      swap1\n      return\n        /* \"contracts/TicketSale.sol\":1599:2409  function acceptSwap(uint256 myTicketId) public {... */\n    tag_4:\n      callvalue\n      dup1\n      iszero\n      tag_28\n      jumpi\n      0x00\n      dup1\n      revert\n    tag_28:\n      pop\n      tag_29\n      0x04\n      dup1\n      calldatasize\n      sub\n      dup2\n      add\n      swap1\n      tag_30\n      swap2\n      swap1\n      tag_31\n      jump\t// in\n    tag_30:\n      tag_32\n      jump\t// in\n    tag_29:\n      stop\n        /* \"contracts/TicketSale.sol\":287:334  mapping(address => uint256) public ticketOwners */\n    tag_5:\n      callvalue\n      dup1\n      iszero\n      tag_33\n      jumpi\n      0x00\n      dup1\n      revert\n    tag_33:\n      pop\n      tag_34\n      0x04\n      dup1\n      calldatasize\n      sub\n      dup2\n      add\n      swap1\n      tag_35\n      swap2\n      swap1\n      tag_20\n      jump\t// in\n    tag_35:\n      tag_36\n      jump\t// in\n    tag_34:\n      mload(0x40)\n      tag_37\n      swap2\n      swap1\n      tag_23\n      jump\t// in\n    tag_37:\n      mload(0x40)\n      dup1\n      swap2\n      sub\n      swap1\n      return\n        /* \"contracts/TicketSale.sol\":340:405  mapping(address => mapping(address => uint256)) public swapOffers */\n    tag_6:\n      callvalue\n      dup1\n      iszero\n      tag_38\n      jumpi\n      0x00\n      dup1\n      revert\n    tag_38:\n      pop\n      tag_39\n      0x04\n      dup1\n      calldatasize\n      sub\n      dup2\n      add\n      swap1\n      tag_40\n      swap2\n      swap1\n      tag_41\n      jump\t// in\n    tag_40:\n      tag_42\n      jump\t// in\n    tag_39:\n      mload(0x40)\n      tag_43\n      swap2\n      swap1\n      tag_23\n      jump\t// in\n    tag_43:\n      mload(0x40)\n      dup1\n      swap2\n      sub\n      swap1\n      return\n        /* \"contracts/TicketSale.sol\":1146:1593  function offerSwap(uint256 ticketId) public {... */\n    tag_7:\n      callvalue\n      dup1\n      iszero\n      tag_44\n      jumpi\n      0x00\n      dup1\n      revert\n    tag_44:\n      pop\n      tag_45\n      0x04\n      dup1\n      calldatasize\n      sub\n      dup2\n      add\n      swap1\n      tag_46\n      swap2\n      swap1\n      tag_31\n      jump\t// in\n    tag_46:\n      tag_47\n      jump\t// in\n    tag_45:\n      stop\n        /* \"contracts/TicketSale.sol\":147:169  address public manager */\n    tag_8:\n      callvalue\n      dup1\n      iszero\n      tag_48\n      jumpi\n      0x00\n      dup1\n      revert\n    tag_48:\n      pop\n      tag_49\n      tag_50\n      jump\t// in\n    tag_49:\n      mload(0x40)\n      tag_51\n      swap2\n      swap1\n      tag_52\n      jump\t// in\n    tag_51:\n      mload(0x40)\n      dup1\n      swap2\n      sub\n      swap1\n      return\n        /* \"contracts/TicketSale.sol\":240:281  mapping(uint256 => Ticket) public tickets */\n    tag_9:\n      callvalue\n      dup1\n      iszero\n      tag_53\n      jumpi\n      0x00\n      dup1\n      revert\n    tag_53:\n      pop\n      tag_54\n      0x04\n      dup1\n      calldatasize\n      sub\n      dup2\n      add\n      swap1\n      tag_55\n      swap2\n      swap1\n      tag_31\n      jump\t// in\n    tag_55:\n      tag_56\n      jump\t// in\n    tag_54:\n      mload(0x40)\n      tag_57\n      swap4\n      swap3\n      swap2\n      swap1\n      tag_58\n      jump\t// in\n    tag_57:\n      mload(0x40)\n      dup1\n      swap2\n      sub\n      swap1\n      return\n        /* \"contracts/TicketSale.sol\":566:1023  function buyTicket(uint256 ticketId) public payable {... */\n    tag_10:\n      tag_59\n      0x04\n      dup1\n      calldatasize\n      sub\n      dup2\n      add\n      swap1\n      tag_60\n      swap2\n      swap1\n      tag_31\n      jump\t// in\n    tag_60:\n      tag_61\n      jump\t// in\n    tag_59:\n      stop\n        /* \"contracts/TicketSale.sol\":2667:3384  function acceptResale(uint256 ticketId) public payable {... */\n    tag_11:\n      tag_62\n      0x04\n      dup1\n      calldatasize\n      sub\n      dup2\n      add\n      swap1\n      tag_63\n      swap2\n      swap1\n      tag_31\n      jump\t// in\n    tag_63:\n      tag_64\n      jump\t// in\n    tag_62:\n      stop\n        /* \"contracts/TicketSale.sol\":2415:2661  function resaleTicket(uint256 price) public {... */\n    tag_12:\n      callvalue\n      dup1\n      iszero\n      tag_65\n      jumpi\n      0x00\n      dup1\n      revert\n    tag_65:\n      pop\n      tag_66\n      0x04\n      dup1\n      calldatasize\n      sub\n      dup2\n      add\n      swap1\n      tag_67\n      swap2\n      swap1\n      tag_31\n      jump\t// in\n    tag_67:\n      tag_68\n      jump\t// in\n    tag_66:\n      stop\n        /* \"contracts/TicketSale.sol\":3390:4000  function checkResale() public view returns (uint256[] memory) {... */\n    tag_13:\n      callvalue\n      dup1\n      iszero\n      tag_69\n      jumpi\n      0x00\n      dup1\n      revert\n    tag_69:\n      pop\n      tag_70\n      tag_71\n      jump\t// in\n    tag_70:\n      mload(0x40)\n      tag_72\n      swap2\n      swap1\n      tag_73\n      jump\t// in\n    tag_72:\n      mload(0x40)\n      dup1\n      swap2\n      sub\n      swap1\n      return\n        /* \"contracts/TicketSale.sol\":207:234  uint256 public totalTickets */\n    tag_14:\n      callvalue\n      dup1\n      iszero\n      tag_74\n      jumpi\n      0x00\n      dup1\n      revert\n    tag_74:\n      pop\n      tag_75\n      tag_76\n      jump\t// in\n    tag_75:\n      mload(0x40)\n      tag_77\n      swap2\n      swap1\n      tag_23\n      jump\t// in\n    tag_77:\n      mload(0x40)\n      dup1\n      swap2\n      sub\n      swap1\n      return\n        /* \"contracts/TicketSale.sol\":1029:1140  function getTicketOf(address person) public view returns (uint256) {... */\n    tag_21:\n        /* \"contracts/TicketSale.sol\":1087:1094  uint256 */\n      0x00\n        /* \"contracts/TicketSale.sol\":1113:1125  ticketOwners */\n      0x04\n        /* \"contracts/TicketSale.sol\":1113:1133  ticketOwners[person] */\n      0x00\n        /* \"contracts/TicketSale.sol\":1126:1132  person */\n      dup4\n        /* \"contracts/TicketSale.sol\":1113:1133  ticketOwners[person] */\n      0xffffffffffffffffffffffffffffffffffffffff\n      and\n      0xffffffffffffffffffffffffffffffffffffffff\n      and\n      dup2\n      mstore\n      0x20\n      add\n      swap1\n      dup2\n      mstore\n      0x20\n      add\n      0x00\n      keccak256\n      sload\n        /* \"contracts/TicketSale.sol\":1106:1133  return ticketOwners[person] */\n      swap1\n      pop\n        /* \"contracts/TicketSale.sol\":1029:1140  function getTicketOf(address person) public view returns (uint256) {... */\n      swap2\n      swap1\n      pop\n      jump\t// out\n        /* \"contracts/TicketSale.sol\":175:201  uint256 public ticketPrice */\n    tag_26:\n      sload(0x01)\n      dup2\n      jump\t// out\n        /* \"contracts/TicketSale.sol\":1599:2409  function acceptSwap(uint256 myTicketId) public {... */\n    tag_32:\n        /* \"contracts/TicketSale.sol\":1692:1702  myTicketId */\n      dup1\n        /* \"contracts/TicketSale.sol\":1664:1676  ticketOwners */\n      0x04\n        /* \"contracts/TicketSale.sol\":1664:1688  ticketOwners[msg.sender] */\n      0x00\n        /* \"contracts/TicketSale.sol\":1677:1687  msg.sender */\n      caller\n        /* \"contracts/TicketSale.sol\":1664:1688  ticketOwners[msg.sender] */\n      0xffffffffffffffffffffffffffffffffffffffff\n      and\n      0xffffffffffffffffffffffffffffffffffffffff\n      and\n      dup2\n      mstore\n      0x20\n      add\n      swap1\n      dup2\n      mstore\n      0x20\n      add\n      0x00\n      keccak256\n      sload\n        /* \"contracts/TicketSale.sol\":1664:1702  ticketOwners[msg.sender] == myTicketId */\n      eq\n        /* \"contracts/TicketSale.sol\":1656:1732  require(ticketOwners[msg.sender] == myTicketId, \"You don't own this ticket\") */\n      tag_80\n      jumpi\n      mload(0x40)\n      0x08c379a000000000000000000000000000000000000000000000000000000000\n      dup2\n      mstore\n      0x04\n      add\n      tag_81\n      swap1\n      tag_82\n      jump\t// in\n    tag_81:\n      mload(0x40)\n      dup1\n      swap2\n      sub\n      swap1\n      revert\n    tag_80:\n        /* \"contracts/TicketSale.sol\":1743:1762  address swapPartner */\n      0x00\n        /* \"contracts/TicketSale.sol\":1772:1795  uint256 offeredTicketId */\n      dup1\n        /* \"contracts/TicketSale.sol\":1811:1820  uint256 i */\n      0x00\n        /* \"contracts/TicketSale.sol\":1823:1824  1 */\n      0x01\n        /* \"contracts/TicketSale.sol\":1811:1824  uint256 i = 1 */\n      swap1\n      pop\n        /* \"contracts/TicketSale.sol\":1806:2082  for (uint256 i = 1; i <= totalTickets; i++) {... */\n    tag_83:\n        /* \"contracts/TicketSale.sol\":1831:1843  totalTickets */\n      sload(0x02)\n        /* \"contracts/TicketSale.sol\":1826:1827  i */\n      dup2\n        /* \"contracts/TicketSale.sol\":1826:1843  i <= totalTickets */\n      gt\n        /* \"contracts/TicketSale.sol\":1806:2082  for (uint256 i = 1; i <= totalTickets; i++) {... */\n      tag_84\n      jumpi\n        /* \"contracts/TicketSale.sol\":1912:1913  0 */\n      0x00\n        /* \"contracts/TicketSale.sol\":1868:1878  swapOffers */\n      0x05\n        /* \"contracts/TicketSale.sol\":1868:1896  swapOffers[tickets[i].owner] */\n      0x00\n        /* \"contracts/TicketSale.sol\":1879:1886  tickets */\n      0x03\n        /* \"contracts/TicketSale.sol\":1879:1889  tickets[i] */\n      0x00\n        /* \"contracts/TicketSale.sol\":1887:1888  i */\n      dup6\n        /* \"contracts/TicketSale.sol\":1879:1889  tickets[i] */\n      dup2\n      mstore\n      0x20\n      add\n      swap1\n      dup2\n      mstore\n      0x20\n      add\n      0x00\n      keccak256\n        /* \"contracts/TicketSale.sol\":1879:1895  tickets[i].owner */\n      0x00\n      add\n      0x00\n      swap1\n      sload\n      swap1\n      0x0100\n      exp\n      swap1\n      div\n      0xffffffffffffffffffffffffffffffffffffffff\n      and\n        /* \"contracts/TicketSale.sol\":1868:1896  swapOffers[tickets[i].owner] */\n      0xffffffffffffffffffffffffffffffffffffffff\n      and\n      0xffffffffffffffffffffffffffffffffffffffff\n      and\n      dup2\n      mstore\n      0x20\n      add\n      swap1\n      dup2\n      mstore\n      0x20\n      add\n      0x00\n      keccak256\n        /* \"contracts/TicketSale.sol\":1868:1908  swapOffers[tickets[i].owner][msg.sender] */\n      0x00\n        /* \"contracts/TicketSale.sol\":1897:1907  msg.sender */\n      caller\n        /* \"contracts/TicketSale.sol\":1868:1908  swapOffers[tickets[i].owner][msg.sender] */\n      0xffffffffffffffffffffffffffffffffffffffff\n      and\n      0xffffffffffffffffffffffffffffffffffffffff\n      and\n      dup2\n      mstore\n      0x20\n      add\n      swap1\n      dup2\n      mstore\n      0x20\n      add\n      0x00\n      keccak256\n      sload\n        /* \"contracts/TicketSale.sol\":1868:1913  swapOffers[tickets[i].owner][msg.sender] != 0 */\n      eq\n        /* \"contracts/TicketSale.sol\":1864:2072  if (swapOffers[tickets[i].owner][msg.sender] != 0) {... */\n      tag_86\n      jumpi\n        /* \"contracts/TicketSale.sol\":1947:1954  tickets */\n      0x03\n        /* \"contracts/TicketSale.sol\":1947:1957  tickets[i] */\n      0x00\n        /* \"contracts/TicketSale.sol\":1955:1956  i */\n      dup3\n        /* \"contracts/TicketSale.sol\":1947:1957  tickets[i] */\n      dup2\n      mstore\n      0x20\n      add\n      swap1\n      dup2\n      mstore\n      0x20\n      add\n      0x00\n      keccak256\n        /* \"contracts/TicketSale.sol\":1947:1963  tickets[i].owner */\n      0x00\n      add\n      0x00\n      swap1\n      sload\n      swap1\n      0x0100\n      exp\n      swap1\n      div\n      0xffffffffffffffffffffffffffffffffffffffff\n      and\n        /* \"contracts/TicketSale.sol\":1933:1963  swapPartner = tickets[i].owner */\n      swap3\n      pop\n        /* \"contracts/TicketSale.sol\":1999:2009  swapOffers */\n      0x05\n        /* \"contracts/TicketSale.sol\":1999:2022  swapOffers[swapPartner] */\n      0x00\n        /* \"contracts/TicketSale.sol\":2010:2021  swapPartner */\n      dup5\n        /* \"contracts/TicketSale.sol\":1999:2022  swapOffers[swapPartner] */\n      0xffffffffffffffffffffffffffffffffffffffff\n      and\n      0xffffffffffffffffffffffffffffffffffffffff\n      and\n      dup2\n      mstore\n      0x20\n      add\n      swap1\n      dup2\n      mstore\n      0x20\n      add\n      0x00\n      keccak256\n        /* \"contracts/TicketSale.sol\":1999:2034  swapOffers[swapPartner][msg.sender] */\n      0x00\n        /* \"contracts/TicketSale.sol\":2023:2033  msg.sender */\n      caller\n        /* \"contracts/TicketSale.sol\":1999:2034  swapOffers[swapPartner][msg.sender] */\n      0xffffffffffffffffffffffffffffffffffffffff\n      and\n      0xffffffffffffffffffffffffffffffffffffffff\n      and\n      dup2\n      mstore\n      0x20\n      add\n      swap1\n      dup2\n      mstore\n      0x20\n      add\n      0x00\n      keccak256\n      sload\n        /* \"contracts/TicketSale.sol\":1981:2034  offeredTicketId = swapOffers[swapPartner][msg.sender] */\n      swap2\n      pop\n        /* \"contracts/TicketSale.sol\":2052:2057  break */\n      jump(tag_84)\n        /* \"contracts/TicketSale.sol\":1864:2072  if (swapOffers[tickets[i].owner][msg.sender] != 0) {... */\n    tag_86:\n        /* \"contracts/TicketSale.sol\":1845:1848  i++ */\n      dup1\n      dup1\n      tag_87\n      swap1\n      tag_88\n      jump\t// in\n    tag_87:\n      swap2\n      pop\n      pop\n        /* \"contracts/TicketSale.sol\":1806:2082  for (uint256 i = 1; i <= totalTickets; i++) {... */\n      jump(tag_83)\n    tag_84:\n      pop\n        /* \"contracts/TicketSale.sol\":2119:2120  0 */\n      0x00\n        /* \"contracts/TicketSale.sol\":2100:2115  offeredTicketId */\n      dup2\n        /* \"contracts/TicketSale.sol\":2100:2120  offeredTicketId != 0 */\n      sub\n        /* \"contracts/TicketSale.sol\":2092:2146  require(offeredTicketId != 0, \"No swap offer for you\") */\n      tag_89\n      jumpi\n      mload(0x40)\n      0x08c379a000000000000000000000000000000000000000000000000000000000\n      dup2\n      mstore\n      0x04\n      add\n      tag_90\n      swap1\n      tag_91\n      jump\t// in\n    tag_90:\n      mload(0x40)\n      dup1\n      swap2\n      sub\n      swap1\n      revert\n    tag_89:\n        /* \"contracts/TicketSale.sol\":2185:2196  swapPartner */\n      dup2\n        /* \"contracts/TicketSale.sol\":2157:2164  tickets */\n      0x03\n        /* \"contracts/TicketSale.sol\":2157:2176  tickets[myTicketId] */\n      0x00\n        /* \"contracts/TicketSale.sol\":2165:2175  myTicketId */\n      dup6\n        /* \"contracts/TicketSale.sol\":2157:2176  tickets[myTicketId] */\n      dup2\n      mstore\n      0x20\n      add\n      swap1\n      dup2\n      mstore\n      0x20\n      add\n      0x00\n      keccak256\n        /* \"contracts/TicketSale.sol\":2157:2182  tickets[myTicketId].owner */\n      0x00\n      add\n      0x00\n        /* \"contracts/TicketSale.sol\":2157:2196  tickets[myTicketId].owner = swapPartner */\n      0x0100\n      exp\n      dup2\n      sload\n      dup2\n      0xffffffffffffffffffffffffffffffffffffffff\n      mul\n      not\n      and\n      swap1\n      dup4\n      0xffffffffffffffffffffffffffffffffffffffff\n      and\n      mul\n      or\n      swap1\n      sstore\n      pop\n        /* \"contracts/TicketSale.sol\":2239:2249  msg.sender */\n      caller\n        /* \"contracts/TicketSale.sol\":2206:2213  tickets */\n      0x03\n        /* \"contracts/TicketSale.sol\":2206:2230  tickets[offeredTicketId] */\n      0x00\n        /* \"contracts/TicketSale.sol\":2214:2229  offeredTicketId */\n      dup4\n        /* \"contracts/TicketSale.sol\":2206:2230  tickets[offeredTicketId] */\n      dup2\n      mstore\n      0x20\n      add\n      swap1\n      dup2\n      mstore\n      0x20\n      add\n      0x00\n      keccak256\n        /* \"contracts/TicketSale.sol\":2206:2236  tickets[offeredTicketId].owner */\n      0x00\n      add\n      0x00\n        /* \"contracts/TicketSale.sol\":2206:2249  tickets[offeredTicketId].owner = msg.sender */\n      0x0100\n      exp\n      dup2\n      sload\n      dup2\n      0xffffffffffffffffffffffffffffffffffffffff\n      mul\n      not\n      and\n      swap1\n      dup4\n      0xffffffffffffffffffffffffffffffffffffffff\n      and\n      mul\n      or\n      swap1\n      sstore\n      pop\n        /* \"contracts/TicketSale.sol\":2286:2301  offeredTicketId */\n      dup1\n        /* \"contracts/TicketSale.sol\":2259:2271  ticketOwners */\n      0x04\n        /* \"contracts/TicketSale.sol\":2259:2283  ticketOwners[msg.sender] */\n      0x00\n        /* \"contracts/TicketSale.sol\":2272:2282  msg.sender */\n      caller\n        /* \"contracts/TicketSale.sol\":2259:2283  ticketOwners[msg.sender] */\n      0xffffffffffffffffffffffffffffffffffffffff\n      and\n      0xffffffffffffffffffffffffffffffffffffffff\n      and\n      dup2\n      mstore\n      0x20\n      add\n      swap1\n      dup2\n      mstore\n      0x20\n      add\n      0x00\n      keccak256\n        /* \"contracts/TicketSale.sol\":2259:2301  ticketOwners[msg.sender] = offeredTicketId */\n      dup2\n      swap1\n      sstore\n      pop\n        /* \"contracts/TicketSale.sol\":2339:2349  myTicketId */\n      dup3\n        /* \"contracts/TicketSale.sol\":2311:2323  ticketOwners */\n      0x04\n        /* \"contracts/TicketSale.sol\":2311:2336  ticketOwners[swapPartner] */\n      0x00\n        /* \"contracts/TicketSale.sol\":2324:2335  swapPartner */\n      dup5\n        /* \"contracts/TicketSale.sol\":2311:2336  ticketOwners[swapPartner] */\n      0xffffffffffffffffffffffffffffffffffffffff\n      and\n      0xffffffffffffffffffffffffffffffffffffffff\n      and\n      dup2\n      mstore\n      0x20\n      add\n      swap1\n      dup2\n      mstore\n      0x20\n      add\n      0x00\n      keccak256\n        /* \"contracts/TicketSale.sol\":2311:2349  ticketOwners[swapPartner] = myTicketId */\n      dup2\n      swap1\n      sstore\n      pop\n        /* \"contracts/TicketSale.sol\":2367:2377  swapOffers */\n      0x05\n        /* \"contracts/TicketSale.sol\":2367:2390  swapOffers[swapPartner] */\n      0x00\n        /* \"contracts/TicketSale.sol\":2378:2389  swapPartner */\n      dup4\n        /* \"contracts/TicketSale.sol\":2367:2390  swapOffers[swapPartner] */\n      0xffffffffffffffffffffffffffffffffffffffff\n      and\n      0xffffffffffffffffffffffffffffffffffffffff\n      and\n      dup2\n      mstore\n      0x20\n      add\n      swap1\n      dup2\n      mstore\n      0x20\n      add\n      0x00\n      keccak256\n        /* \"contracts/TicketSale.sol\":2367:2402  swapOffers[swapPartner][msg.sender] */\n      0x00\n        /* \"contracts/TicketSale.sol\":2391:2401  msg.sender */\n      caller\n        /* \"contracts/TicketSale.sol\":2367:2402  swapOffers[swapPartner][msg.sender] */\n      0xffffffffffffffffffffffffffffffffffffffff\n      and\n      0xffffffffffffffffffffffffffffffffffffffff\n      and\n      dup2\n      mstore\n      0x20\n      add\n      swap1\n      dup2\n      mstore\n      0x20\n      add\n      0x00\n      keccak256\n        /* \"contracts/TicketSale.sol\":2360:2402  delete swapOffers[swapPartner][msg.sender] */\n      0x00\n      swap1\n      sstore\n        /* \"contracts/TicketSale.sol\":1646:2409  {... */\n      pop\n      pop\n        /* \"contracts/TicketSale.sol\":1599:2409  function acceptSwap(uint256 myTicketId) public {... */\n      pop\n      jump\t// out\n        /* \"contracts/TicketSale.sol\":287:334  mapping(address => uint256) public ticketOwners */\n    tag_36:\n      mstore(0x20, 0x04)\n      dup1\n      0x00\n      mstore\n      keccak256(0x00, 0x40)\n      0x00\n      swap2\n      pop\n      swap1\n      pop\n      sload\n      dup2\n      jump\t// out\n        /* \"contracts/TicketSale.sol\":340:405  mapping(address => mapping(address => uint256)) public swapOffers */\n    tag_42:\n      mstore(0x20, 0x05)\n      dup2\n      0x00\n      mstore\n      mstore(0x20, keccak256(0x00, 0x40))\n      dup1\n      0x00\n      mstore\n      keccak256(0x00, 0x40)\n      0x00\n      swap2\n      pop\n      swap2\n      pop\n      pop\n      sload\n      dup2\n      jump\t// out\n        /* \"contracts/TicketSale.sol\":1146:1593  function offerSwap(uint256 ticketId) public {... */\n    tag_47:\n        /* \"contracts/TicketSale.sol\":1200:1218  uint256 myTicketId */\n      0x00\n        /* \"contracts/TicketSale.sol\":1221:1233  ticketOwners */\n      0x04\n        /* \"contracts/TicketSale.sol\":1221:1245  ticketOwners[msg.sender] */\n      0x00\n        /* \"contracts/TicketSale.sol\":1234:1244  msg.sender */\n      caller\n        /* \"contracts/TicketSale.sol\":1221:1245  ticketOwners[msg.sender] */\n      0xffffffffffffffffffffffffffffffffffffffff\n      and\n      0xffffffffffffffffffffffffffffffffffffffff\n      and\n      dup2\n      mstore\n      0x20\n      add\n      swap1\n      dup2\n      mstore\n      0x20\n      add\n      0x00\n      keccak256\n      sload\n        /* \"contracts/TicketSale.sol\":1200:1245  uint256 myTicketId = ticketOwners[msg.sender] */\n      swap1\n      pop\n        /* \"contracts/TicketSale.sol\":1277:1278  0 */\n      0x00\n        /* \"contracts/TicketSale.sol\":1263:1273  myTicketId */\n      dup2\n        /* \"contracts/TicketSale.sol\":1263:1278  myTicketId != 0 */\n      sub\n        /* \"contracts/TicketSale.sol\":1255:1305  require(myTicketId != 0, \"You don't own a ticket\") */\n      tag_93\n      jumpi\n      mload(0x40)\n      0x08c379a000000000000000000000000000000000000000000000000000000000\n      dup2\n      mstore\n      0x04\n      add\n      tag_94\n      swap1\n      tag_95\n      jump\t// in\n    tag_94:\n      mload(0x40)\n      dup1\n      swap2\n      sub\n      swap1\n      revert\n    tag_93:\n        /* \"contracts/TicketSale.sol\":1358:1359  0 */\n      0x00\n        /* \"contracts/TicketSale.sol\":1323:1360  tickets[ticketId].owner != address(0) */\n      0xffffffffffffffffffffffffffffffffffffffff\n      and\n        /* \"contracts/TicketSale.sol\":1323:1330  tickets */\n      0x03\n        /* \"contracts/TicketSale.sol\":1323:1340  tickets[ticketId] */\n      0x00\n        /* \"contracts/TicketSale.sol\":1331:1339  ticketId */\n      dup5\n        /* \"contracts/TicketSale.sol\":1323:1340  tickets[ticketId] */\n      dup2\n      mstore\n      0x20\n      add\n      swap1\n      dup2\n      mstore\n      0x20\n      add\n      0x00\n      keccak256\n        /* \"contracts/TicketSale.sol\":1323:1346  tickets[ticketId].owner */\n      0x00\n      add\n      0x00\n      swap1\n      sload\n      swap1\n      0x0100\n      exp\n      swap1\n      div\n      0xffffffffffffffffffffffffffffffffffffffff\n      and\n        /* \"contracts/TicketSale.sol\":1323:1360  tickets[ticketId].owner != address(0) */\n      0xffffffffffffffffffffffffffffffffffffffff\n      and\n      sub\n        /* \"contracts/TicketSale.sol\":1315:1387  require(tickets[ticketId].owner != address(0), \"Target ticket not sold\") */\n      tag_96\n      jumpi\n      mload(0x40)\n      0x08c379a000000000000000000000000000000000000000000000000000000000\n      dup2\n      mstore\n      0x04\n      add\n      tag_97\n      swap1\n      tag_98\n      jump\t// in\n    tag_97:\n      mload(0x40)\n      dup1\n      swap2\n      sub\n      swap1\n      revert\n    tag_96:\n        /* \"contracts/TicketSale.sol\":1432:1442  msg.sender */\n      caller\n        /* \"contracts/TicketSale.sol\":1405:1442  tickets[ticketId].owner != msg.sender */\n      0xffffffffffffffffffffffffffffffffffffffff\n      and\n        /* \"contracts/TicketSale.sol\":1405:1412  tickets */\n      0x03\n        /* \"contracts/TicketSale.sol\":1405:1422  tickets[ticketId] */\n      0x00\n        /* \"contracts/TicketSale.sol\":1413:1421  ticketId */\n      dup5\n        /* \"contracts/TicketSale.sol\":1405:1422  tickets[ticketId] */\n      dup2\n      mstore\n      0x20\n      add\n      swap1\n      dup2\n      mstore\n      0x20\n      add\n      0x00\n      keccak256\n        /* \"contracts/TicketSale.sol\":1405:1428  tickets[ticketId].owner */\n      0x00\n      add\n      0x00\n      swap1\n      sload\n      swap1\n      0x0100\n      exp\n      swap1\n      div\n      0xffffffffffffffffffffffffffffffffffffffff\n      and\n        /* \"contracts/TicketSale.sol\":1405:1442  tickets[ticketId].owner != msg.sender */\n      0xffffffffffffffffffffffffffffffffffffffff\n      and\n      sub\n        /* \"contracts/TicketSale.sol\":1397:1472  require(tickets[ticketId].owner != msg.sender, \"Cannot swap with yourself\") */\n      tag_99\n      jumpi\n      mload(0x40)\n      0x08c379a000000000000000000000000000000000000000000000000000000000\n      dup2\n      mstore\n      0x04\n      add\n      tag_100\n      swap1\n      tag_101\n      jump\t// in\n    tag_100:\n      mload(0x40)\n      dup1\n      swap2\n      sub\n      swap1\n      revert\n    tag_99:\n        /* \"contracts/TicketSale.sol\":1483:1502  address targetOwner */\n      0x00\n        /* \"contracts/TicketSale.sol\":1505:1512  tickets */\n      0x03\n        /* \"contracts/TicketSale.sol\":1505:1522  tickets[ticketId] */\n      0x00\n        /* \"contracts/TicketSale.sol\":1513:1521  ticketId */\n      dup5\n        /* \"contracts/TicketSale.sol\":1505:1522  tickets[ticketId] */\n      dup2\n      mstore\n      0x20\n      add\n      swap1\n      dup2\n      mstore\n      0x20\n      add\n      0x00\n      keccak256\n        /* \"contracts/TicketSale.sol\":1505:1528  tickets[ticketId].owner */\n      0x00\n      add\n      0x00\n      swap1\n      sload\n      swap1\n      0x0100\n      exp\n      swap1\n      div\n      0xffffffffffffffffffffffffffffffffffffffff\n      and\n        /* \"contracts/TicketSale.sol\":1483:1528  address targetOwner = tickets[ticketId].owner */\n      swap1\n      pop\n        /* \"contracts/TicketSale.sol\":1576:1586  myTicketId */\n      dup2\n        /* \"contracts/TicketSale.sol\":1538:1548  swapOffers */\n      0x05\n        /* \"contracts/TicketSale.sol\":1538:1560  swapOffers[msg.sender] */\n      0x00\n        /* \"contracts/TicketSale.sol\":1549:1559  msg.sender */\n      caller\n        /* \"contracts/TicketSale.sol\":1538:1560  swapOffers[msg.sender] */\n      0xffffffffffffffffffffffffffffffffffffffff\n      and\n      0xffffffffffffffffffffffffffffffffffffffff\n      and\n      dup2\n      mstore\n      0x20\n      add\n      swap1\n      dup2\n      mstore\n      0x20\n      add\n      0x00\n      keccak256\n        /* \"contracts/TicketSale.sol\":1538:1573  swapOffers[msg.sender][targetOwner] */\n      0x00\n        /* \"contracts/TicketSale.sol\":1561:1572  targetOwner */\n      dup4\n        /* \"contracts/TicketSale.sol\":1538:1573  swapOffers[msg.sender][targetOwner] */\n      0xffffffffffffffffffffffffffffffffffffffff\n      and\n      0xffffffffffffffffffffffffffffffffffffffff\n      and\n      dup2\n      mstore\n      0x20\n      add\n      swap1\n      dup2\n      mstore\n      0x20\n      add\n      0x00\n      keccak256\n        /* \"contracts/TicketSale.sol\":1538:1586  swapOffers[msg.sender][targetOwner] = myTicketId */\n      dup2\n      swap1\n      sstore\n      pop\n        /* \"contracts/TicketSale.sol\":1190:1593  {... */\n      pop\n      pop\n        /* \"contracts/TicketSale.sol\":1146:1593  function offerSwap(uint256 ticketId) public {... */\n      pop\n      jump\t// out\n        /* \"contracts/TicketSale.sol\":147:169  address public manager */\n    tag_50:\n      0x00\n      dup1\n      sload\n      swap1\n      0x0100\n      exp\n      swap1\n      div\n      0xffffffffffffffffffffffffffffffffffffffff\n      and\n      dup2\n      jump\t// out\n        /* \"contracts/TicketSale.sol\":240:281  mapping(uint256 => Ticket) public tickets */\n    tag_56:\n      mstore(0x20, 0x03)\n      dup1\n      0x00\n      mstore\n      keccak256(0x00, 0x40)\n      0x00\n      swap2\n      pop\n      swap1\n      pop\n      dup1\n      0x00\n      add\n      0x00\n      swap1\n      sload\n      swap1\n      0x0100\n      exp\n      swap1\n      div\n      0xffffffffffffffffffffffffffffffffffffffff\n      and\n      swap1\n      dup1\n      0x01\n      add\n      sload\n      swap1\n      dup1\n      0x02\n      add\n      0x00\n      swap1\n      sload\n      swap1\n      0x0100\n      exp\n      swap1\n      div\n      0xff\n      and\n      swap1\n      pop\n      dup4\n      jump\t// out\n        /* \"contracts/TicketSale.sol\":566:1023  function buyTicket(uint256 ticketId) public payable {... */\n    tag_61:\n        /* \"contracts/TicketSale.sol\":647:648  0 */\n      0x00\n        /* \"contracts/TicketSale.sol\":636:644  ticketId */\n      dup2\n        /* \"contracts/TicketSale.sol\":636:648  ticketId > 0 */\n      gt\n        /* \"contracts/TicketSale.sol\":636:676  ticketId > 0 && ticketId <= totalTickets */\n      dup1\n      iszero\n      tag_103\n      jumpi\n      pop\n        /* \"contracts/TicketSale.sol\":664:676  totalTickets */\n      sload(0x02)\n        /* \"contracts/TicketSale.sol\":652:660  ticketId */\n      dup2\n        /* \"contracts/TicketSale.sol\":652:676  ticketId <= totalTickets */\n      gt\n      iszero\n        /* \"contracts/TicketSale.sol\":636:676  ticketId > 0 && ticketId <= totalTickets */\n    tag_103:\n        /* \"contracts/TicketSale.sol\":628:698  require(ticketId > 0 && ticketId <= totalTickets, \"Invalid ticket ID\") */\n      tag_104\n      jumpi\n      mload(0x40)\n      0x08c379a000000000000000000000000000000000000000000000000000000000\n      dup2\n      mstore\n      0x04\n      add\n      tag_105\n      swap1\n      tag_106\n      jump\t// in\n    tag_105:\n      mload(0x40)\n      dup1\n      swap2\n      sub\n      swap1\n      revert\n    tag_104:\n        /* \"contracts/TicketSale.sol\":751:752  0 */\n      0x00\n        /* \"contracts/TicketSale.sol\":716:753  tickets[ticketId].owner == address(0) */\n      0xffffffffffffffffffffffffffffffffffffffff\n      and\n        /* \"contracts/TicketSale.sol\":716:723  tickets */\n      0x03\n        /* \"contracts/TicketSale.sol\":716:733  tickets[ticketId] */\n      0x00\n        /* \"contracts/TicketSale.sol\":724:732  ticketId */\n      dup4\n        /* \"contracts/TicketSale.sol\":716:733  tickets[ticketId] */\n      dup2\n      mstore\n      0x20\n      add\n      swap1\n      dup2\n      mstore\n      0x20\n      add\n      0x00\n      keccak256\n        /* \"contracts/TicketSale.sol\":716:739  tickets[ticketId].owner */\n      0x00\n      add\n      0x00\n      swap1\n      sload\n      swap1\n      0x0100\n      exp\n      swap1\n      div\n      0xffffffffffffffffffffffffffffffffffffffff\n      and\n        /* \"contracts/TicketSale.sol\":716:753  tickets[ticketId].owner == address(0) */\n      0xffffffffffffffffffffffffffffffffffffffff\n      and\n      eq\n        /* \"contracts/TicketSale.sol\":708:777  require(tickets[ticketId].owner == address(0), \"Ticket already sold\") */\n      tag_107\n      jumpi\n      mload(0x40)\n      0x08c379a000000000000000000000000000000000000000000000000000000000\n      dup2\n      mstore\n      0x04\n      add\n      tag_108\n      swap1\n      tag_109\n      jump\t// in\n    tag_108:\n      mload(0x40)\n      dup1\n      swap2\n      sub\n      swap1\n      revert\n    tag_107:\n        /* \"contracts/TicketSale.sol\":823:824  0 */\n      0x00\n        /* \"contracts/TicketSale.sol\":795:807  ticketOwners */\n      0x04\n        /* \"contracts/TicketSale.sol\":795:819  ticketOwners[msg.sender] */\n      0x00\n        /* \"contracts/TicketSale.sol\":808:818  msg.sender */\n      caller\n        /* \"contracts/TicketSale.sol\":795:819  ticketOwners[msg.sender] */\n      0xffffffffffffffffffffffffffffffffffffffff\n      and\n      0xffffffffffffffffffffffffffffffffffffffff\n      and\n      dup2\n      mstore\n      0x20\n      add\n      swap1\n      dup2\n      mstore\n      0x20\n      add\n      0x00\n      keccak256\n      sload\n        /* \"contracts/TicketSale.sol\":795:824  ticketOwners[msg.sender] == 0 */\n      eq\n        /* \"contracts/TicketSale.sol\":787:853  require(ticketOwners[msg.sender] == 0, \"You already own a ticket\") */\n      tag_110\n      jumpi\n      mload(0x40)\n      0x08c379a000000000000000000000000000000000000000000000000000000000\n      dup2\n      mstore\n      0x04\n      add\n      tag_111\n      swap1\n      tag_112\n      jump\t// in\n    tag_111:\n      mload(0x40)\n      dup1\n      swap2\n      sub\n      swap1\n      revert\n    tag_110:\n        /* \"contracts/TicketSale.sol\":884:895  ticketPrice */\n      sload(0x01)\n        /* \"contracts/TicketSale.sol\":871:880  msg.value */\n      callvalue\n        /* \"contracts/TicketSale.sol\":871:895  msg.value == ticketPrice */\n      eq\n        /* \"contracts/TicketSale.sol\":863:924  require(msg.value == ticketPrice, \"Incorrect payment amount\") */\n      tag_113\n      jumpi\n      mload(0x40)\n      0x08c379a000000000000000000000000000000000000000000000000000000000\n      dup2\n      mstore\n      0x04\n      add\n      tag_114\n      swap1\n      tag_115\n      jump\t// in\n    tag_114:\n      mload(0x40)\n      dup1\n      swap2\n      sub\n      swap1\n      revert\n    tag_113:\n        /* \"contracts/TicketSale.sol\":961:971  msg.sender */\n      caller\n        /* \"contracts/TicketSale.sol\":935:942  tickets */\n      0x03\n        /* \"contracts/TicketSale.sol\":935:952  tickets[ticketId] */\n      0x00\n        /* \"contracts/TicketSale.sol\":943:951  ticketId */\n      dup4\n        /* \"contracts/TicketSale.sol\":935:952  tickets[ticketId] */\n      dup2\n      mstore\n      0x20\n      add\n      swap1\n      dup2\n      mstore\n      0x20\n      add\n      0x00\n      keccak256\n        /* \"contracts/TicketSale.sol\":935:958  tickets[ticketId].owner */\n      0x00\n      add\n      0x00\n        /* \"contracts/TicketSale.sol\":935:971  tickets[ticketId].owner = msg.sender */\n      0x0100\n      exp\n      dup2\n      sload\n      dup2\n      0xffffffffffffffffffffffffffffffffffffffff\n      mul\n      not\n      and\n      swap1\n      dup4\n      0xffffffffffffffffffffffffffffffffffffffff\n      and\n      mul\n      or\n      swap1\n      sstore\n      pop\n        /* \"contracts/TicketSale.sol\":1008:1016  ticketId */\n      dup1\n        /* \"contracts/TicketSale.sol\":981:993  ticketOwners */\n      0x04\n        /* \"contracts/TicketSale.sol\":981:1005  ticketOwners[msg.sender] */\n      0x00\n        /* \"contracts/TicketSale.sol\":994:1004  msg.sender */\n      caller\n        /* \"contracts/TicketSale.sol\":981:1005  ticketOwners[msg.sender] */\n      0xffffffffffffffffffffffffffffffffffffffff\n      and\n      0xffffffffffffffffffffffffffffffffffffffff\n      and\n      dup2\n      mstore\n      0x20\n      add\n      swap1\n      dup2\n      mstore\n      0x20\n      add\n      0x00\n      keccak256\n        /* \"contracts/TicketSale.sol\":981:1016  ticketOwners[msg.sender] = ticketId */\n      dup2\n      swap1\n      sstore\n      pop\n        /* \"contracts/TicketSale.sol\":566:1023  function buyTicket(uint256 ticketId) public payable {... */\n      pop\n      jump\t// out\n        /* \"contracts/TicketSale.sol\":2667:3384  function acceptResale(uint256 ticketId) public payable {... */\n    tag_64:\n        /* \"contracts/TicketSale.sol\":2732:2753  Ticket storage ticket */\n      0x00\n        /* \"contracts/TicketSale.sol\":2756:2763  tickets */\n      0x03\n        /* \"contracts/TicketSale.sol\":2756:2773  tickets[ticketId] */\n      0x00\n        /* \"contracts/TicketSale.sol\":2764:2772  ticketId */\n      dup4\n        /* \"contracts/TicketSale.sol\":2756:2773  tickets[ticketId] */\n      dup2\n      mstore\n      0x20\n      add\n      swap1\n      dup2\n      mstore\n      0x20\n      add\n      0x00\n      keccak256\n        /* \"contracts/TicketSale.sol\":2732:2773  Ticket storage ticket = tickets[ticketId] */\n      swap1\n      pop\n        /* \"contracts/TicketSale.sol\":2791:2797  ticket */\n      dup1\n        /* \"contracts/TicketSale.sol\":2791:2805  ticket.forSale */\n      0x02\n      add\n      0x00\n      swap1\n      sload\n      swap1\n      0x0100\n      exp\n      swap1\n      div\n      0xff\n      and\n        /* \"contracts/TicketSale.sol\":2783:2829  require(ticket.forSale, \"Ticket not for sale\") */\n      tag_117\n      jumpi\n      mload(0x40)\n      0x08c379a000000000000000000000000000000000000000000000000000000000\n      dup2\n      mstore\n      0x04\n      add\n      tag_118\n      swap1\n      tag_119\n      jump\t// in\n    tag_118:\n      mload(0x40)\n      dup1\n      swap2\n      sub\n      swap1\n      revert\n    tag_117:\n        /* \"contracts/TicketSale.sol\":2875:2876  0 */\n      0x00\n        /* \"contracts/TicketSale.sol\":2847:2859  ticketOwners */\n      0x04\n        /* \"contracts/TicketSale.sol\":2847:2871  ticketOwners[msg.sender] */\n      0x00\n        /* \"contracts/TicketSale.sol\":2860:2870  msg.sender */\n      caller\n        /* \"contracts/TicketSale.sol\":2847:2871  ticketOwners[msg.sender] */\n      0xffffffffffffffffffffffffffffffffffffffff\n      and\n      0xffffffffffffffffffffffffffffffffffffffff\n      and\n      dup2\n      mstore\n      0x20\n      add\n      swap1\n      dup2\n      mstore\n      0x20\n      add\n      0x00\n      keccak256\n      sload\n        /* \"contracts/TicketSale.sol\":2847:2876  ticketOwners[msg.sender] == 0 */\n      eq\n        /* \"contracts/TicketSale.sol\":2839:2905  require(ticketOwners[msg.sender] == 0, \"You already own a ticket\") */\n      tag_120\n      jumpi\n      mload(0x40)\n      0x08c379a000000000000000000000000000000000000000000000000000000000\n      dup2\n      mstore\n      0x04\n      add\n      tag_121\n      swap1\n      tag_112\n      jump\t// in\n    tag_121:\n      mload(0x40)\n      dup1\n      swap2\n      sub\n      swap1\n      revert\n    tag_120:\n        /* \"contracts/TicketSale.sol\":2936:2942  ticket */\n      dup1\n        /* \"contracts/TicketSale.sol\":2936:2948  ticket.price */\n      0x01\n      add\n      sload\n        /* \"contracts/TicketSale.sol\":2923:2932  msg.value */\n      callvalue\n        /* \"contracts/TicketSale.sol\":2923:2948  msg.value == ticket.price */\n      eq\n        /* \"contracts/TicketSale.sol\":2915:2977  require(msg.value == ticket.price, \"Incorrect payment amount\") */\n      tag_122\n      jumpi\n      mload(0x40)\n      0x08c379a000000000000000000000000000000000000000000000000000000000\n      dup2\n      mstore\n      0x04\n      add\n      tag_123\n      swap1\n      tag_115\n      jump\t// in\n    tag_123:\n      mload(0x40)\n      dup1\n      swap2\n      sub\n      swap1\n      revert\n    tag_122:\n        /* \"contracts/TicketSale.sol\":2988:3002  address seller */\n      0x00\n        /* \"contracts/TicketSale.sol\":3005:3011  ticket */\n      dup2\n        /* \"contracts/TicketSale.sol\":3005:3017  ticket.owner */\n      0x00\n      add\n      0x00\n      swap1\n      sload\n      swap1\n      0x0100\n      exp\n      swap1\n      div\n      0xffffffffffffffffffffffffffffffffffffffff\n      and\n        /* \"contracts/TicketSale.sol\":2988:3017  address seller = ticket.owner */\n      swap1\n      pop\n        /* \"contracts/TicketSale.sol\":3027:3045  uint256 serviceFee */\n      0x00\n        /* \"contracts/TicketSale.sol\":3070:3073  100 */\n      0x64\n        /* \"contracts/TicketSale.sol\":3064:3066  10 */\n      0x0a\n        /* \"contracts/TicketSale.sol\":3049:3055  ticket */\n      dup5\n        /* \"contracts/TicketSale.sol\":3049:3061  ticket.price */\n      0x01\n      add\n      sload\n        /* \"contracts/TicketSale.sol\":3049:3066  ticket.price * 10 */\n      tag_124\n      swap2\n      swap1\n      tag_125\n      jump\t// in\n    tag_124:\n        /* \"contracts/TicketSale.sol\":3048:3073  (ticket.price * 10) / 100 */\n      tag_126\n      swap2\n      swap1\n      tag_127\n      jump\t// in\n    tag_126:\n        /* \"contracts/TicketSale.sol\":3027:3073  uint256 serviceFee = (ticket.price * 10) / 100 */\n      swap1\n      pop\n        /* \"contracts/TicketSale.sol\":3083:3103  uint256 sellerAmount */\n      0x00\n        /* \"contracts/TicketSale.sol\":3121:3131  serviceFee */\n      dup2\n        /* \"contracts/TicketSale.sol\":3106:3112  ticket */\n      dup5\n        /* \"contracts/TicketSale.sol\":3106:3118  ticket.price */\n      0x01\n      add\n      sload\n        /* \"contracts/TicketSale.sol\":3106:3131  ticket.price - serviceFee */\n      tag_128\n      swap2\n      swap1\n      tag_129\n      jump\t// in\n    tag_128:\n        /* \"contracts/TicketSale.sol\":3083:3131  uint256 sellerAmount = ticket.price - serviceFee */\n      swap1\n      pop\n        /* \"contracts/TicketSale.sol\":3150:3156  seller */\n      dup3\n        /* \"contracts/TicketSale.sol\":3142:3166  payable(seller).transfer */\n      0xffffffffffffffffffffffffffffffffffffffff\n      and\n        /* \"contracts/TicketSale.sol\":3142:3180  payable(seller).transfer(sellerAmount) */\n      0x08fc\n        /* \"contracts/TicketSale.sol\":3167:3179  sellerAmount */\n      dup3\n        /* \"contracts/TicketSale.sol\":3142:3180  payable(seller).transfer(sellerAmount) */\n      swap1\n      dup2\n      iszero\n      mul\n      swap1\n      mload(0x40)\n      0x00\n      mload(0x40)\n      dup1\n      dup4\n      sub\n      dup2\n      dup6\n      dup9\n      dup9\n      call\n      swap4\n      pop\n      pop\n      pop\n      pop\n      iszero\n      dup1\n      iszero\n      tag_131\n      jumpi\n      returndatasize\n      0x00\n      dup1\n      returndatacopy\n      revert(0x00, returndatasize)\n    tag_131:\n      pop\n        /* \"contracts/TicketSale.sol\":3198:3205  manager */\n      0x00\n      dup1\n      sload\n      swap1\n      0x0100\n      exp\n      swap1\n      div\n      0xffffffffffffffffffffffffffffffffffffffff\n      and\n        /* \"contracts/TicketSale.sol\":3190:3215  payable(manager).transfer */\n      0xffffffffffffffffffffffffffffffffffffffff\n      and\n        /* \"contracts/TicketSale.sol\":3190:3227  payable(manager).transfer(serviceFee) */\n      0x08fc\n        /* \"contracts/TicketSale.sol\":3216:3226  serviceFee */\n      dup4\n        /* \"contracts/TicketSale.sol\":3190:3227  payable(manager).transfer(serviceFee) */\n      swap1\n      dup2\n      iszero\n      mul\n      swap1\n      mload(0x40)\n      0x00\n      mload(0x40)\n      dup1\n      dup4\n      sub\n      dup2\n      dup6\n      dup9\n      dup9\n      call\n      swap4\n      pop\n      pop\n      pop\n      pop\n      iszero\n      dup1\n      iszero\n      tag_133\n      jumpi\n      returndatasize\n      0x00\n      dup1\n      returndatacopy\n      revert(0x00, returndatasize)\n    tag_133:\n      pop\n        /* \"contracts/TicketSale.sol\":3253:3263  msg.sender */\n      caller\n        /* \"contracts/TicketSale.sol\":3238:3244  ticket */\n      dup5\n        /* \"contracts/TicketSale.sol\":3238:3250  ticket.owner */\n      0x00\n      add\n      0x00\n        /* \"contracts/TicketSale.sol\":3238:3263  ticket.owner = msg.sender */\n      0x0100\n      exp\n      dup2\n      sload\n      dup2\n      0xffffffffffffffffffffffffffffffffffffffff\n      mul\n      not\n      and\n      swap1\n      dup4\n      0xffffffffffffffffffffffffffffffffffffffff\n      and\n      mul\n      or\n      swap1\n      sstore\n      pop\n        /* \"contracts/TicketSale.sol\":3290:3295  false */\n      0x00\n        /* \"contracts/TicketSale.sol\":3273:3279  ticket */\n      dup5\n        /* \"contracts/TicketSale.sol\":3273:3287  ticket.forSale */\n      0x02\n      add\n      0x00\n        /* \"contracts/TicketSale.sol\":3273:3295  ticket.forSale = false */\n      0x0100\n      exp\n      dup2\n      sload\n      dup2\n      0xff\n      mul\n      not\n      and\n      swap1\n      dup4\n      iszero\n      iszero\n      mul\n      or\n      swap1\n      sstore\n      pop\n        /* \"contracts/TicketSale.sol\":3332:3340  ticketId */\n      dup5\n        /* \"contracts/TicketSale.sol\":3305:3317  ticketOwners */\n      0x04\n        /* \"contracts/TicketSale.sol\":3305:3329  ticketOwners[msg.sender] */\n      0x00\n        /* \"contracts/TicketSale.sol\":3318:3328  msg.sender */\n      caller\n        /* \"contracts/TicketSale.sol\":3305:3329  ticketOwners[msg.sender] */\n      0xffffffffffffffffffffffffffffffffffffffff\n      and\n      0xffffffffffffffffffffffffffffffffffffffff\n      and\n      dup2\n      mstore\n      0x20\n      add\n      swap1\n      dup2\n      mstore\n      0x20\n      add\n      0x00\n      keccak256\n        /* \"contracts/TicketSale.sol\":3305:3340  ticketOwners[msg.sender] = ticketId */\n      dup2\n      swap1\n      sstore\n      pop\n        /* \"contracts/TicketSale.sol\":3357:3369  ticketOwners */\n      0x04\n        /* \"contracts/TicketSale.sol\":3357:3377  ticketOwners[seller] */\n      0x00\n        /* \"contracts/TicketSale.sol\":3370:3376  seller */\n      dup5\n        /* \"contracts/TicketSale.sol\":3357:3377  ticketOwners[seller] */\n      0xffffffffffffffffffffffffffffffffffffffff\n      and\n      0xffffffffffffffffffffffffffffffffffffffff\n      and\n      dup2\n      mstore\n      0x20\n      add\n      swap1\n      dup2\n      mstore\n      0x20\n      add\n      0x00\n      keccak256\n        /* \"contracts/TicketSale.sol\":3350:3377  delete ticketOwners[seller] */\n      0x00\n      swap1\n      sstore\n        /* \"contracts/TicketSale.sol\":2722:3384  {... */\n      pop\n      pop\n      pop\n      pop\n        /* \"contracts/TicketSale.sol\":2667:3384  function acceptResale(uint256 ticketId) public payable {... */\n      pop\n      jump\t// out\n        /* \"contracts/TicketSale.sol\":2415:2661  function resaleTicket(uint256 price) public {... */\n    tag_68:\n        /* \"contracts/TicketSale.sol\":2469:2485  uint256 ticketId */\n      0x00\n        /* \"contracts/TicketSale.sol\":2488:2500  ticketOwners */\n      0x04\n        /* \"contracts/TicketSale.sol\":2488:2512  ticketOwners[msg.sender] */\n      0x00\n        /* \"contracts/TicketSale.sol\":2501:2511  msg.sender */\n      caller\n        /* \"contracts/TicketSale.sol\":2488:2512  ticketOwners[msg.sender] */\n      0xffffffffffffffffffffffffffffffffffffffff\n      and\n      0xffffffffffffffffffffffffffffffffffffffff\n      and\n      dup2\n      mstore\n      0x20\n      add\n      swap1\n      dup2\n      mstore\n      0x20\n      add\n      0x00\n      keccak256\n      sload\n        /* \"contracts/TicketSale.sol\":2469:2512  uint256 ticketId = ticketOwners[msg.sender] */\n      swap1\n      pop\n        /* \"contracts/TicketSale.sol\":2542:2543  0 */\n      0x00\n        /* \"contracts/TicketSale.sol\":2530:2538  ticketId */\n      dup2\n        /* \"contracts/TicketSale.sol\":2530:2543  ticketId != 0 */\n      sub\n        /* \"contracts/TicketSale.sol\":2522:2570  require(ticketId != 0, \"You don't own a ticket\") */\n      tag_135\n      jumpi\n      mload(0x40)\n      0x08c379a000000000000000000000000000000000000000000000000000000000\n      dup2\n      mstore\n      0x04\n      add\n      tag_136\n      swap1\n      tag_95\n      jump\t// in\n    tag_136:\n      mload(0x40)\n      dup1\n      swap2\n      sub\n      swap1\n      revert\n    tag_135:\n        /* \"contracts/TicketSale.sol\":2607:2612  price */\n      dup2\n        /* \"contracts/TicketSale.sol\":2581:2588  tickets */\n      0x03\n        /* \"contracts/TicketSale.sol\":2581:2598  tickets[ticketId] */\n      0x00\n        /* \"contracts/TicketSale.sol\":2589:2597  ticketId */\n      dup4\n        /* \"contracts/TicketSale.sol\":2581:2598  tickets[ticketId] */\n      dup2\n      mstore\n      0x20\n      add\n      swap1\n      dup2\n      mstore\n      0x20\n      add\n      0x00\n      keccak256\n        /* \"contracts/TicketSale.sol\":2581:2604  tickets[ticketId].price */\n      0x01\n      add\n        /* \"contracts/TicketSale.sol\":2581:2612  tickets[ticketId].price = price */\n      dup2\n      swap1\n      sstore\n      pop\n        /* \"contracts/TicketSale.sol\":2650:2654  true */\n      0x01\n        /* \"contracts/TicketSale.sol\":2622:2629  tickets */\n      0x03\n        /* \"contracts/TicketSale.sol\":2622:2639  tickets[ticketId] */\n      0x00\n        /* \"contracts/TicketSale.sol\":2630:2638  ticketId */\n      dup4\n        /* \"contracts/TicketSale.sol\":2622:2639  tickets[ticketId] */\n      dup2\n      mstore\n      0x20\n      add\n      swap1\n      dup2\n      mstore\n      0x20\n      add\n      0x00\n      keccak256\n        /* \"contracts/TicketSale.sol\":2622:2647  tickets[ticketId].forSale */\n      0x02\n      add\n      0x00\n        /* \"contracts/TicketSale.sol\":2622:2654  tickets[ticketId].forSale = true */\n      0x0100\n      exp\n      dup2\n      sload\n      dup2\n      0xff\n      mul\n      not\n      and\n      swap1\n      dup4\n      iszero\n      iszero\n      mul\n      or\n      swap1\n      sstore\n      pop\n        /* \"contracts/TicketSale.sol\":2459:2661  {... */\n      pop\n        /* \"contracts/TicketSale.sol\":2415:2661  function resaleTicket(uint256 price) public {... */\n      pop\n      jump\t// out\n        /* \"contracts/TicketSale.sol\":3390:4000  function checkResale() public view returns (uint256[] memory) {... */\n    tag_71:\n        /* \"contracts/TicketSale.sol\":3434:3450  uint256[] memory */\n      0x60\n        /* \"contracts/TicketSale.sol\":3462:3475  uint256 count */\n      0x00\n        /* \"contracts/TicketSale.sol\":3494:3503  uint256 i */\n      dup1\n        /* \"contracts/TicketSale.sol\":3506:3507  1 */\n      0x01\n        /* \"contracts/TicketSale.sol\":3494:3507  uint256 i = 1 */\n      swap1\n      pop\n        /* \"contracts/TicketSale.sol\":3489:3621  for (uint256 i = 1; i <= totalTickets; i++) {... */\n    tag_138:\n        /* \"contracts/TicketSale.sol\":3514:3526  totalTickets */\n      sload(0x02)\n        /* \"contracts/TicketSale.sol\":3509:3510  i */\n      dup2\n        /* \"contracts/TicketSale.sol\":3509:3526  i <= totalTickets */\n      gt\n        /* \"contracts/TicketSale.sol\":3489:3621  for (uint256 i = 1; i <= totalTickets; i++) {... */\n      tag_139\n      jumpi\n        /* \"contracts/TicketSale.sol\":3551:3558  tickets */\n      0x03\n        /* \"contracts/TicketSale.sol\":3551:3561  tickets[i] */\n      0x00\n        /* \"contracts/TicketSale.sol\":3559:3560  i */\n      dup3\n        /* \"contracts/TicketSale.sol\":3551:3561  tickets[i] */\n      dup2\n      mstore\n      0x20\n      add\n      swap1\n      dup2\n      mstore\n      0x20\n      add\n      0x00\n      keccak256\n        /* \"contracts/TicketSale.sol\":3551:3569  tickets[i].forSale */\n      0x02\n      add\n      0x00\n      swap1\n      sload\n      swap1\n      0x0100\n      exp\n      swap1\n      div\n      0xff\n      and\n        /* \"contracts/TicketSale.sol\":3547:3611  if (tickets[i].forSale) {... */\n      iszero\n      tag_141\n      jumpi\n        /* \"contracts/TicketSale.sol\":3589:3596  count++ */\n      dup2\n      dup1\n      tag_142\n      swap1\n      tag_88\n      jump\t// in\n    tag_142:\n      swap3\n      pop\n      pop\n        /* \"contracts/TicketSale.sol\":3547:3611  if (tickets[i].forSale) {... */\n    tag_141:\n        /* \"contracts/TicketSale.sol\":3528:3531  i++ */\n      dup1\n      dup1\n      tag_143\n      swap1\n      tag_88\n      jump\t// in\n    tag_143:\n      swap2\n      pop\n      pop\n        /* \"contracts/TicketSale.sol\":3489:3621  for (uint256 i = 1; i <= totalTickets; i++) {... */\n      jump(tag_138)\n    tag_139:\n      pop\n        /* \"contracts/TicketSale.sol\":3631:3661  uint256[] memory resaleTickets */\n      0x00\n        /* \"contracts/TicketSale.sol\":3686:3687  2 */\n      0x02\n        /* \"contracts/TicketSale.sol\":3678:3683  count */\n      dup3\n        /* \"contracts/TicketSale.sol\":3678:3687  count * 2 */\n      tag_144\n      swap2\n      swap1\n      tag_125\n      jump\t// in\n    tag_144:\n        /* \"contracts/TicketSale.sol\":3664:3688  new uint256[](count * 2) */\n      0xffffffffffffffff\n      dup2\n      gt\n      iszero\n      tag_145\n      jumpi\n      tag_146\n      tag_147\n      jump\t// in\n    tag_146:\n    tag_145:\n      mload(0x40)\n      swap1\n      dup1\n      dup3\n      mstore\n      dup1\n      0x20\n      mul\n      0x20\n      add\n      dup3\n      add\n      0x40\n      mstore\n      dup1\n      iszero\n      tag_148\n      jumpi\n      dup2\n      0x20\n      add\n      0x20\n      dup3\n      mul\n      dup1\n      calldatasize\n      dup4\n      calldatacopy\n      dup1\n      dup3\n      add\n      swap2\n      pop\n      pop\n      swap1\n      pop\n    tag_148:\n      pop\n        /* \"contracts/TicketSale.sol\":3631:3688  uint256[] memory resaleTickets = new uint256[](count * 2) */\n      swap1\n      pop\n        /* \"contracts/TicketSale.sol\":3698:3711  uint256 index */\n      0x00\n        /* \"contracts/TicketSale.sol\":3730:3739  uint256 i */\n      dup1\n        /* \"contracts/TicketSale.sol\":3742:3743  1 */\n      0x01\n        /* \"contracts/TicketSale.sol\":3730:3743  uint256 i = 1 */\n      swap1\n      pop\n        /* \"contracts/TicketSale.sol\":3725:3963  for (uint256 i = 1; i <= totalTickets; i++) {... */\n    tag_149:\n        /* \"contracts/TicketSale.sol\":3750:3762  totalTickets */\n      sload(0x02)\n        /* \"contracts/TicketSale.sol\":3745:3746  i */\n      dup2\n        /* \"contracts/TicketSale.sol\":3745:3762  i <= totalTickets */\n      gt\n        /* \"contracts/TicketSale.sol\":3725:3963  for (uint256 i = 1; i <= totalTickets; i++) {... */\n      tag_150\n      jumpi\n        /* \"contracts/TicketSale.sol\":3787:3794  tickets */\n      0x03\n        /* \"contracts/TicketSale.sol\":3787:3797  tickets[i] */\n      0x00\n        /* \"contracts/TicketSale.sol\":3795:3796  i */\n      dup3\n        /* \"contracts/TicketSale.sol\":3787:3797  tickets[i] */\n      dup2\n      mstore\n      0x20\n      add\n      swap1\n      dup2\n      mstore\n      0x20\n      add\n      0x00\n      keccak256\n        /* \"contracts/TicketSale.sol\":3787:3805  tickets[i].forSale */\n      0x02\n      add\n      0x00\n      swap1\n      sload\n      swap1\n      0x0100\n      exp\n      swap1\n      div\n      0xff\n      and\n        /* \"contracts/TicketSale.sol\":3783:3953  if (tickets[i].forSale) {... */\n      iszero\n      tag_152\n      jumpi\n        /* \"contracts/TicketSale.sol\":3848:3849  i */\n      dup1\n        /* \"contracts/TicketSale.sol\":3825:3838  resaleTickets */\n      dup4\n        /* \"contracts/TicketSale.sol\":3839:3844  index */\n      dup4\n        /* \"contracts/TicketSale.sol\":3825:3845  resaleTickets[index] */\n      dup2\n      mload\n      dup2\n      lt\n      tag_153\n      jumpi\n      tag_154\n      tag_155\n      jump\t// in\n    tag_154:\n    tag_153:\n      0x20\n      mul\n      0x20\n      add\n      add\n        /* \"contracts/TicketSale.sol\":3825:3849  resaleTickets[index] = i */\n      dup2\n      dup2\n      mstore\n      pop\n      pop\n        /* \"contracts/TicketSale.sol\":3894:3901  tickets */\n      0x03\n        /* \"contracts/TicketSale.sol\":3894:3904  tickets[i] */\n      0x00\n        /* \"contracts/TicketSale.sol\":3902:3903  i */\n      dup3\n        /* \"contracts/TicketSale.sol\":3894:3904  tickets[i] */\n      dup2\n      mstore\n      0x20\n      add\n      swap1\n      dup2\n      mstore\n      0x20\n      add\n      0x00\n      keccak256\n        /* \"contracts/TicketSale.sol\":3894:3910  tickets[i].price */\n      0x01\n      add\n      sload\n        /* \"contracts/TicketSale.sol\":3867:3880  resaleTickets */\n      dup4\n        /* \"contracts/TicketSale.sol\":3889:3890  1 */\n      0x01\n        /* \"contracts/TicketSale.sol\":3881:3886  index */\n      dup5\n        /* \"contracts/TicketSale.sol\":3881:3890  index + 1 */\n      tag_156\n      swap2\n      swap1\n      tag_157\n      jump\t// in\n    tag_156:\n        /* \"contracts/TicketSale.sol\":3867:3891  resaleTickets[index + 1] */\n      dup2\n      mload\n      dup2\n      lt\n      tag_158\n      jumpi\n      tag_159\n      tag_155\n      jump\t// in\n    tag_159:\n    tag_158:\n      0x20\n      mul\n      0x20\n      add\n      add\n        /* \"contracts/TicketSale.sol\":3867:3910  resaleTickets[index + 1] = tickets[i].price */\n      dup2\n      dup2\n      mstore\n      pop\n      pop\n        /* \"contracts/TicketSale.sol\":3937:3938  2 */\n      0x02\n        /* \"contracts/TicketSale.sol\":3928:3938  index += 2 */\n      dup3\n      tag_160\n      swap2\n      swap1\n      tag_157\n      jump\t// in\n    tag_160:\n      swap2\n      pop\n        /* \"contracts/TicketSale.sol\":3783:3953  if (tickets[i].forSale) {... */\n    tag_152:\n        /* \"contracts/TicketSale.sol\":3764:3767  i++ */\n      dup1\n      dup1\n      tag_161\n      swap1\n      tag_88\n      jump\t// in\n    tag_161:\n      swap2\n      pop\n      pop\n        /* \"contracts/TicketSale.sol\":3725:3963  for (uint256 i = 1; i <= totalTickets; i++) {... */\n      jump(tag_149)\n    tag_150:\n      pop\n        /* \"contracts/TicketSale.sol\":3980:3993  resaleTickets */\n      dup2\n        /* \"contracts/TicketSale.sol\":3973:3993  return resaleTickets */\n      swap4\n      pop\n      pop\n      pop\n      pop\n        /* \"contracts/TicketSale.sol\":3390:4000  function checkResale() public view returns (uint256[] memory) {... */\n      swap1\n      jump\t// out\n        /* \"contracts/TicketSale.sol\":207:234  uint256 public totalTickets */\n    tag_76:\n      sload(0x02)\n      dup2\n      jump\t// out\n        /* \"#utility.yul\":88:205   */\n    tag_163:\n        /* \"#utility.yul\":197:198   */\n      0x00\n        /* \"#utility.yul\":194:195   */\n      dup1\n        /* \"#utility.yul\":187:199   */\n      revert\n        /* \"#utility.yul\":334:460   */\n    tag_165:\n        /* \"#utility.yul\":371:378   */\n      0x00\n        /* \"#utility.yul\":411:453   */\n      0xffffffffffffffffffffffffffffffffffffffff\n        /* \"#utility.yul\":404:409   */\n      dup3\n        /* \"#utility.yul\":400:454   */\n      and\n        /* \"#utility.yul\":389:454   */\n      swap1\n      pop\n        /* \"#utility.yul\":334:460   */\n      swap2\n      swap1\n      pop\n      jump\t// out\n        /* \"#utility.yul\":466:562   */\n    tag_166:\n        /* \"#utility.yul\":503:510   */\n      0x00\n        /* \"#utility.yul\":532:556   */\n      tag_212\n        /* \"#utility.yul\":550:555   */\n      dup3\n        /* \"#utility.yul\":532:556   */\n      tag_165\n      jump\t// in\n    tag_212:\n        /* \"#utility.yul\":521:556   */\n      swap1\n      pop\n        /* \"#utility.yul\":466:562   */\n      swap2\n      swap1\n      pop\n      jump\t// out\n        /* \"#utility.yul\":568:690   */\n    tag_167:\n        /* \"#utility.yul\":641:665   */\n      tag_214\n        /* \"#utility.yul\":659:664   */\n      dup2\n        /* \"#utility.yul\":641:665   */\n      tag_166\n      jump\t// in\n    tag_214:\n        /* \"#utility.yul\":634:639   */\n      dup2\n        /* \"#utility.yul\":631:666   */\n      eq\n        /* \"#utility.yul\":621:684   */\n      tag_215\n      jumpi\n        /* \"#utility.yul\":680:681   */\n      0x00\n        /* \"#utility.yul\":677:678   */\n      dup1\n        /* \"#utility.yul\":670:682   */\n      revert\n        /* \"#utility.yul\":621:684   */\n    tag_215:\n        /* \"#utility.yul\":568:690   */\n      pop\n      jump\t// out\n        /* \"#utility.yul\":696:835   */\n    tag_168:\n        /* \"#utility.yul\":742:747   */\n      0x00\n        /* \"#utility.yul\":780:786   */\n      dup2\n        /* \"#utility.yul\":767:787   */\n      calldataload\n        /* \"#utility.yul\":758:787   */\n      swap1\n      pop\n        /* \"#utility.yul\":796:829   */\n      tag_217\n        /* \"#utility.yul\":823:828   */\n      dup2\n        /* \"#utility.yul\":796:829   */\n      tag_167\n      jump\t// in\n    tag_217:\n        /* \"#utility.yul\":696:835   */\n      swap3\n      swap2\n      pop\n      pop\n      jump\t// out\n        /* \"#utility.yul\":841:1170   */\n    tag_20:\n        /* \"#utility.yul\":900:906   */\n      0x00\n        /* \"#utility.yul\":949:951   */\n      0x20\n        /* \"#utility.yul\":937:946   */\n      dup3\n        /* \"#utility.yul\":928:935   */\n      dup5\n        /* \"#utility.yul\":924:947   */\n      sub\n        /* \"#utility.yul\":920:952   */\n      slt\n        /* \"#utility.yul\":917:1036   */\n      iszero\n      tag_219\n      jumpi\n        /* \"#utility.yul\":955:1034   */\n      tag_220\n      tag_163\n      jump\t// in\n    tag_220:\n        /* \"#utility.yul\":917:1036   */\n    tag_219:\n        /* \"#utility.yul\":1075:1076   */\n      0x00\n        /* \"#utility.yul\":1100:1153   */\n      tag_221\n        /* \"#utility.yul\":1145:1152   */\n      dup5\n        /* \"#utility.yul\":1136:1142   */\n      dup3\n        /* \"#utility.yul\":1125:1134   */\n      dup6\n        /* \"#utility.yul\":1121:1143   */\n      add\n        /* \"#utility.yul\":1100:1153   */\n      tag_168\n      jump\t// in\n    tag_221:\n        /* \"#utility.yul\":1090:1153   */\n      swap2\n      pop\n        /* \"#utility.yul\":1046:1163   */\n      pop\n        /* \"#utility.yul\":841:1170   */\n      swap3\n      swap2\n      pop\n      pop\n      jump\t// out\n        /* \"#utility.yul\":1176:1253   */\n    tag_169:\n        /* \"#utility.yul\":1213:1220   */\n      0x00\n        /* \"#utility.yul\":1242:1247   */\n      dup2\n        /* \"#utility.yul\":1231:1247   */\n      swap1\n      pop\n        /* \"#utility.yul\":1176:1253   */\n      swap2\n      swap1\n      pop\n      jump\t// out\n        /* \"#utility.yul\":1259:1377   */\n    tag_170:\n        /* \"#utility.yul\":1346:1370   */\n      tag_224\n        /* \"#utility.yul\":1364:1369   */\n      dup2\n        /* \"#utility.yul\":1346:1370   */\n      tag_169\n      jump\t// in\n    tag_224:\n        /* \"#utility.yul\":1341:1344   */\n      dup3\n        /* \"#utility.yul\":1334:1371   */\n      mstore\n        /* \"#utility.yul\":1259:1377   */\n      pop\n      pop\n      jump\t// out\n        /* \"#utility.yul\":1383:1605   */\n    tag_23:\n        /* \"#utility.yul\":1476:1480   */\n      0x00\n        /* \"#utility.yul\":1514:1516   */\n      0x20\n        /* \"#utility.yul\":1503:1512   */\n      dup3\n        /* \"#utility.yul\":1499:1517   */\n      add\n        /* \"#utility.yul\":1491:1517   */\n      swap1\n      pop\n        /* \"#utility.yul\":1527:1598   */\n      tag_226\n        /* \"#utility.yul\":1595:1596   */\n      0x00\n        /* \"#utility.yul\":1584:1593   */\n      dup4\n        /* \"#utility.yul\":1580:1597   */\n      add\n        /* \"#utility.yul\":1571:1577   */\n      dup5\n        /* \"#utility.yul\":1527:1598   */\n      tag_170\n      jump\t// in\n    tag_226:\n        /* \"#utility.yul\":1383:1605   */\n      swap3\n      swap2\n      pop\n      pop\n      jump\t// out\n        /* \"#utility.yul\":1611:1733   */\n    tag_171:\n        /* \"#utility.yul\":1684:1708   */\n      tag_228\n        /* \"#utility.yul\":1702:1707   */\n      dup2\n        /* \"#utility.yul\":1684:1708   */\n      tag_169\n      jump\t// in\n    tag_228:\n        /* \"#utility.yul\":1677:1682   */\n      dup2\n        /* \"#utility.yul\":1674:1709   */\n      eq\n        /* \"#utility.yul\":1664:1727   */\n      tag_229\n      jumpi\n        /* \"#utility.yul\":1723:1724   */\n      0x00\n        /* \"#utility.yul\":1720:1721   */\n      dup1\n        /* \"#utility.yul\":1713:1725   */\n      revert\n        /* \"#utility.yul\":1664:1727   */\n    tag_229:\n        /* \"#utility.yul\":1611:1733   */\n      pop\n      jump\t// out\n        /* \"#utility.yul\":1739:1878   */\n    tag_172:\n        /* \"#utility.yul\":1785:1790   */\n      0x00\n        /* \"#utility.yul\":1823:1829   */\n      dup2\n        /* \"#utility.yul\":1810:1830   */\n      calldataload\n        /* \"#utility.yul\":1801:1830   */\n      swap1\n      pop\n        /* \"#utility.yul\":1839:1872   */\n      tag_231\n        /* \"#utility.yul\":1866:1871   */\n      dup2\n        /* \"#utility.yul\":1839:1872   */\n      tag_171\n      jump\t// in\n    tag_231:\n        /* \"#utility.yul\":1739:1878   */\n      swap3\n      swap2\n      pop\n      pop\n      jump\t// out\n        /* \"#utility.yul\":1884:2213   */\n    tag_31:\n        /* \"#utility.yul\":1943:1949   */\n      0x00\n        /* \"#utility.yul\":1992:1994   */\n      0x20\n        /* \"#utility.yul\":1980:1989   */\n      dup3\n        /* \"#utility.yul\":1971:1978   */\n      dup5\n        /* \"#utility.yul\":1967:1990   */\n      sub\n        /* \"#utility.yul\":1963:1995   */\n      slt\n        /* \"#utility.yul\":1960:2079   */\n      iszero\n      tag_233\n      jumpi\n        /* \"#utility.yul\":1998:2077   */\n      tag_234\n      tag_163\n      jump\t// in\n    tag_234:\n        /* \"#utility.yul\":1960:2079   */\n    tag_233:\n        /* \"#utility.yul\":2118:2119   */\n      0x00\n        /* \"#utility.yul\":2143:2196   */\n      tag_235\n        /* \"#utility.yul\":2188:2195   */\n      dup5\n        /* \"#utility.yul\":2179:2185   */\n      dup3\n        /* \"#utility.yul\":2168:2177   */\n      dup6\n        /* \"#utility.yul\":2164:2186   */\n      add\n        /* \"#utility.yul\":2143:2196   */\n      tag_172\n      jump\t// in\n    tag_235:\n        /* \"#utility.yul\":2133:2196   */\n      swap2\n      pop\n        /* \"#utility.yul\":2089:2206   */\n      pop\n        /* \"#utility.yul\":1884:2213   */\n      swap3\n      swap2\n      pop\n      pop\n      jump\t// out\n        /* \"#utility.yul\":2219:2693   */\n    tag_41:\n        /* \"#utility.yul\":2287:2293   */\n      0x00\n        /* \"#utility.yul\":2295:2301   */\n      dup1\n        /* \"#utility.yul\":2344:2346   */\n      0x40\n        /* \"#utility.yul\":2332:2341   */\n      dup4\n        /* \"#utility.yul\":2323:2330   */\n      dup6\n        /* \"#utility.yul\":2319:2342   */\n      sub\n        /* \"#utility.yul\":2315:2347   */\n      slt\n        /* \"#utility.yul\":2312:2431   */\n      iszero\n      tag_237\n      jumpi\n        /* \"#utility.yul\":2350:2429   */\n      tag_238\n      tag_163\n      jump\t// in\n    tag_238:\n        /* \"#utility.yul\":2312:2431   */\n    tag_237:\n        /* \"#utility.yul\":2470:2471   */\n      0x00\n        /* \"#utility.yul\":2495:2548   */\n      tag_239\n        /* \"#utility.yul\":2540:2547   */\n      dup6\n        /* \"#utility.yul\":2531:2537   */\n      dup3\n        /* \"#utility.yul\":2520:2529   */\n      dup7\n        /* \"#utility.yul\":2516:2538   */\n      add\n        /* \"#utility.yul\":2495:2548   */\n      tag_168\n      jump\t// in\n    tag_239:\n        /* \"#utility.yul\":2485:2548   */\n      swap3\n      pop\n        /* \"#utility.yul\":2441:2558   */\n      pop\n        /* \"#utility.yul\":2597:2599   */\n      0x20\n        /* \"#utility.yul\":2623:2676   */\n      tag_240\n        /* \"#utility.yul\":2668:2675   */\n      dup6\n        /* \"#utility.yul\":2659:2665   */\n      dup3\n        /* \"#utility.yul\":2648:2657   */\n      dup7\n        /* \"#utility.yul\":2644:2666   */\n      add\n        /* \"#utility.yul\":2623:2676   */\n      tag_168\n      jump\t// in\n    tag_240:\n        /* \"#utility.yul\":2613:2676   */\n      swap2\n      pop\n        /* \"#utility.yul\":2568:2686   */\n      pop\n        /* \"#utility.yul\":2219:2693   */\n      swap3\n      pop\n      swap3\n      swap1\n      pop\n      jump\t// out\n        /* \"#utility.yul\":2699:2817   */\n    tag_173:\n        /* \"#utility.yul\":2786:2810   */\n      tag_242\n        /* \"#utility.yul\":2804:2809   */\n      dup2\n        /* \"#utility.yul\":2786:2810   */\n      tag_166\n      jump\t// in\n    tag_242:\n        /* \"#utility.yul\":2781:2784   */\n      dup3\n        /* \"#utility.yul\":2774:2811   */\n      mstore\n        /* \"#utility.yul\":2699:2817   */\n      pop\n      pop\n      jump\t// out\n        /* \"#utility.yul\":2823:3045   */\n    tag_52:\n        /* \"#utility.yul\":2916:2920   */\n      0x00\n        /* \"#utility.yul\":2954:2956   */\n      0x20\n        /* \"#utility.yul\":2943:2952   */\n      dup3\n        /* \"#utility.yul\":2939:2957   */\n      add\n        /* \"#utility.yul\":2931:2957   */\n      swap1\n      pop\n        /* \"#utility.yul\":2967:3038   */\n      tag_244\n        /* \"#utility.yul\":3035:3036   */\n      0x00\n        /* \"#utility.yul\":3024:3033   */\n      dup4\n        /* \"#utility.yul\":3020:3037   */\n      add\n        /* \"#utility.yul\":3011:3017   */\n      dup5\n        /* \"#utility.yul\":2967:3038   */\n      tag_173\n      jump\t// in\n    tag_244:\n        /* \"#utility.yul\":2823:3045   */\n      swap3\n      swap2\n      pop\n      pop\n      jump\t// out\n        /* \"#utility.yul\":3051:3141   */\n    tag_174:\n        /* \"#utility.yul\":3085:3092   */\n      0x00\n        /* \"#utility.yul\":3128:3133   */\n      dup2\n        /* \"#utility.yul\":3121:3134   */\n      iszero\n        /* \"#utility.yul\":3114:3135   */\n      iszero\n        /* \"#utility.yul\":3103:3135   */\n      swap1\n      pop\n        /* \"#utility.yul\":3051:3141   */\n      swap2\n      swap1\n      pop\n      jump\t// out\n        /* \"#utility.yul\":3147:3256   */\n    tag_175:\n        /* \"#utility.yul\":3228:3249   */\n      tag_247\n        /* \"#utility.yul\":3243:3248   */\n      dup2\n        /* \"#utility.yul\":3228:3249   */\n      tag_174\n      jump\t// in\n    tag_247:\n        /* \"#utility.yul\":3223:3226   */\n      dup3\n        /* \"#utility.yul\":3216:3250   */\n      mstore\n        /* \"#utility.yul\":3147:3256   */\n      pop\n      pop\n      jump\t// out\n        /* \"#utility.yul\":3262:3692   */\n    tag_58:\n        /* \"#utility.yul\":3405:3409   */\n      0x00\n        /* \"#utility.yul\":3443:3445   */\n      0x60\n        /* \"#utility.yul\":3432:3441   */\n      dup3\n        /* \"#utility.yul\":3428:3446   */\n      add\n        /* \"#utility.yul\":3420:3446   */\n      swap1\n      pop\n        /* \"#utility.yul\":3456:3527   */\n      tag_249\n        /* \"#utility.yul\":3524:3525   */\n      0x00\n        /* \"#utility.yul\":3513:3522   */\n      dup4\n        /* \"#utility.yul\":3509:3526   */\n      add\n        /* \"#utility.yul\":3500:3506   */\n      dup7\n        /* \"#utility.yul\":3456:3527   */\n      tag_173\n      jump\t// in\n    tag_249:\n        /* \"#utility.yul\":3537:3609   */\n      tag_250\n        /* \"#utility.yul\":3605:3607   */\n      0x20\n        /* \"#utility.yul\":3594:3603   */\n      dup4\n        /* \"#utility.yul\":3590:3608   */\n      add\n        /* \"#utility.yul\":3581:3587   */\n      dup6\n        /* \"#utility.yul\":3537:3609   */\n      tag_170\n      jump\t// in\n    tag_250:\n        /* \"#utility.yul\":3619:3685   */\n      tag_251\n        /* \"#utility.yul\":3681:3683   */\n      0x40\n        /* \"#utility.yul\":3670:3679   */\n      dup4\n        /* \"#utility.yul\":3666:3684   */\n      add\n        /* \"#utility.yul\":3657:3663   */\n      dup5\n        /* \"#utility.yul\":3619:3685   */\n      tag_175\n      jump\t// in\n    tag_251:\n        /* \"#utility.yul\":3262:3692   */\n      swap5\n      swap4\n      pop\n      pop\n      pop\n      pop\n      jump\t// out\n        /* \"#utility.yul\":3698:3812   */\n    tag_176:\n        /* \"#utility.yul\":3765:3771   */\n      0x00\n        /* \"#utility.yul\":3799:3804   */\n      dup2\n        /* \"#utility.yul\":3793:3805   */\n      mload\n        /* \"#utility.yul\":3783:3805   */\n      swap1\n      pop\n        /* \"#utility.yul\":3698:3812   */\n      swap2\n      swap1\n      pop\n      jump\t// out\n        /* \"#utility.yul\":3818:4002   */\n    tag_177:\n        /* \"#utility.yul\":3917:3928   */\n      0x00\n        /* \"#utility.yul\":3951:3957   */\n      dup3\n        /* \"#utility.yul\":3946:3949   */\n      dup3\n        /* \"#utility.yul\":3939:3958   */\n      mstore\n        /* \"#utility.yul\":3991:3995   */\n      0x20\n        /* \"#utility.yul\":3986:3989   */\n      dup3\n        /* \"#utility.yul\":3982:3996   */\n      add\n        /* \"#utility.yul\":3967:3996   */\n      swap1\n      pop\n        /* \"#utility.yul\":3818:4002   */\n      swap3\n      swap2\n      pop\n      pop\n      jump\t// out\n        /* \"#utility.yul\":4008:4140   */\n    tag_178:\n        /* \"#utility.yul\":4075:4079   */\n      0x00\n        /* \"#utility.yul\":4098:4101   */\n      dup2\n        /* \"#utility.yul\":4090:4101   */\n      swap1\n      pop\n        /* \"#utility.yul\":4128:4132   */\n      0x20\n        /* \"#utility.yul\":4123:4126   */\n      dup3\n        /* \"#utility.yul\":4119:4133   */\n      add\n        /* \"#utility.yul\":4111:4133   */\n      swap1\n      pop\n        /* \"#utility.yul\":4008:4140   */\n      swap2\n      swap1\n      pop\n      jump\t// out\n        /* \"#utility.yul\":4146:4254   */\n    tag_179:\n        /* \"#utility.yul\":4223:4247   */\n      tag_256\n        /* \"#utility.yul\":4241:4246   */\n      dup2\n        /* \"#utility.yul\":4223:4247   */\n      tag_169\n      jump\t// in\n    tag_256:\n        /* \"#utility.yul\":4218:4221   */\n      dup3\n        /* \"#utility.yul\":4211:4248   */\n      mstore\n        /* \"#utility.yul\":4146:4254   */\n      pop\n      pop\n      jump\t// out\n        /* \"#utility.yul\":4260:4439   */\n    tag_180:\n        /* \"#utility.yul\":4329:4339   */\n      0x00\n        /* \"#utility.yul\":4350:4396   */\n      tag_258\n        /* \"#utility.yul\":4392:4395   */\n      dup4\n        /* \"#utility.yul\":4384:4390   */\n      dup4\n        /* \"#utility.yul\":4350:4396   */\n      tag_179\n      jump\t// in\n    tag_258:\n        /* \"#utility.yul\":4428:4432   */\n      0x20\n        /* \"#utility.yul\":4423:4426   */\n      dup4\n        /* \"#utility.yul\":4419:4433   */\n      add\n        /* \"#utility.yul\":4405:4433   */\n      swap1\n      pop\n        /* \"#utility.yul\":4260:4439   */\n      swap3\n      swap2\n      pop\n      pop\n      jump\t// out\n        /* \"#utility.yul\":4445:4558   */\n    tag_181:\n        /* \"#utility.yul\":4515:4519   */\n      0x00\n        /* \"#utility.yul\":4547:4551   */\n      0x20\n        /* \"#utility.yul\":4542:4545   */\n      dup3\n        /* \"#utility.yul\":4538:4552   */\n      add\n        /* \"#utility.yul\":4530:4552   */\n      swap1\n      pop\n        /* \"#utility.yul\":4445:4558   */\n      swap2\n      swap1\n      pop\n      jump\t// out\n        /* \"#utility.yul\":4594:5326   */\n    tag_182:\n        /* \"#utility.yul\":4713:4716   */\n      0x00\n        /* \"#utility.yul\":4742:4796   */\n      tag_261\n        /* \"#utility.yul\":4790:4795   */\n      dup3\n        /* \"#utility.yul\":4742:4796   */\n      tag_176\n      jump\t// in\n    tag_261:\n        /* \"#utility.yul\":4812:4898   */\n      tag_262\n        /* \"#utility.yul\":4891:4897   */\n      dup2\n        /* \"#utility.yul\":4886:4889   */\n      dup6\n        /* \"#utility.yul\":4812:4898   */\n      tag_177\n      jump\t// in\n    tag_262:\n        /* \"#utility.yul\":4805:4898   */\n      swap4\n      pop\n        /* \"#utility.yul\":4922:4978   */\n      tag_263\n        /* \"#utility.yul\":4972:4977   */\n      dup4\n        /* \"#utility.yul\":4922:4978   */\n      tag_178\n      jump\t// in\n    tag_263:\n        /* \"#utility.yul\":5001:5008   */\n      dup1\n        /* \"#utility.yul\":5032:5033   */\n      0x00\n        /* \"#utility.yul\":5017:5301   */\n    tag_264:\n        /* \"#utility.yul\":5042:5048   */\n      dup4\n        /* \"#utility.yul\":5039:5040   */\n      dup2\n        /* \"#utility.yul\":5036:5049   */\n      lt\n        /* \"#utility.yul\":5017:5301   */\n      iszero\n      tag_266\n      jumpi\n        /* \"#utility.yul\":5118:5124   */\n      dup2\n        /* \"#utility.yul\":5112:5125   */\n      mload\n        /* \"#utility.yul\":5145:5208   */\n      tag_267\n        /* \"#utility.yul\":5204:5207   */\n      dup9\n        /* \"#utility.yul\":5189:5202   */\n      dup3\n        /* \"#utility.yul\":5145:5208   */\n      tag_180\n      jump\t// in\n    tag_267:\n        /* \"#utility.yul\":5138:5208   */\n      swap8\n      pop\n        /* \"#utility.yul\":5231:5291   */\n      tag_268\n        /* \"#utility.yul\":5284:5290   */\n      dup4\n        /* \"#utility.yul\":5231:5291   */\n      tag_181\n      jump\t// in\n    tag_268:\n        /* \"#utility.yul\":5221:5291   */\n      swap3\n      pop\n        /* \"#utility.yul\":5077:5301   */\n      pop\n        /* \"#utility.yul\":5064:5065   */\n      0x01\n        /* \"#utility.yul\":5061:5062   */\n      dup2\n        /* \"#utility.yul\":5057:5066   */\n      add\n        /* \"#utility.yul\":5052:5066   */\n      swap1\n      pop\n        /* \"#utility.yul\":5017:5301   */\n      jump(tag_264)\n    tag_266:\n        /* \"#utility.yul\":5021:5035   */\n      pop\n        /* \"#utility.yul\":5317:5320   */\n      dup6\n        /* \"#utility.yul\":5310:5320   */\n      swap4\n      pop\n        /* \"#utility.yul\":4718:5326   */\n      pop\n      pop\n      pop\n        /* \"#utility.yul\":4594:5326   */\n      swap3\n      swap2\n      pop\n      pop\n      jump\t// out\n        /* \"#utility.yul\":5332:5705   */\n    tag_73:\n        /* \"#utility.yul\":5475:5479   */\n      0x00\n        /* \"#utility.yul\":5513:5515   */\n      0x20\n        /* \"#utility.yul\":5502:5511   */\n      dup3\n        /* \"#utility.yul\":5498:5516   */\n      add\n        /* \"#utility.yul\":5490:5516   */\n      swap1\n      pop\n        /* \"#utility.yul\":5562:5571   */\n      dup2\n        /* \"#utility.yul\":5556:5560   */\n      dup2\n        /* \"#utility.yul\":5552:5572   */\n      sub\n        /* \"#utility.yul\":5548:5549   */\n      0x00\n        /* \"#utility.yul\":5537:5546   */\n      dup4\n        /* \"#utility.yul\":5533:5550   */\n      add\n        /* \"#utility.yul\":5526:5573   */\n      mstore\n        /* \"#utility.yul\":5590:5698   */\n      tag_270\n        /* \"#utility.yul\":5693:5697   */\n      dup2\n        /* \"#utility.yul\":5684:5690   */\n      dup5\n        /* \"#utility.yul\":5590:5698   */\n      tag_182\n      jump\t// in\n    tag_270:\n        /* \"#utility.yul\":5582:5698   */\n      swap1\n      pop\n        /* \"#utility.yul\":5332:5705   */\n      swap3\n      swap2\n      pop\n      pop\n      jump\t// out\n        /* \"#utility.yul\":5711:5880   */\n    tag_183:\n        /* \"#utility.yul\":5795:5806   */\n      0x00\n        /* \"#utility.yul\":5829:5835   */\n      dup3\n        /* \"#utility.yul\":5824:5827   */\n      dup3\n        /* \"#utility.yul\":5817:5836   */\n      mstore\n        /* \"#utility.yul\":5869:5873   */\n      0x20\n        /* \"#utility.yul\":5864:5867   */\n      dup3\n        /* \"#utility.yul\":5860:5874   */\n      add\n        /* \"#utility.yul\":5845:5874   */\n      swap1\n      pop\n        /* \"#utility.yul\":5711:5880   */\n      swap3\n      swap2\n      pop\n      pop\n      jump\t// out\n        /* \"#utility.yul\":5886:6061   */\n    tag_184:\n        /* \"#utility.yul\":6026:6053   */\n      0x596f7520646f6e2774206f776e2074686973207469636b657400000000000000\n        /* \"#utility.yul\":6022:6023   */\n      0x00\n        /* \"#utility.yul\":6014:6020   */\n      dup3\n        /* \"#utility.yul\":6010:6024   */\n      add\n        /* \"#utility.yul\":6003:6054   */\n      mstore\n        /* \"#utility.yul\":5886:6061   */\n      pop\n      jump\t// out\n        /* \"#utility.yul\":6067:6433   */\n    tag_185:\n        /* \"#utility.yul\":6209:6212   */\n      0x00\n        /* \"#utility.yul\":6230:6297   */\n      tag_274\n        /* \"#utility.yul\":6294:6296   */\n      0x19\n        /* \"#utility.yul\":6289:6292   */\n      dup4\n        /* \"#utility.yul\":6230:6297   */\n      tag_183\n      jump\t// in\n    tag_274:\n        /* \"#utility.yul\":6223:6297   */\n      swap2\n      pop\n        /* \"#utility.yul\":6306:6399   */\n      tag_275\n        /* \"#utility.yul\":6395:6398   */\n      dup3\n        /* \"#utility.yul\":6306:6399   */\n      tag_184\n      jump\t// in\n    tag_275:\n        /* \"#utility.yul\":6424:6426   */\n      0x20\n        /* \"#utility.yul\":6419:6422   */\n      dup3\n        /* \"#utility.yul\":6415:6427   */\n      add\n        /* \"#utility.yul\":6408:6427   */\n      swap1\n      pop\n        /* \"#utility.yul\":6067:6433   */\n      swap2\n      swap1\n      pop\n      jump\t// out\n        /* \"#utility.yul\":6439:6858   */\n    tag_82:\n        /* \"#utility.yul\":6605:6609   */\n      0x00\n        /* \"#utility.yul\":6643:6645   */\n      0x20\n        /* \"#utility.yul\":6632:6641   */\n      dup3\n        /* \"#utility.yul\":6628:6646   */\n      add\n        /* \"#utility.yul\":6620:6646   */\n      swap1\n      pop\n        /* \"#utility.yul\":6692:6701   */\n      dup2\n        /* \"#utility.yul\":6686:6690   */\n      dup2\n        /* \"#utility.yul\":6682:6702   */\n      sub\n        /* \"#utility.yul\":6678:6679   */\n      0x00\n        /* \"#utility.yul\":6667:6676   */\n      dup4\n        /* \"#utility.yul\":6663:6680   */\n      add\n        /* \"#utility.yul\":6656:6703   */\n      mstore\n        /* \"#utility.yul\":6720:6851   */\n      tag_277\n        /* \"#utility.yul\":6846:6850   */\n      dup2\n        /* \"#utility.yul\":6720:6851   */\n      tag_185\n      jump\t// in\n    tag_277:\n        /* \"#utility.yul\":6712:6851   */\n      swap1\n      pop\n        /* \"#utility.yul\":6439:6858   */\n      swap2\n      swap1\n      pop\n      jump\t// out\n        /* \"#utility.yul\":6864:7044   */\n    tag_186:\n        /* \"#utility.yul\":6912:6989   */\n      0x4e487b7100000000000000000000000000000000000000000000000000000000\n        /* \"#utility.yul\":6909:6910   */\n      0x00\n        /* \"#utility.yul\":6902:6990   */\n      mstore\n        /* \"#utility.yul\":7009:7013   */\n      0x11\n        /* \"#utility.yul\":7006:7007   */\n      0x04\n        /* \"#utility.yul\":6999:7014   */\n      mstore\n        /* \"#utility.yul\":7033:7037   */\n      0x24\n        /* \"#utility.yul\":7030:7031   */\n      0x00\n        /* \"#utility.yul\":7023:7038   */\n      revert\n        /* \"#utility.yul\":7050:7283   */\n    tag_88:\n        /* \"#utility.yul\":7089:7092   */\n      0x00\n        /* \"#utility.yul\":7112:7136   */\n      tag_280\n        /* \"#utility.yul\":7130:7135   */\n      dup3\n        /* \"#utility.yul\":7112:7136   */\n      tag_169\n      jump\t// in\n    tag_280:\n        /* \"#utility.yul\":7103:7136   */\n      swap2\n      pop\n        /* \"#utility.yul\":7158:7224   */\n      0xffffffffffffffffffffffffffffffffffffffffffffffffffffffffffffffff\n        /* \"#utility.yul\":7151:7156   */\n      dup3\n        /* \"#utility.yul\":7148:7225   */\n      sub\n        /* \"#utility.yul\":7145:7248   */\n      tag_281\n      jumpi\n        /* \"#utility.yul\":7228:7246   */\n      tag_282\n      tag_186\n      jump\t// in\n    tag_282:\n        /* \"#utility.yul\":7145:7248   */\n    tag_281:\n        /* \"#utility.yul\":7275:7276   */\n      0x01\n        /* \"#utility.yul\":7268:7273   */\n      dup3\n        /* \"#utility.yul\":7264:7277   */\n      add\n        /* \"#utility.yul\":7257:7277   */\n      swap1\n      pop\n        /* \"#utility.yul\":7050:7283   */\n      swap2\n      swap1\n      pop\n      jump\t// out\n        /* \"#utility.yul\":7289:7460   */\n    tag_187:\n        /* \"#utility.yul\":7429:7452   */\n      0x4e6f2073776170206f6666657220666f7220796f750000000000000000000000\n        /* \"#utility.yul\":7425:7426   */\n      0x00\n        /* \"#utility.yul\":7417:7423   */\n      dup3\n        /* \"#utility.yul\":7413:7427   */\n      add\n        /* \"#utility.yul\":7406:7453   */\n      mstore\n        /* \"#utility.yul\":7289:7460   */\n      pop\n      jump\t// out\n        /* \"#utility.yul\":7466:7832   */\n    tag_188:\n        /* \"#utility.yul\":7608:7611   */\n      0x00\n        /* \"#utility.yul\":7629:7696   */\n      tag_285\n        /* \"#utility.yul\":7693:7695   */\n      0x15\n        /* \"#utility.yul\":7688:7691   */\n      dup4\n        /* \"#utility.yul\":7629:7696   */\n      tag_183\n      jump\t// in\n    tag_285:\n        /* \"#utility.yul\":7622:7696   */\n      swap2\n      pop\n        /* \"#utility.yul\":7705:7798   */\n      tag_286\n        /* \"#utility.yul\":7794:7797   */\n      dup3\n        /* \"#utility.yul\":7705:7798   */\n      tag_187\n      jump\t// in\n    tag_286:\n        /* \"#utility.yul\":7823:7825   */\n      0x20\n        /* \"#utility.yul\":7818:7821   */\n      dup3\n        /* \"#utility.yul\":7814:7826   */\n      add\n        /* \"#utility.yul\":7807:7826   */\n      swap1\n      pop\n        /* \"#utility.yul\":7466:7832   */\n      swap2\n      swap1\n      pop\n      jump\t// out\n        /* \"#utility.yul\":7838:8257   */\n    tag_91:\n        /* \"#utility.yul\":8004:8008   */\n      0x00\n        /* \"#utility.yul\":8042:8044   */\n      0x20\n        /* \"#utility.yul\":8031:8040   */\n      dup3\n        /* \"#utility.yul\":8027:8045   */\n      add\n        /* \"#utility.yul\":8019:8045   */\n      swap1\n      pop\n        /* \"#utility.yul\":8091:8100   */\n      dup2\n        /* \"#utility.yul\":8085:8089   */\n      dup2\n        /* \"#utility.yul\":8081:8101   */\n      sub\n        /* \"#utility.yul\":8077:8078   */\n      0x00\n        /* \"#utility.yul\":8066:8075   */\n      dup4\n        /* \"#utility.yul\":8062:8079   */\n      add\n        /* \"#utility.yul\":8055:8102   */\n      mstore\n        /* \"#utility.yul\":8119:8250   */\n      tag_288\n        /* \"#utility.yul\":8245:8249   */\n      dup2\n        /* \"#utility.yul\":8119:8250   */\n      tag_188\n      jump\t// in\n    tag_288:\n        /* \"#utility.yul\":8111:8250   */\n      swap1\n      pop\n        /* \"#utility.yul\":7838:8257   */\n      swap2\n      swap1\n      pop\n      jump\t// out\n        /* \"#utility.yul\":8263:8435   */\n    tag_189:\n        /* \"#utility.yul\":8403:8427   */\n      0x596f7520646f6e2774206f776e2061207469636b657400000000000000000000\n        /* \"#utility.yul\":8399:8400   */\n      0x00\n        /* \"#utility.yul\":8391:8397   */\n      dup3\n        /* \"#utility.yul\":8387:8401   */\n      add\n        /* \"#utility.yul\":8380:8428   */\n      mstore\n        /* \"#utility.yul\":8263:8435   */\n      pop\n      jump\t// out\n        /* \"#utility.yul\":8441:8807   */\n    tag_190:\n        /* \"#utility.yul\":8583:8586   */\n      0x00\n        /* \"#utility.yul\":8604:8671   */\n      tag_291\n        /* \"#utility.yul\":8668:8670   */\n      0x16\n        /* \"#utility.yul\":8663:8666   */\n      dup4\n        /* \"#utility.yul\":8604:8671   */\n      tag_183\n      jump\t// in\n    tag_291:\n        /* \"#utility.yul\":8597:8671   */\n      swap2\n      pop\n        /* \"#utility.yul\":8680:8773   */\n      tag_292\n        /* \"#utility.yul\":8769:8772   */\n      dup3\n        /* \"#utility.yul\":8680:8773   */\n      tag_189\n      jump\t// in\n    tag_292:\n        /* \"#utility.yul\":8798:8800   */\n      0x20\n        /* \"#utility.yul\":8793:8796   */\n      dup3\n        /* \"#utility.yul\":8789:8801   */\n      add\n        /* \"#utility.yul\":8782:8801   */\n      swap1\n      pop\n        /* \"#utility.yul\":8441:8807   */\n      swap2\n      swap1\n      pop\n      jump\t// out\n        /* \"#utility.yul\":8813:9232   */\n    tag_95:\n        /* \"#utility.yul\":8979:8983   */\n      0x00\n        /* \"#utility.yul\":9017:9019   */\n      0x20\n        /* \"#utility.yul\":9006:9015   */\n      dup3\n        /* \"#utility.yul\":9002:9020   */\n      add\n        /* \"#utility.yul\":8994:9020   */\n      swap1\n      pop\n        /* \"#utility.yul\":9066:9075   */\n      dup2\n        /* \"#utility.yul\":9060:9064   */\n      dup2\n        /* \"#utility.yul\":9056:9076   */\n      sub\n        /* \"#utility.yul\":9052:9053   */\n      0x00\n        /* \"#utility.yul\":9041:9050   */\n      dup4\n        /* \"#utility.yul\":9037:9054   */\n      add\n        /* \"#utility.yul\":9030:9077   */\n      mstore\n        /* \"#utility.yul\":9094:9225   */\n      tag_294\n        /* \"#utility.yul\":9220:9224   */\n      dup2\n        /* \"#utility.yul\":9094:9225   */\n      tag_190\n      jump\t// in\n    tag_294:\n        /* \"#utility.yul\":9086:9225   */\n      swap1\n      pop\n        /* \"#utility.yul\":8813:9232   */\n      swap2\n      swap1\n      pop\n      jump\t// out\n        /* \"#utility.yul\":9238:9410   */\n    tag_191:\n        /* \"#utility.yul\":9378:9402   */\n      0x546172676574207469636b6574206e6f7420736f6c6400000000000000000000\n        /* \"#utility.yul\":9374:9375   */\n      0x00\n        /* \"#utility.yul\":9366:9372   */\n      dup3\n        /* \"#utility.yul\":9362:9376   */\n      add\n        /* \"#utility.yul\":9355:9403   */\n      mstore\n        /* \"#utility.yul\":9238:9410   */\n      pop\n      jump\t// out\n        /* \"#utility.yul\":9416:9782   */\n    tag_192:\n        /* \"#utility.yul\":9558:9561   */\n      0x00\n        /* \"#utility.yul\":9579:9646   */\n      tag_297\n        /* \"#utility.yul\":9643:9645   */\n      0x16\n        /* \"#utility.yul\":9638:9641   */\n      dup4\n        /* \"#utility.yul\":9579:9646   */\n      tag_183\n      jump\t// in\n    tag_297:\n        /* \"#utility.yul\":9572:9646   */\n      swap2\n      pop\n        /* \"#utility.yul\":9655:9748   */\n      tag_298\n        /* \"#utility.yul\":9744:9747   */\n      dup3\n        /* \"#utility.yul\":9655:9748   */\n      tag_191\n      jump\t// in\n    tag_298:\n        /* \"#utility.yul\":9773:9775   */\n      0x20\n        /* \"#utility.yul\":9768:9771   */\n      dup3\n        /* \"#utility.yul\":9764:9776   */\n      add\n        /* \"#utility.yul\":9757:9776   */\n      swap1\n      pop\n        /* \"#utility.yul\":9416:9782   */\n      swap2\n      swap1\n      pop\n      jump\t// out\n        /* \"#utility.yul\":9788:10207   */\n    tag_98:\n        /* \"#utility.yul\":9954:9958   */\n      0x00\n        /* \"#utility.yul\":9992:9994   */\n      0x20\n        /* \"#utility.yul\":9981:9990   */\n      dup3\n        /* \"#utility.yul\":9977:9995   */\n      add\n        /* \"#utility.yul\":9969:9995   */\n      swap1\n      pop\n        /* \"#utility.yul\":10041:10050   */\n      dup2\n        /* \"#utility.yul\":10035:10039   */\n      dup2\n        /* \"#utility.yul\":10031:10051   */\n      sub\n        /* \"#utility.yul\":10027:10028   */\n      0x00\n        /* \"#utility.yul\":10016:10025   */\n      dup4\n        /* \"#utility.yul\":10012:10029   */\n      add\n        /* \"#utility.yul\":10005:10052   */\n      mstore\n        /* \"#utility.yul\":10069:10200   */\n      tag_300\n        /* \"#utility.yul\":10195:10199   */\n      dup2\n        /* \"#utility.yul\":10069:10200   */\n      tag_192\n      jump\t// in\n    tag_300:\n        /* \"#utility.yul\":10061:10200   */\n      swap1\n      pop\n        /* \"#utility.yul\":9788:10207   */\n      swap2\n      swap1\n      pop\n      jump\t// out\n        /* \"#utility.yul\":10213:10388   */\n    tag_193:\n        /* \"#utility.yul\":10353:10380   */\n      0x43616e6e6f742073776170207769746820796f757273656c6600000000000000\n        /* \"#utility.yul\":10349:10350   */\n      0x00\n        /* \"#utility.yul\":10341:10347   */\n      dup3\n        /* \"#utility.yul\":10337:10351   */\n      add\n        /* \"#utility.yul\":10330:10381   */\n      mstore\n        /* \"#utility.yul\":10213:10388   */\n      pop\n      jump\t// out\n        /* \"#utility.yul\":10394:10760   */\n    tag_194:\n        /* \"#utility.yul\":10536:10539   */\n      0x00\n        /* \"#utility.yul\":10557:10624   */\n      tag_303\n        /* \"#utility.yul\":10621:10623   */\n      0x19\n        /* \"#utility.yul\":10616:10619   */\n      dup4\n        /* \"#utility.yul\":10557:10624   */\n      tag_183\n      jump\t// in\n    tag_303:\n        /* \"#utility.yul\":10550:10624   */\n      swap2\n      pop\n        /* \"#utility.yul\":10633:10726   */\n      tag_304\n        /* \"#utility.yul\":10722:10725   */\n      dup3\n        /* \"#utility.yul\":10633:10726   */\n      tag_193\n      jump\t// in\n    tag_304:\n        /* \"#utility.yul\":10751:10753   */\n      0x20\n        /* \"#utility.yul\":10746:10749   */\n      dup3\n        /* \"#utility.yul\":10742:10754   */\n      add\n        /* \"#utility.yul\":10735:10754   */\n      swap1\n      pop\n        /* \"#utility.yul\":10394:10760   */\n      swap2\n      swap1\n      pop\n      jump\t// out\n        /* \"#utility.yul\":10766:11185   */\n    tag_101:\n        /* \"#utility.yul\":10932:10936   */\n      0x00\n        /* \"#utility.yul\":10970:10972   */\n      0x20\n        /* \"#utility.yul\":10959:10968   */\n      dup3\n        /* \"#utility.yul\":10955:10973   */\n      add\n        /* \"#utility.yul\":10947:10973   */\n      swap1\n      pop\n        /* \"#utility.yul\":11019:11028   */\n      dup2\n        /* \"#utility.yul\":11013:11017   */\n      dup2\n        /* \"#utility.yul\":11009:11029   */\n      sub\n        /* \"#utility.yul\":11005:11006   */\n      0x00\n        /* \"#utility.yul\":10994:11003   */\n      dup4\n        /* \"#utility.yul\":10990:11007   */\n      add\n        /* \"#utility.yul\":10983:11030   */\n      mstore\n        /* \"#utility.yul\":11047:11178   */\n      tag_306\n        /* \"#utility.yul\":11173:11177   */\n      dup2\n        /* \"#utility.yul\":11047:11178   */\n      tag_194\n      jump\t// in\n    tag_306:\n        /* \"#utility.yul\":11039:11178   */\n      swap1\n      pop\n        /* \"#utility.yul\":10766:11185   */\n      swap2\n      swap1\n      pop\n      jump\t// out\n        /* \"#utility.yul\":11191:11358   */\n    tag_195:\n        /* \"#utility.yul\":11331:11350   */\n      0x496e76616c6964207469636b6574204944000000000000000000000000000000\n        /* \"#utility.yul\":11327:11328   */\n      0x00\n        /* \"#utility.yul\":11319:11325   */\n      dup3\n        /* \"#utility.yul\":11315:11329   */\n      add\n        /* \"#utility.yul\":11308:11351   */\n      mstore\n        /* \"#utility.yul\":11191:11358   */\n      pop\n      jump\t// out\n        /* \"#utility.yul\":11364:11730   */\n    tag_196:\n        /* \"#utility.yul\":11506:11509   */\n      0x00\n        /* \"#utility.yul\":11527:11594   */\n      tag_309\n        /* \"#utility.yul\":11591:11593   */\n      0x11\n        /* \"#utility.yul\":11586:11589   */\n      dup4\n        /* \"#utility.yul\":11527:11594   */\n      tag_183\n      jump\t// in\n    tag_309:\n        /* \"#utility.yul\":11520:11594   */\n      swap2\n      pop\n        /* \"#utility.yul\":11603:11696   */\n      tag_310\n        /* \"#utility.yul\":11692:11695   */\n      dup3\n        /* \"#utility.yul\":11603:11696   */\n      tag_195\n      jump\t// in\n    tag_310:\n        /* \"#utility.yul\":11721:11723   */\n      0x20\n        /* \"#utility.yul\":11716:11719   */\n      dup3\n        /* \"#utility.yul\":11712:11724   */\n      add\n        /* \"#utility.yul\":11705:11724   */\n      swap1\n      pop\n        /* \"#utility.yul\":11364:11730   */\n      swap2\n      swap1\n      pop\n      jump\t// out\n        /* \"#utility.yul\":11736:12155   */\n    tag_106:\n        /* \"#utility.yul\":11902:11906   */\n      0x00\n        /* \"#utility.yul\":11940:11942   */\n      0x20\n        /* \"#utility.yul\":11929:11938   */\n      dup3\n        /* \"#utility.yul\":11925:11943   */\n      add\n        /* \"#utility.yul\":11917:11943   */\n      swap1\n      pop\n        /* \"#utility.yul\":11989:11998   */\n      dup2\n        /* \"#utility.yul\":11983:11987   */\n      dup2\n        /* \"#utility.yul\":11979:11999   */\n      sub\n        /* \"#utility.yul\":11975:11976   */\n      0x00\n        /* \"#utility.yul\":11964:11973   */\n      dup4\n        /* \"#utility.yul\":11960:11977   */\n      add\n        /* \"#utility.yul\":11953:12000   */\n      mstore\n        /* \"#utility.yul\":12017:12148   */\n      tag_312\n        /* \"#utility.yul\":12143:12147   */\n      dup2\n        /* \"#utility.yul\":12017:12148   */\n      tag_196\n      jump\t// in\n    tag_312:\n        /* \"#utility.yul\":12009:12148   */\n      swap1\n      pop\n        /* \"#utility.yul\":11736:12155   */\n      swap2\n      swap1\n      pop\n      jump\t// out\n        /* \"#utility.yul\":12161:12330   */\n    tag_197:\n        /* \"#utility.yul\":12301:12322   */\n      0x5469636b657420616c726561647920736f6c6400000000000000000000000000\n        /* \"#utility.yul\":12297:12298   */\n      0x00\n        /* \"#utility.yul\":12289:12295   */\n      dup3\n        /* \"#utility.yul\":12285:12299   */\n      add\n        /* \"#utility.yul\":12278:12323   */\n      mstore\n        /* \"#utility.yul\":12161:12330   */\n      pop\n      jump\t// out\n        /* \"#utility.yul\":12336:12702   */\n    tag_198:\n        /* \"#utility.yul\":12478:12481   */\n      0x00\n        /* \"#utility.yul\":12499:12566   */\n      tag_315\n        /* \"#utility.yul\":12563:12565   */\n      0x13\n        /* \"#utility.yul\":12558:12561   */\n      dup4\n        /* \"#utility.yul\":12499:12566   */\n      tag_183\n      jump\t// in\n    tag_315:\n        /* \"#utility.yul\":12492:12566   */\n      swap2\n      pop\n        /* \"#utility.yul\":12575:12668   */\n      tag_316\n        /* \"#utility.yul\":12664:12667   */\n      dup3\n        /* \"#utility.yul\":12575:12668   */\n      tag_197\n      jump\t// in\n    tag_316:\n        /* \"#utility.yul\":12693:12695   */\n      0x20\n        /* \"#utility.yul\":12688:12691   */\n      dup3\n        /* \"#utility.yul\":12684:12696   */\n      add\n        /* \"#utility.yul\":12677:12696   */\n      swap1\n      pop\n        /* \"#utility.yul\":12336:12702   */\n      swap2\n      swap1\n      pop\n      jump\t// out\n        /* \"#utility.yul\":12708:13127   */\n    tag_109:\n        /* \"#utility.yul\":12874:12878   */\n      0x00\n        /* \"#utility.yul\":12912:12914   */\n      0x20\n        /* \"#utility.yul\":12901:12910   */\n      dup3\n        /* \"#utility.yul\":12897:12915   */\n      add\n        /* \"#utility.yul\":12889:12915   */\n      swap1\n      pop\n        /* \"#utility.yul\":12961:12970   */\n      dup2\n        /* \"#utility.yul\":12955:12959   */\n      dup2\n        /* \"#utility.yul\":12951:12971   */\n      sub\n        /* \"#utility.yul\":12947:12948   */\n      0x00\n        /* \"#utility.yul\":12936:12945   */\n      dup4\n        /* \"#utility.yul\":12932:12949   */\n      add\n        /* \"#utility.yul\":12925:12972   */\n      mstore\n        /* \"#utility.yul\":12989:13120   */\n      tag_318\n        /* \"#utility.yul\":13115:13119   */\n      dup2\n        /* \"#utility.yul\":12989:13120   */\n      tag_198\n      jump\t// in\n    tag_318:\n        /* \"#utility.yul\":12981:13120   */\n      swap1\n      pop\n        /* \"#utility.yul\":12708:13127   */\n      swap2\n      swap1\n      pop\n      jump\t// out\n        /* \"#utility.yul\":13133:13307   */\n    tag_199:\n        /* \"#utility.yul\":13273:13299   */\n      0x596f7520616c7265616479206f776e2061207469636b65740000000000000000\n        /* \"#utility.yul\":13269:13270   */\n      0x00\n        /* \"#utility.yul\":13261:13267   */\n      dup3\n        /* \"#utility.yul\":13257:13271   */\n      add\n        /* \"#utility.yul\":13250:13300   */\n      mstore\n        /* \"#utility.yul\":13133:13307   */\n      pop\n      jump\t// out\n        /* \"#utility.yul\":13313:13679   */\n    tag_200:\n        /* \"#utility.yul\":13455:13458   */\n      0x00\n        /* \"#utility.yul\":13476:13543   */\n      tag_321\n        /* \"#utility.yul\":13540:13542   */\n      0x18\n        /* \"#utility.yul\":13535:13538   */\n      dup4\n        /* \"#utility.yul\":13476:13543   */\n      tag_183\n      jump\t// in\n    tag_321:\n        /* \"#utility.yul\":13469:13543   */\n      swap2\n      pop\n        /* \"#utility.yul\":13552:13645   */\n      tag_322\n        /* \"#utility.yul\":13641:13644   */\n      dup3\n        /* \"#utility.yul\":13552:13645   */\n      tag_199\n      jump\t// in\n    tag_322:\n        /* \"#utility.yul\":13670:13672   */\n      0x20\n        /* \"#utility.yul\":13665:13668   */\n      dup3\n        /* \"#utility.yul\":13661:13673   */\n      add\n        /* \"#utility.yul\":13654:13673   */\n      swap1\n      pop\n        /* \"#utility.yul\":13313:13679   */\n      swap2\n      swap1\n      pop\n      jump\t// out\n        /* \"#utility.yul\":13685:14104   */\n    tag_112:\n        /* \"#utility.yul\":13851:13855   */\n      0x00\n        /* \"#utility.yul\":13889:13891   */\n      0x20\n        /* \"#utility.yul\":13878:13887   */\n      dup3\n        /* \"#utility.yul\":13874:13892   */\n      add\n        /* \"#utility.yul\":13866:13892   */\n      swap1\n      pop\n        /* \"#utility.yul\":13938:13947   */\n      dup2\n        /* \"#utility.yul\":13932:13936   */\n      dup2\n        /* \"#utility.yul\":13928:13948   */\n      sub\n        /* \"#utility.yul\":13924:13925   */\n      0x00\n        /* \"#utility.yul\":13913:13922   */\n      dup4\n        /* \"#utility.yul\":13909:13926   */\n      add\n        /* \"#utility.yul\":13902:13949   */\n      mstore\n        /* \"#utility.yul\":13966:14097   */\n      tag_324\n        /* \"#utility.yul\":14092:14096   */\n      dup2\n        /* \"#utility.yul\":13966:14097   */\n      tag_200\n      jump\t// in\n    tag_324:\n        /* \"#utility.yul\":13958:14097   */\n      swap1\n      pop\n        /* \"#utility.yul\":13685:14104   */\n      swap2\n      swap1\n      pop\n      jump\t// out\n        /* \"#utility.yul\":14110:14284   */\n    tag_201:\n        /* \"#utility.yul\":14250:14276   */\n      0x496e636f7272656374207061796d656e7420616d6f756e740000000000000000\n        /* \"#utility.yul\":14246:14247   */\n      0x00\n        /* \"#utility.yul\":14238:14244   */\n      dup3\n        /* \"#utility.yul\":14234:14248   */\n      add\n        /* \"#utility.yul\":14227:14277   */\n      mstore\n        /* \"#utility.yul\":14110:14284   */\n      pop\n      jump\t// out\n        /* \"#utility.yul\":14290:14656   */\n    tag_202:\n        /* \"#utility.yul\":14432:14435   */\n      0x00\n        /* \"#utility.yul\":14453:14520   */\n      tag_327\n        /* \"#utility.yul\":14517:14519   */\n      0x18\n        /* \"#utility.yul\":14512:14515   */\n      dup4\n        /* \"#utility.yul\":14453:14520   */\n      tag_183\n      jump\t// in\n    tag_327:\n        /* \"#utility.yul\":14446:14520   */\n      swap2\n      pop\n        /* \"#utility.yul\":14529:14622   */\n      tag_328\n        /* \"#utility.yul\":14618:14621   */\n      dup3\n        /* \"#utility.yul\":14529:14622   */\n      tag_201\n      jump\t// in\n    tag_328:\n        /* \"#utility.yul\":14647:14649   */\n      0x20\n        /* \"#utility.yul\":14642:14645   */\n      dup3\n        /* \"#utility.yul\":14638:14650   */\n      add\n        /* \"#utility.yul\":14631:14650   */\n      swap1\n      pop\n        /* \"#utility.yul\":14290:14656   */\n      swap2\n      swap1\n      pop\n      jump\t// out\n        /* \"#utility.yul\":14662:15081   */\n    tag_115:\n        /* \"#utility.yul\":14828:14832   */\n      0x00\n        /* \"#utility.yul\":14866:14868   */\n      0x20\n        /* \"#utility.yul\":14855:14864   */\n      dup3\n        /* \"#utility.yul\":14851:14869   */\n      add\n        /* \"#utility.yul\":14843:14869   */\n      swap1\n      pop\n        /* \"#utility.yul\":14915:14924   */\n      dup2\n        /* \"#utility.yul\":14909:14913   */\n      dup2\n        /* \"#utility.yul\":14905:14925   */\n      sub\n        /* \"#utility.yul\":14901:14902   */\n      0x00\n        /* \"#utility.yul\":14890:14899   */\n      dup4\n        /* \"#utility.yul\":14886:14903   */\n      add\n        /* \"#utility.yul\":14879:14926   */\n      mstore\n        /* \"#utility.yul\":14943:15074   */\n      tag_330\n        /* \"#utility.yul\":15069:15073   */\n      dup2\n        /* \"#utility.yul\":14943:15074   */\n      tag_202\n      jump\t// in\n    tag_330:\n        /* \"#utility.yul\":14935:15074   */\n      swap1\n      pop\n        /* \"#utility.yul\":14662:15081   */\n      swap2\n      swap1\n      pop\n      jump\t// out\n        /* \"#utility.yul\":15087:15256   */\n    tag_203:\n        /* \"#utility.yul\":15227:15248   */\n      0x5469636b6574206e6f7420666f722073616c6500000000000000000000000000\n        /* \"#utility.yul\":15223:15224   */\n      0x00\n        /* \"#utility.yul\":15215:15221   */\n      dup3\n        /* \"#utility.yul\":15211:15225   */\n      add\n        /* \"#utility.yul\":15204:15249   */\n      mstore\n        /* \"#utility.yul\":15087:15256   */\n      pop\n      jump\t// out\n        /* \"#utility.yul\":15262:15628   */\n    tag_204:\n        /* \"#utility.yul\":15404:15407   */\n      0x00\n        /* \"#utility.yul\":15425:15492   */\n      tag_333\n        /* \"#utility.yul\":15489:15491   */\n      0x13\n        /* \"#utility.yul\":15484:15487   */\n      dup4\n        /* \"#utility.yul\":15425:15492   */\n      tag_183\n      jump\t// in\n    tag_333:\n        /* \"#utility.yul\":15418:15492   */\n      swap2\n      pop\n        /* \"#utility.yul\":15501:15594   */\n      tag_334\n        /* \"#utility.yul\":15590:15593   */\n      dup3\n        /* \"#utility.yul\":15501:15594   */\n      tag_203\n      jump\t// in\n    tag_334:\n        /* \"#utility.yul\":15619:15621   */\n      0x20\n        /* \"#utility.yul\":15614:15617   */\n      dup3\n        /* \"#utility.yul\":15610:15622   */\n      add\n        /* \"#utility.yul\":15603:15622   */\n      swap1\n      pop\n        /* \"#utility.yul\":15262:15628   */\n      swap2\n      swap1\n      pop\n      jump\t// out\n        /* \"#utility.yul\":15634:16053   */\n    tag_119:\n        /* \"#utility.yul\":15800:15804   */\n      0x00\n        /* \"#utility.yul\":15838:15840   */\n      0x20\n        /* \"#utility.yul\":15827:15836   */\n      dup3\n        /* \"#utility.yul\":15823:15841   */\n      add\n        /* \"#utility.yul\":15815:15841   */\n      swap1\n      pop\n        /* \"#utility.yul\":15887:15896   */\n      dup2\n        /* \"#utility.yul\":15881:15885   */\n      dup2\n        /* \"#utility.yul\":15877:15897   */\n      sub\n        /* \"#utility.yul\":15873:15874   */\n      0x00\n        /* \"#utility.yul\":15862:15871   */\n      dup4\n        /* \"#utility.yul\":15858:15875   */\n      add\n        /* \"#utility.yul\":15851:15898   */\n      mstore\n        /* \"#utility.yul\":15915:16046   */\n      tag_336\n        /* \"#utility.yul\":16041:16045   */\n      dup2\n        /* \"#utility.yul\":15915:16046   */\n      tag_204\n      jump\t// in\n    tag_336:\n        /* \"#utility.yul\":15907:16046   */\n      swap1\n      pop\n        /* \"#utility.yul\":15634:16053   */\n      swap2\n      swap1\n      pop\n      jump\t// out\n        /* \"#utility.yul\":16059:16469   */\n    tag_125:\n        /* \"#utility.yul\":16099:16106   */\n      0x00\n        /* \"#utility.yul\":16122:16142   */\n      tag_338\n        /* \"#utility.yul\":16140:16141   */\n      dup3\n        /* \"#utility.yul\":16122:16142   */\n      tag_169\n      jump\t// in\n    tag_338:\n        /* \"#utility.yul\":16117:16142   */\n      swap2\n      pop\n        /* \"#utility.yul\":16156:16176   */\n      tag_339\n        /* \"#utility.yul\":16174:16175   */\n      dup4\n        /* \"#utility.yul\":16156:16176   */\n      tag_169\n      jump\t// in\n    tag_339:\n        /* \"#utility.yul\":16151:16176   */\n      swap3\n      pop\n        /* \"#utility.yul\":16211:16212   */\n      dup3\n        /* \"#utility.yul\":16208:16209   */\n      dup3\n        /* \"#utility.yul\":16204:16213   */\n      mul\n        /* \"#utility.yul\":16233:16263   */\n      tag_340\n        /* \"#utility.yul\":16251:16262   */\n      dup2\n        /* \"#utility.yul\":16233:16263   */\n      tag_169\n      jump\t// in\n    tag_340:\n        /* \"#utility.yul\":16222:16263   */\n      swap2\n      pop\n        /* \"#utility.yul\":16412:16413   */\n      dup3\n        /* \"#utility.yul\":16403:16410   */\n      dup3\n        /* \"#utility.yul\":16399:16414   */\n      div\n        /* \"#utility.yul\":16396:16397   */\n      dup5\n        /* \"#utility.yul\":16393:16415   */\n      eq\n        /* \"#utility.yul\":16373:16374   */\n      dup4\n        /* \"#utility.yul\":16366:16375   */\n      iszero\n        /* \"#utility.yul\":16346:16429   */\n      or\n        /* \"#utility.yul\":16323:16462   */\n      tag_341\n      jumpi\n        /* \"#utility.yul\":16442:16460   */\n      tag_342\n      tag_186\n      jump\t// in\n    tag_342:\n        /* \"#utility.yul\":16323:16462   */\n    tag_341:\n        /* \"#utility.yul\":16107:16469   */\n      pop\n        /* \"#utility.yul\":16059:16469   */\n      swap3\n      swap2\n      pop\n      pop\n      jump\t// out\n        /* \"#utility.yul\":16475:16655   */\n    tag_205:\n        /* \"#utility.yul\":16523:16600   */\n      0x4e487b7100000000000000000000000000000000000000000000000000000000\n        /* \"#utility.yul\":16520:16521   */\n      0x00\n        /* \"#utility.yul\":16513:16601   */\n      mstore\n        /* \"#utility.yul\":16620:16624   */\n      0x12\n        /* \"#utility.yul\":16617:16618   */\n      0x04\n        /* \"#utility.yul\":16610:16625   */\n      mstore\n        /* \"#utility.yul\":16644:16648   */\n      0x24\n        /* \"#utility.yul\":16641:16642   */\n      0x00\n        /* \"#utility.yul\":16634:16649   */\n      revert\n        /* \"#utility.yul\":16661:16846   */\n    tag_127:\n        /* \"#utility.yul\":16701:16702   */\n      0x00\n        /* \"#utility.yul\":16718:16738   */\n      tag_345\n        /* \"#utility.yul\":16736:16737   */\n      dup3\n        /* \"#utility.yul\":16718:16738   */\n      tag_169\n      jump\t// in\n    tag_345:\n        /* \"#utility.yul\":16713:16738   */\n      swap2\n      pop\n        /* \"#utility.yul\":16752:16772   */\n      tag_346\n        /* \"#utility.yul\":16770:16771   */\n      dup4\n        /* \"#utility.yul\":16752:16772   */\n      tag_169\n      jump\t// in\n    tag_346:\n        /* \"#utility.yul\":16747:16772   */\n      swap3\n      pop\n        /* \"#utility.yul\":16791:16792   */\n      dup3\n        /* \"#utility.yul\":16781:16816   */\n      tag_347\n      jumpi\n        /* \"#utility.yul\":16796:16814   */\n      tag_348\n      tag_205\n      jump\t// in\n    tag_348:\n        /* \"#utility.yul\":16781:16816   */\n    tag_347:\n        /* \"#utility.yul\":16838:16839   */\n      dup3\n        /* \"#utility.yul\":16835:16836   */\n      dup3\n        /* \"#utility.yul\":16831:16840   */\n      div\n        /* \"#utility.yul\":16826:16840   */\n      swap1\n      pop\n        /* \"#utility.yul\":16661:16846   */\n      swap3\n      swap2\n      pop\n      pop\n      jump\t// out\n        /* \"#utility.yul\":16852:17046   */\n    tag_129:\n        /* \"#utility.yul\":16892:16896   */\n      0x00\n        /* \"#utility.yul\":16912:16932   */\n      tag_350\n        /* \"#utility.yul\":16930:16931   */\n      dup3\n        /* \"#utility.yul\":16912:16932   */\n      tag_169\n      jump\t// in\n    tag_350:\n        /* \"#utility.yul\":16907:16932   */\n      swap2\n      pop\n        /* \"#utility.yul\":16946:16966   */\n      tag_351\n        /* \"#utility.yul\":16964:16965   */\n      dup4\n        /* \"#utility.yul\":16946:16966   */\n      tag_169\n      jump\t// in\n    tag_351:\n        /* \"#utility.yul\":16941:16966   */\n      swap3\n      pop\n        /* \"#utility.yul\":16990:16991   */\n      dup3\n        /* \"#utility.yul\":16987:16988   */\n      dup3\n        /* \"#utility.yul\":16983:16992   */\n      sub\n        /* \"#utility.yul\":16975:16992   */\n      swap1\n      pop\n        /* \"#utility.yul\":17014:17015   */\n      dup2\n        /* \"#utility.yul\":17008:17012   */\n      dup2\n        /* \"#utility.yul\":17005:17016   */\n      gt\n        /* \"#utility.yul\":17002:17039   */\n      iszero\n      tag_352\n      jumpi\n        /* \"#utility.yul\":17019:17037   */\n      tag_353\n      tag_186\n      jump\t// in\n    tag_353:\n        /* \"#utility.yul\":17002:17039   */\n    tag_352:\n        /* \"#utility.yul\":16852:17046   */\n      swap3\n      swap2\n      pop\n      pop\n      jump\t// out\n        /* \"#utility.yul\":17052:17232   */\n    tag_147:\n        /* \"#utility.yul\":17100:17177   */\n      0x4e487b7100000000000000000000000000000000000000000000000000000000\n        /* \"#utility.yul\":17097:17098   */\n      0x00\n        /* \"#utility.yul\":17090:17178   */\n      mstore\n        /* \"#utility.yul\":17197:17201   */\n      0x41\n        /* \"#utility.yul\":17194:17195   */\n      0x04\n        /* \"#utility.yul\":17187:17202   */\n      mstore\n        /* \"#utility.yul\":17221:17225   */\n      0x24\n        /* \"#utility.yul\":17218:17219   */\n      0x00\n        /* \"#utility.yul\":17211:17226   */\n      revert\n        /* \"#utility.yul\":17238:17418   */\n    tag_155:\n        /* \"#utility.yul\":17286:17363   */\n      0x4e487b7100000000000000000000000000000000000000000000000000000000\n        /* \"#utility.yul\":17283:17284   */\n      0x00\n        /* \"#utility.yul\":17276:17364   */\n      mstore\n        /* \"#utility.yul\":17383:17387   */\n      0x32\n        /* \"#utility.yul\":17380:17381   */\n      0x04\n        /* \"#utility.yul\":17373:17388   */\n      mstore\n        /* \"#utility.yul\":17407:17411   */\n      0x24\n        /* \"#utility.yul\":17404:17405   */\n      0x00\n        /* \"#utility.yul\":17397:17412   */\n      revert\n        /* \"#utility.yul\":17424:17615   */\n    tag_157:\n        /* \"#utility.yul\":17464:17467   */\n      0x00\n        /* \"#utility.yul\":17483:17503   */\n      tag_357\n        /* \"#utility.yul\":17501:17502   */\n      dup3\n        /* \"#utility.yul\":17483:17503   */\n      tag_169\n      jump\t// in\n    tag_357:\n        /* \"#utility.yul\":17478:17503   */\n      swap2\n      pop\n        /* \"#utility.yul\":17517:17537   */\n      tag_358\n        /* \"#utility.yul\":17535:17536   */\n      dup4\n        /* \"#utility.yul\":17517:17537   */\n      tag_169\n      jump\t// in\n    tag_358:\n        /* \"#utility.yul\":17512:17537   */\n      swap3\n      pop\n        /* \"#utility.yul\":17560:17561   */\n      dup3\n        /* \"#utility.yul\":17557:17558   */\n      dup3\n        /* \"#utility.yul\":17553:17562   */\n      add\n        /* \"#utility.yul\":17546:17562   */\n      swap1\n      pop\n        /* \"#utility.yul\":17581:17584   */\n      dup1\n        /* \"#utility.yul\":17578:17579   */\n      dup3\n        /* \"#utility.yul\":17575:17585   */\n      gt\n        /* \"#utility.yul\":17572:17608   */\n      iszero\n      tag_359\n      jumpi\n        /* \"#utility.yul\":17588:17606   */\n      tag_360\n      tag_186\n      jump\t// in\n    tag_360:\n        /* \"#utility.yul\":17572:17608   */\n    tag_359:\n        /* \"#utility.yul\":17424:17615   */\n      swap3\n      swap2\n      pop\n      pop\n      jump\t// out\n\n    auxdata: 0xa264697066735822122078d8f5fc089e8c7e600cac019ae0b7c07e4bed4cf613509a2b0b0288274bfca064736f6c634300081a0033\n}\n",
				"bytecode": {
					"linkReferences": {},
					"object": "608060405234801561000f575f80fd5b50604051611bda380380611bda833981810160405281019061003191906100bc565b335f806101000a81548173ffffffffffffffffffffffffffffffffffffffff021916908373ffffffffffffffffffffffffffffffffffffffff160217905550816002819055508060018190555050506100fa565b5f80fd5b5f819050919050565b61009b81610089565b81146100a5575f80fd5b50565b5f815190506100b681610092565b92915050565b5f80604083850312156100d2576100d1610085565b5b5f6100df858286016100a8565b92505060206100f0858286016100a8565b9150509250929050565b611ad3806101075f395ff3fe6080604052600436106100c1575f3560e01c8063481c6a751161007e578063943ba21211610058578063943ba21214610277578063a3c1a1fe14610293578063c4a4be83146102bb578063dd11247e146102e5576100c1565b8063481c6a75146101f357806350b447121461021d57806367dd74ca1461025b576100c1565b80630412f4ab146100c55780631209b1f6146101015780631bf330041461012b5780631f6ea78714610153578063212d94c31461018f578063406b2c2c146101cb575b5f80fd5b3480156100d0575f80fd5b506100eb60048036038101906100e6919061126e565b61030f565b6040516100f891906112b1565b60405180910390f35b34801561010c575f80fd5b50610115610355565b60405161012291906112b1565b60405180910390f35b348015610136575f80fd5b50610151600480360381019061014c91906112f4565b61035b565b005b34801561015e575f80fd5b506101796004803603810190610174919061126e565b61074d565b60405161018691906112b1565b60405180910390f35b34801561019a575f80fd5b506101b560048036038101906101b0919061131f565b610762565b6040516101c291906112b1565b60405180910390f35b3480156101d6575f80fd5b506101f160048036038101906101ec91906112f4565b610782565b005b3480156101fe575f80fd5b506102076109fd565b604051610214919061136c565b60405180910390f35b348015610228575f80fd5b50610243600480360381019061023e91906112f4565b610a20565b6040516102529392919061139f565b60405180910390f35b610275600480360381019061027091906112f4565b610a71565b005b610291600480360381019061028c91906112f4565b610cba565b005b34801561029e575f80fd5b506102b960048036038101906102b491906112f4565b610fc8565b005b3480156102c6575f80fd5b506102cf611094565b6040516102dc919061148b565b60405180910390f35b3480156102f0575f80fd5b506102f961120a565b60405161030691906112b1565b60405180910390f35b5f60045f8373ffffffffffffffffffffffffffffffffffffffff1673ffffffffffffffffffffffffffffffffffffffff1681526020019081526020015f20549050919050565b60015481565b8060045f3373ffffffffffffffffffffffffffffffffffffffff1673ffffffffffffffffffffffffffffffffffffffff1681526020019081526020015f2054146103da576040517f08c379a00000000000000000000000000000000000000000000000000000000081526004016103d190611505565b60405180910390fd5b5f805f600190505b6002548111610564575f60055f60035f8581526020019081526020015f205f015f9054906101000a900473ffffffffffffffffffffffffffffffffffffffff1673ffffffffffffffffffffffffffffffffffffffff1673ffffffffffffffffffffffffffffffffffffffff1681526020019081526020015f205f3373ffffffffffffffffffffffffffffffffffffffff1673ffffffffffffffffffffffffffffffffffffffff1681526020019081526020015f2054146105515760035f8281526020019081526020015f205f015f9054906101000a900473ffffffffffffffffffffffffffffffffffffffff16925060055f8473ffffffffffffffffffffffffffffffffffffffff1673ffffffffffffffffffffffffffffffffffffffff1681526020019081526020015f205f3373ffffffffffffffffffffffffffffffffffffffff1673ffffffffffffffffffffffffffffffffffffffff1681526020019081526020015f20549150610564565b808061055c90611550565b9150506103e2565b505f81036105a7576040517f08c379a000000000000000000000000000000000000000000000000000000000815260040161059e906115e1565b60405180910390fd5b8160035f8581526020019081526020015f205f015f6101000a81548173ffffffffffffffffffffffffffffffffffffffff021916908373ffffffffffffffffffffffffffffffffffffffff1602179055503360035f8381526020019081526020015f205f015f6101000a81548173ffffffffffffffffffffffffffffffffffffffff021916908373ffffffffffffffffffffffffffffffffffffffff1602179055508060045f3373ffffffffffffffffffffffffffffffffffffffff1673ffffffffffffffffffffffffffffffffffffffff1681526020019081526020015f20819055508260045f8473ffffffffffffffffffffffffffffffffffffffff1673ffffffffffffffffffffffffffffffffffffffff1681526020019081526020015f208190555060055f8373ffffffffffffffffffffffffffffffffffffffff1673ffffffffffffffffffffffffffffffffffffffff1681526020019081526020015f205f3373ffffffffffffffffffffffffffffffffffffffff1673ffffffffffffffffffffffffffffffffffffffff1681526020019081526020015f205f9055505050565b6004602052805f5260405f205f915090505481565b6005602052815f5260405f20602052805f5260405f205f91509150505481565b5f60045f3373ffffffffffffffffffffffffffffffffffffffff1673ffffffffffffffffffffffffffffffffffffffff1681526020019081526020015f205490505f8103610805576040517f08c379a00000000000000000000000000000000000000000000000000000000081526004016107fc90611649565b60405180910390fd5b5f73ffffffffffffffffffffffffffffffffffffffff1660035f8481526020019081526020015f205f015f9054906101000a900473ffffffffffffffffffffffffffffffffffffffff1673ffffffffffffffffffffffffffffffffffffffff16036108a5576040517f08c379a000000000000000000000000000000000000000000000000000000000815260040161089c906116b1565b60405180910390fd5b3373ffffffffffffffffffffffffffffffffffffffff1660035f8481526020019081526020015f205f015f9054906101000a900473ffffffffffffffffffffffffffffffffffffffff1673ffffffffffffffffffffffffffffffffffffffff1603610945576040517f08c379a000000000000000000000000000000000000000000000000000000000815260040161093c90611719565b60405180910390fd5b5f60035f8481526020019081526020015f205f015f9054906101000a900473ffffffffffffffffffffffffffffffffffffffff1690508160055f3373ffffffffffffffffffffffffffffffffffffffff1673ffffffffffffffffffffffffffffffffffffffff1681526020019081526020015f205f8373ffffffffffffffffffffffffffffffffffffffff1673ffffffffffffffffffffffffffffffffffffffff1681526020019081526020015f2081905550505050565b5f8054906101000a900473ffffffffffffffffffffffffffffffffffffffff1681565b6003602052805f5260405f205f91509050805f015f9054906101000a900473ffffffffffffffffffffffffffffffffffffffff1690806001015490806002015f9054906101000a900460ff16905083565b5f81118015610a8257506002548111155b610ac1576040517f08c379a0000000000000000000000000000000000000000000000000000000008152600401610ab890611781565b60405180910390fd5b5f73ffffffffffffffffffffffffffffffffffffffff1660035f8381526020019081526020015f205f015f9054906101000a900473ffffffffffffffffffffffffffffffffffffffff1673ffffffffffffffffffffffffffffffffffffffff1614610b61576040517f08c379a0000000000000000000000000000000000000000000000000000000008152600401610b58906117e9565b60405180910390fd5b5f60045f3373ffffffffffffffffffffffffffffffffffffffff1673ffffffffffffffffffffffffffffffffffffffff1681526020019081526020015f205414610be0576040517f08c379a0000000000000000000000000000000000000000000000000000000008152600401610bd790611851565b60405180910390fd5b6001543414610c24576040517f08c379a0000000000000000000000000000000000000000000000000000000008152600401610c1b906118b9565b60405180910390fd5b3360035f8381526020019081526020015f205f015f6101000a81548173ffffffffffffffffffffffffffffffffffffffff021916908373ffffffffffffffffffffffffffffffffffffffff1602179055508060045f3373ffffffffffffffffffffffffffffffffffffffff1673ffffffffffffffffffffffffffffffffffffffff1681526020019081526020015f208190555050565b5f60035f8381526020019081526020015f209050806002015f9054906101000a900460ff16610d1e576040517f08c379a0000000000000000000000000000000000000000000000000000000008152600401610d1590611921565b60405180910390fd5b5f60045f3373ffffffffffffffffffffffffffffffffffffffff1673ffffffffffffffffffffffffffffffffffffffff1681526020019081526020015f205414610d9d576040517f08c379a0000000000000000000000000000000000000000000000000000000008152600401610d9490611851565b60405180910390fd5b80600101543414610de3576040517f08c379a0000000000000000000000000000000000000000000000000000000008152600401610dda906118b9565b60405180910390fd5b5f815f015f9054906101000a900473ffffffffffffffffffffffffffffffffffffffff1690505f6064600a8460010154610e1d919061193f565b610e2791906119ad565b90505f818460010154610e3a91906119dd565b90508273ffffffffffffffffffffffffffffffffffffffff166108fc8290811502906040515f60405180830381858888f19350505050158015610e7f573d5f803e3d5ffd5b505f8054906101000a900473ffffffffffffffffffffffffffffffffffffffff1673ffffffffffffffffffffffffffffffffffffffff166108fc8390811502906040515f60405180830381858888f19350505050158015610ee2573d5f803e3d5ffd5b5033845f015f6101000a81548173ffffffffffffffffffffffffffffffffffffffff021916908373ffffffffffffffffffffffffffffffffffffffff1602179055505f846002015f6101000a81548160ff0219169083151502179055508460045f3373ffffffffffffffffffffffffffffffffffffffff1673ffffffffffffffffffffffffffffffffffffffff1681526020019081526020015f208190555060045f8473ffffffffffffffffffffffffffffffffffffffff1673ffffffffffffffffffffffffffffffffffffffff1681526020019081526020015f205f90555050505050565b5f60045f3373ffffffffffffffffffffffffffffffffffffffff1673ffffffffffffffffffffffffffffffffffffffff1681526020019081526020015f205490505f810361104b576040517f08c379a000000000000000000000000000000000000000000000000000000000815260040161104290611649565b60405180910390fd5b8160035f8381526020019081526020015f2060010181905550600160035f8381526020019081526020015f206002015f6101000a81548160ff0219169083151502179055505050565b60605f80600190505b60025481116110ee5760035f8281526020019081526020015f206002015f9054906101000a900460ff16156110db5781806110d790611550565b9250505b80806110e690611550565b91505061109d565b505f6002826110fd919061193f565b67ffffffffffffffff81111561111657611115611a10565b5b6040519080825280602002602001820160405280156111445781602001602082028036833780820191505090505b5090505f80600190505b60025481116112005760035f8281526020019081526020015f206002015f9054906101000a900460ff16156111ed578083838151811061119157611190611a3d565b5b60200260200101818152505060035f8281526020019081526020015f2060010154836001846111c09190611a6a565b815181106111d1576111d0611a3d565b5b6020026020010181815250506002826111ea9190611a6a565b91505b80806111f890611550565b91505061114e565b5081935050505090565b60025481565b5f80fd5b5f73ffffffffffffffffffffffffffffffffffffffff82169050919050565b5f61123d82611214565b9050919050565b61124d81611233565b8114611257575f80fd5b50565b5f8135905061126881611244565b92915050565b5f6020828403121561128357611282611210565b5b5f6112908482850161125a565b91505092915050565b5f819050919050565b6112ab81611299565b82525050565b5f6020820190506112c45f8301846112a2565b92915050565b6112d381611299565b81146112dd575f80fd5b50565b5f813590506112ee816112ca565b92915050565b5f6020828403121561130957611308611210565b5b5f611316848285016112e0565b91505092915050565b5f806040838503121561133557611334611210565b5b5f6113428582860161125a565b92505060206113538582860161125a565b9150509250929050565b61136681611233565b82525050565b5f60208201905061137f5f83018461135d565b92915050565b5f8115159050919050565b61139981611385565b82525050565b5f6060820190506113b25f83018661135d565b6113bf60208301856112a2565b6113cc6040830184611390565b949350505050565b5f81519050919050565b5f82825260208201905092915050565b5f819050602082019050919050565b61140681611299565b82525050565b5f61141783836113fd565b60208301905092915050565b5f602082019050919050565b5f611439826113d4565b61144381856113de565b935061144e836113ee565b805f5b8381101561147e578151611465888261140c565b975061147083611423565b925050600181019050611451565b5085935050505092915050565b5f6020820190508181035f8301526114a3818461142f565b905092915050565b5f82825260208201905092915050565b7f596f7520646f6e2774206f776e2074686973207469636b6574000000000000005f82015250565b5f6114ef6019836114ab565b91506114fa826114bb565b602082019050919050565b5f6020820190508181035f83015261151c816114e3565b9050919050565b7f4e487b71000000000000000000000000000000000000000000000000000000005f52601160045260245ffd5b5f61155a82611299565b91507fffffffffffffffffffffffffffffffffffffffffffffffffffffffffffffffff820361158c5761158b611523565b5b600182019050919050565b7f4e6f2073776170206f6666657220666f7220796f7500000000000000000000005f82015250565b5f6115cb6015836114ab565b91506115d682611597565b602082019050919050565b5f6020820190508181035f8301526115f8816115bf565b9050919050565b7f596f7520646f6e2774206f776e2061207469636b6574000000000000000000005f82015250565b5f6116336016836114ab565b915061163e826115ff565b602082019050919050565b5f6020820190508181035f83015261166081611627565b9050919050565b7f546172676574207469636b6574206e6f7420736f6c64000000000000000000005f82015250565b5f61169b6016836114ab565b91506116a682611667565b602082019050919050565b5f6020820190508181035f8301526116c88161168f565b9050919050565b7f43616e6e6f742073776170207769746820796f757273656c66000000000000005f82015250565b5f6117036019836114ab565b915061170e826116cf565b602082019050919050565b5f6020820190508181035f830152611730816116f7565b9050919050565b7f496e76616c6964207469636b65742049440000000000000000000000000000005f82015250565b5f61176b6011836114ab565b915061177682611737565b602082019050919050565b5f6020820190508181035f8301526117988161175f565b9050919050565b7f5469636b657420616c726561647920736f6c64000000000000000000000000005f82015250565b5f6117d36013836114ab565b91506117de8261179f565b602082019050919050565b5f6020820190508181035f830152611800816117c7565b9050919050565b7f596f7520616c7265616479206f776e2061207469636b657400000000000000005f82015250565b5f61183b6018836114ab565b915061184682611807565b602082019050919050565b5f6020820190508181035f8301526118688161182f565b9050919050565b7f496e636f7272656374207061796d656e7420616d6f756e7400000000000000005f82015250565b5f6118a36018836114ab565b91506118ae8261186f565b602082019050919050565b5f6020820190508181035f8301526118d081611897565b9050919050565b7f5469636b6574206e6f7420666f722073616c65000000000000000000000000005f82015250565b5f61190b6013836114ab565b9150611916826118d7565b602082019050919050565b5f6020820190508181035f830152611938816118ff565b9050919050565b5f61194982611299565b915061195483611299565b925082820261196281611299565b9150828204841483151761197957611978611523565b5b5092915050565b7f4e487b71000000000000000000000000000000000000000000000000000000005f52601260045260245ffd5b5f6119b782611299565b91506119c283611299565b9250826119d2576119d1611980565b5b828204905092915050565b5f6119e782611299565b91506119f283611299565b9250828203905081811115611a0a57611a09611523565b5b92915050565b7f4e487b71000000000000000000000000000000000000000000000000000000005f52604160045260245ffd5b7f4e487b71000000000000000000000000000000000000000000000000000000005f52603260045260245ffd5b5f611a7482611299565b9150611a7f83611299565b9250828201905080821115611a9757611a96611523565b5b9291505056fea264697066735822122078d8f5fc089e8c7e600cac019ae0b7c07e4bed4cf613509a2b0b0288274bfca064736f6c634300081a0033",
					"opcodes": "PUSH1 0x80 PUSH1 0x40 MSTORE CALLVALUE DUP1 ISZERO PUSH2 0xF JUMPI PUSH0 DUP1 REVERT JUMPDEST POP PUSH1 0x40 MLOAD PUSH2 0x1BDA CODESIZE SUB DUP1 PUSH2 0x1BDA DUP4 CODECOPY DUP2 DUP2 ADD PUSH1 0x40 MSTORE DUP2 ADD SWAP1 PUSH2 0x31 SWAP2 SWAP1 PUSH2 0xBC JUMP JUMPDEST CALLER PUSH0 DUP1 PUSH2 0x100 EXP DUP2 SLOAD DUP2 PUSH20 0xFFFFFFFFFFFFFFFFFFFFFFFFFFFFFFFFFFFFFFFF MUL NOT AND SWAP1 DUP4 PUSH20 0xFFFFFFFFFFFFFFFFFFFFFFFFFFFFFFFFFFFFFFFF AND MUL OR SWAP1 SSTORE POP DUP2 PUSH1 0x2 DUP2 SWAP1 SSTORE POP DUP1 PUSH1 0x1 DUP2 SWAP1 SSTORE POP POP POP PUSH2 0xFA JUMP JUMPDEST PUSH0 DUP1 REVERT JUMPDEST PUSH0 DUP2 SWAP1 POP SWAP2 SWAP1 POP JUMP JUMPDEST PUSH2 0x9B DUP2 PUSH2 0x89 JUMP JUMPDEST DUP2 EQ PUSH2 0xA5 JUMPI PUSH0 DUP1 REVERT JUMPDEST POP JUMP JUMPDEST PUSH0 DUP2 MLOAD SWAP1 POP PUSH2 0xB6 DUP2 PUSH2 0x92 JUMP JUMPDEST SWAP3 SWAP2 POP POP JUMP JUMPDEST PUSH0 DUP1 PUSH1 0x40 DUP4 DUP6 SUB SLT ISZERO PUSH2 0xD2 JUMPI PUSH2 0xD1 PUSH2 0x85 JUMP JUMPDEST JUMPDEST PUSH0 PUSH2 0xDF DUP6 DUP3 DUP7 ADD PUSH2 0xA8 JUMP JUMPDEST SWAP3 POP POP PUSH1 0x20 PUSH2 0xF0 DUP6 DUP3 DUP7 ADD PUSH2 0xA8 JUMP JUMPDEST SWAP2 POP POP SWAP3 POP SWAP3 SWAP1 POP JUMP JUMPDEST PUSH2 0x1AD3 DUP1 PUSH2 0x107 PUSH0 CODECOPY PUSH0 RETURN INVALID PUSH1 0x80 PUSH1 0x40 MSTORE PUSH1 0x4 CALLDATASIZE LT PUSH2 0xC1 JUMPI PUSH0 CALLDATALOAD PUSH1 0xE0 SHR DUP1 PUSH4 0x481C6A75 GT PUSH2 0x7E JUMPI DUP1 PUSH4 0x943BA212 GT PUSH2 0x58 JUMPI DUP1 PUSH4 0x943BA212 EQ PUSH2 0x277 JUMPI DUP1 PUSH4 0xA3C1A1FE EQ PUSH2 0x293 JUMPI DUP1 PUSH4 0xC4A4BE83 EQ PUSH2 0x2BB JUMPI DUP1 PUSH4 0xDD11247E EQ PUSH2 0x2E5 JUMPI PUSH2 0xC1 JUMP JUMPDEST DUP1 PUSH4 0x481C6A75 EQ PUSH2 0x1F3 JUMPI DUP1 PUSH4 0x50B44712 EQ PUSH2 0x21D JUMPI DUP1 PUSH4 0x67DD74CA EQ PUSH2 0x25B JUMPI PUSH2 0xC1 JUMP JUMPDEST DUP1 PUSH4 0x412F4AB EQ PUSH2 0xC5 JUMPI DUP1 PUSH4 0x1209B1F6 EQ PUSH2 0x101 JUMPI DUP1 PUSH4 0x1BF33004 EQ PUSH2 0x12B JUMPI DUP1 PUSH4 0x1F6EA787 EQ PUSH2 0x153 JUMPI DUP1 PUSH4 0x212D94C3 EQ PUSH2 0x18F JUMPI DUP1 PUSH4 0x406B2C2C EQ PUSH2 0x1CB JUMPI JUMPDEST PUSH0 DUP1 REVERT JUMPDEST CALLVALUE DUP1 ISZERO PUSH2 0xD0 JUMPI PUSH0 DUP1 REVERT JUMPDEST POP PUSH2 0xEB PUSH1 0x4 DUP1 CALLDATASIZE SUB DUP2 ADD SWAP1 PUSH2 0xE6 SWAP2 SWAP1 PUSH2 0x126E JUMP JUMPDEST PUSH2 0x30F JUMP JUMPDEST PUSH1 0x40 MLOAD PUSH2 0xF8 SWAP2 SWAP1 PUSH2 0x12B1 JUMP JUMPDEST PUSH1 0x40 MLOAD DUP1 SWAP2 SUB SWAP1 RETURN JUMPDEST CALLVALUE DUP1 ISZERO PUSH2 0x10C JUMPI PUSH0 DUP1 REVERT JUMPDEST POP PUSH2 0x115 PUSH2 0x355 JUMP JUMPDEST PUSH1 0x40 MLOAD PUSH2 0x122 SWAP2 SWAP1 PUSH2 0x12B1 JUMP JUMPDEST PUSH1 0x40 MLOAD DUP1 SWAP2 SUB SWAP1 RETURN JUMPDEST CALLVALUE DUP1 ISZERO PUSH2 0x136 JUMPI PUSH0 DUP1 REVERT JUMPDEST POP PUSH2 0x151 PUSH1 0x4 DUP1 CALLDATASIZE SUB DUP2 ADD SWAP1 PUSH2 0x14C SWAP2 SWAP1 PUSH2 0x12F4 JUMP JUMPDEST PUSH2 0x35B JUMP JUMPDEST STOP JUMPDEST CALLVALUE DUP1 ISZERO PUSH2 0x15E JUMPI PUSH0 DUP1 REVERT JUMPDEST POP PUSH2 0x179 PUSH1 0x4 DUP1 CALLDATASIZE SUB DUP2 ADD SWAP1 PUSH2 0x174 SWAP2 SWAP1 PUSH2 0x126E JUMP JUMPDEST PUSH2 0x74D JUMP JUMPDEST PUSH1 0x40 MLOAD PUSH2 0x186 SWAP2 SWAP1 PUSH2 0x12B1 JUMP JUMPDEST PUSH1 0x40 MLOAD DUP1 SWAP2 SUB SWAP1 RETURN JUMPDEST CALLVALUE DUP1 ISZERO PUSH2 0x19A JUMPI PUSH0 DUP1 REVERT JUMPDEST POP PUSH2 0x1B5 PUSH1 0x4 DUP1 CALLDATASIZE SUB DUP2 ADD SWAP1 PUSH2 0x1B0 SWAP2 SWAP1 PUSH2 0x131F JUMP JUMPDEST PUSH2 0x762 JUMP JUMPDEST PUSH1 0x40 MLOAD PUSH2 0x1C2 SWAP2 SWAP1 PUSH2 0x12B1 JUMP JUMPDEST PUSH1 0x40 MLOAD DUP1 SWAP2 SUB SWAP1 RETURN JUMPDEST CALLVALUE DUP1 ISZERO PUSH2 0x1D6 JUMPI PUSH0 DUP1 REVERT JUMPDEST POP PUSH2 0x1F1 PUSH1 0x4 DUP1 CALLDATASIZE SUB DUP2 ADD SWAP1 PUSH2 0x1EC SWAP2 SWAP1 PUSH2 0x12F4 JUMP JUMPDEST PUSH2 0x782 JUMP JUMPDEST STOP JUMPDEST CALLVALUE DUP1 ISZERO PUSH2 0x1FE JUMPI PUSH0 DUP1 REVERT JUMPDEST POP PUSH2 0x207 PUSH2 0x9FD JUMP JUMPDEST PUSH1 0x40 MLOAD PUSH2 0x214 SWAP2 SWAP1 PUSH2 0x136C JUMP JUMPDEST PUSH1 0x40 MLOAD DUP1 SWAP2 SUB SWAP1 RETURN JUMPDEST CALLVALUE DUP1 ISZERO PUSH2 0x228 JUMPI PUSH0 DUP1 REVERT JUMPDEST POP PUSH2 0x243 PUSH1 0x4 DUP1 CALLDATASIZE SUB DUP2 ADD SWAP1 PUSH2 0x23E SWAP2 SWAP1 PUSH2 0x12F4 JUMP JUMPDEST PUSH2 0xA20 JUMP JUMPDEST PUSH1 0x40 MLOAD PUSH2 0x252 SWAP4 SWAP3 SWAP2 SWAP1 PUSH2 0x139F JUMP JUMPDEST PUSH1 0x40 MLOAD DUP1 SWAP2 SUB SWAP1 RETURN JUMPDEST PUSH2 0x275 PUSH1 0x4 DUP1 CALLDATASIZE SUB DUP2 ADD SWAP1 PUSH2 0x270 SWAP2 SWAP1 PUSH2 0x12F4 JUMP JUMPDEST PUSH2 0xA71 JUMP JUMPDEST STOP JUMPDEST PUSH2 0x291 PUSH1 0x4 DUP1 CALLDATASIZE SUB DUP2 ADD SWAP1 PUSH2 0x28C SWAP2 SWAP1 PUSH2 0x12F4 JUMP JUMPDEST PUSH2 0xCBA JUMP JUMPDEST STOP JUMPDEST CALLVALUE DUP1 ISZERO PUSH2 0x29E JUMPI PUSH0 DUP1 REVERT JUMPDEST POP PUSH2 0x2B9 PUSH1 0x4 DUP1 CALLDATASIZE SUB DUP2 ADD SWAP1 PUSH2 0x2B4 SWAP2 SWAP1 PUSH2 0x12F4 JUMP JUMPDEST PUSH2 0xFC8 JUMP JUMPDEST STOP JUMPDEST CALLVALUE DUP1 ISZERO PUSH2 0x2C6 JUMPI PUSH0 DUP1 REVERT JUMPDEST POP PUSH2 0x2CF PUSH2 0x1094 JUMP JUMPDEST PUSH1 0x40 MLOAD PUSH2 0x2DC SWAP2 SWAP1 PUSH2 0x148B JUMP JUMPDEST PUSH1 0x40 MLOAD DUP1 SWAP2 SUB SWAP1 RETURN JUMPDEST CALLVALUE DUP1 ISZERO PUSH2 0x2F0 JUMPI PUSH0 DUP1 REVERT JUMPDEST POP PUSH2 0x2F9 PUSH2 0x120A JUMP JUMPDEST PUSH1 0x40 MLOAD PUSH2 0x306 SWAP2 SWAP1 PUSH2 0x12B1 JUMP JUMPDEST PUSH1 0x40 MLOAD DUP1 SWAP2 SUB SWAP1 RETURN JUMPDEST PUSH0 PUSH1 0x4 PUSH0 DUP4 PUSH20 0xFFFFFFFFFFFFFFFFFFFFFFFFFFFFFFFFFFFFFFFF AND PUSH20 0xFFFFFFFFFFFFFFFFFFFFFFFFFFFFFFFFFFFFFFFF AND DUP2 MSTORE PUSH1 0x20 ADD SWAP1 DUP2 MSTORE PUSH1 0x20 ADD PUSH0 KECCAK256 SLOAD SWAP1 POP SWAP2 SWAP1 POP JUMP JUMPDEST PUSH1 0x1 SLOAD DUP2 JUMP JUMPDEST DUP1 PUSH1 0x4 PUSH0 CALLER PUSH20 0xFFFFFFFFFFFFFFFFFFFFFFFFFFFFFFFFFFFFFFFF AND PUSH20 0xFFFFFFFFFFFFFFFFFFFFFFFFFFFFFFFFFFFFFFFF AND DUP2 MSTORE PUSH1 0x20 ADD SWAP1 DUP2 MSTORE PUSH1 0x20 ADD PUSH0 KECCAK256 SLOAD EQ PUSH2 0x3DA JUMPI PUSH1 0x40 MLOAD PUSH32 0x8C379A000000000000000000000000000000000000000000000000000000000 DUP2 MSTORE PUSH1 0x4 ADD PUSH2 0x3D1 SWAP1 PUSH2 0x1505 JUMP JUMPDEST PUSH1 0x40 MLOAD DUP1 SWAP2 SUB SWAP1 REVERT JUMPDEST PUSH0 DUP1 PUSH0 PUSH1 0x1 SWAP1 POP JUMPDEST PUSH1 0x2 SLOAD DUP2 GT PUSH2 0x564 JUMPI PUSH0 PUSH1 0x5 PUSH0 PUSH1 0x3 PUSH0 DUP6 DUP2 MSTORE PUSH1 0x20 ADD SWAP1 DUP2 MSTORE PUSH1 0x20 ADD PUSH0 KECCAK256 PUSH0 ADD PUSH0 SWAP1 SLOAD SWAP1 PUSH2 0x100 EXP SWAP1 DIV PUSH20 0xFFFFFFFFFFFFFFFFFFFFFFFFFFFFFFFFFFFFFFFF AND PUSH20 0xFFFFFFFFFFFFFFFFFFFFFFFFFFFFFFFFFFFFFFFF AND PUSH20 0xFFFFFFFFFFFFFFFFFFFFFFFFFFFFFFFFFFFFFFFF AND DUP2 MSTORE PUSH1 0x20 ADD SWAP1 DUP2 MSTORE PUSH1 0x20 ADD PUSH0 KECCAK256 PUSH0 CALLER PUSH20 0xFFFFFFFFFFFFFFFFFFFFFFFFFFFFFFFFFFFFFFFF AND PUSH20 0xFFFFFFFFFFFFFFFFFFFFFFFFFFFFFFFFFFFFFFFF AND DUP2 MSTORE PUSH1 0x20 ADD SWAP1 DUP2 MSTORE PUSH1 0x20 ADD PUSH0 KECCAK256 SLOAD EQ PUSH2 0x551 JUMPI PUSH1 0x3 PUSH0 DUP3 DUP2 MSTORE PUSH1 0x20 ADD SWAP1 DUP2 MSTORE PUSH1 0x20 ADD PUSH0 KECCAK256 PUSH0 ADD PUSH0 SWAP1 SLOAD SWAP1 PUSH2 0x100 EXP SWAP1 DIV PUSH20 0xFFFFFFFFFFFFFFFFFFFFFFFFFFFFFFFFFFFFFFFF AND SWAP3 POP PUSH1 0x5 PUSH0 DUP5 PUSH20 0xFFFFFFFFFFFFFFFFFFFFFFFFFFFFFFFFFFFFFFFF AND PUSH20 0xFFFFFFFFFFFFFFFFFFFFFFFFFFFFFFFFFFFFFFFF AND DUP2 MSTORE PUSH1 0x20 ADD SWAP1 DUP2 MSTORE PUSH1 0x20 ADD PUSH0 KECCAK256 PUSH0 CALLER PUSH20 0xFFFFFFFFFFFFFFFFFFFFFFFFFFFFFFFFFFFFFFFF AND PUSH20 0xFFFFFFFFFFFFFFFFFFFFFFFFFFFFFFFFFFFFFFFF AND DUP2 MSTORE PUSH1 0x20 ADD SWAP1 DUP2 MSTORE PUSH1 0x20 ADD PUSH0 KECCAK256 SLOAD SWAP2 POP PUSH2 0x564 JUMP JUMPDEST DUP1 DUP1 PUSH2 0x55C SWAP1 PUSH2 0x1550 JUMP JUMPDEST SWAP2 POP POP PUSH2 0x3E2 JUMP JUMPDEST POP PUSH0 DUP2 SUB PUSH2 0x5A7 JUMPI PUSH1 0x40 MLOAD PUSH32 0x8C379A000000000000000000000000000000000000000000000000000000000 DUP2 MSTORE PUSH1 0x4 ADD PUSH2 0x59E SWAP1 PUSH2 0x15E1 JUMP JUMPDEST PUSH1 0x40 MLOAD DUP1 SWAP2 SUB SWAP1 REVERT JUMPDEST DUP2 PUSH1 0x3 PUSH0 DUP6 DUP2 MSTORE PUSH1 0x20 ADD SWAP1 DUP2 MSTORE PUSH1 0x20 ADD PUSH0 KECCAK256 PUSH0 ADD PUSH0 PUSH2 0x100 EXP DUP2 SLOAD DUP2 PUSH20 0xFFFFFFFFFFFFFFFFFFFFFFFFFFFFFFFFFFFFFFFF MUL NOT AND SWAP1 DUP4 PUSH20 0xFFFFFFFFFFFFFFFFFFFFFFFFFFFFFFFFFFFFFFFF AND MUL OR SWAP1 SSTORE POP CALLER PUSH1 0x3 PUSH0 DUP4 DUP2 MSTORE PUSH1 0x20 ADD SWAP1 DUP2 MSTORE PUSH1 0x20 ADD PUSH0 KECCAK256 PUSH0 ADD PUSH0 PUSH2 0x100 EXP DUP2 SLOAD DUP2 PUSH20 0xFFFFFFFFFFFFFFFFFFFFFFFFFFFFFFFFFFFFFFFF MUL NOT AND SWAP1 DUP4 PUSH20 0xFFFFFFFFFFFFFFFFFFFFFFFFFFFFFFFFFFFFFFFF AND MUL OR SWAP1 SSTORE POP DUP1 PUSH1 0x4 PUSH0 CALLER PUSH20 0xFFFFFFFFFFFFFFFFFFFFFFFFFFFFFFFFFFFFFFFF AND PUSH20 0xFFFFFFFFFFFFFFFFFFFFFFFFFFFFFFFFFFFFFFFF AND DUP2 MSTORE PUSH1 0x20 ADD SWAP1 DUP2 MSTORE PUSH1 0x20 ADD PUSH0 KECCAK256 DUP2 SWAP1 SSTORE POP DUP3 PUSH1 0x4 PUSH0 DUP5 PUSH20 0xFFFFFFFFFFFFFFFFFFFFFFFFFFFFFFFFFFFFFFFF AND PUSH20 0xFFFFFFFFFFFFFFFFFFFFFFFFFFFFFFFFFFFFFFFF AND DUP2 MSTORE PUSH1 0x20 ADD SWAP1 DUP2 MSTORE PUSH1 0x20 ADD PUSH0 KECCAK256 DUP2 SWAP1 SSTORE POP PUSH1 0x5 PUSH0 DUP4 PUSH20 0xFFFFFFFFFFFFFFFFFFFFFFFFFFFFFFFFFFFFFFFF AND PUSH20 0xFFFFFFFFFFFFFFFFFFFFFFFFFFFFFFFFFFFFFFFF AND DUP2 MSTORE PUSH1 0x20 ADD SWAP1 DUP2 MSTORE PUSH1 0x20 ADD PUSH0 KECCAK256 PUSH0 CALLER PUSH20 0xFFFFFFFFFFFFFFFFFFFFFFFFFFFFFFFFFFFFFFFF AND PUSH20 0xFFFFFFFFFFFFFFFFFFFFFFFFFFFFFFFFFFFFFFFF AND DUP2 MSTORE PUSH1 0x20 ADD SWAP1 DUP2 MSTORE PUSH1 0x20 ADD PUSH0 KECCAK256 PUSH0 SWAP1 SSTORE POP POP POP JUMP JUMPDEST PUSH1 0x4 PUSH1 0x20 MSTORE DUP1 PUSH0 MSTORE PUSH1 0x40 PUSH0 KECCAK256 PUSH0 SWAP2 POP SWAP1 POP SLOAD DUP2 JUMP JUMPDEST PUSH1 0x5 PUSH1 0x20 MSTORE DUP2 PUSH0 MSTORE PUSH1 0x40 PUSH0 KECCAK256 PUSH1 0x20 MSTORE DUP1 PUSH0 MSTORE PUSH1 0x40 PUSH0 KECCAK256 PUSH0 SWAP2 POP SWAP2 POP POP SLOAD DUP2 JUMP JUMPDEST PUSH0 PUSH1 0x4 PUSH0 CALLER PUSH20 0xFFFFFFFFFFFFFFFFFFFFFFFFFFFFFFFFFFFFFFFF AND PUSH20 0xFFFFFFFFFFFFFFFFFFFFFFFFFFFFFFFFFFFFFFFF AND DUP2 MSTORE PUSH1 0x20 ADD SWAP1 DUP2 MSTORE PUSH1 0x20 ADD PUSH0 KECCAK256 SLOAD SWAP1 POP PUSH0 DUP2 SUB PUSH2 0x805 JUMPI PUSH1 0x40 MLOAD PUSH32 0x8C379A000000000000000000000000000000000000000000000000000000000 DUP2 MSTORE PUSH1 0x4 ADD PUSH2 0x7FC SWAP1 PUSH2 0x1649 JUMP JUMPDEST PUSH1 0x40 MLOAD DUP1 SWAP2 SUB SWAP1 REVERT JUMPDEST PUSH0 PUSH20 0xFFFFFFFFFFFFFFFFFFFFFFFFFFFFFFFFFFFFFFFF AND PUSH1 0x3 PUSH0 DUP5 DUP2 MSTORE PUSH1 0x20 ADD SWAP1 DUP2 MSTORE PUSH1 0x20 ADD PUSH0 KECCAK256 PUSH0 ADD PUSH0 SWAP1 SLOAD SWAP1 PUSH2 0x100 EXP SWAP1 DIV PUSH20 0xFFFFFFFFFFFFFFFFFFFFFFFFFFFFFFFFFFFFFFFF AND PUSH20 0xFFFFFFFFFFFFFFFFFFFFFFFFFFFFFFFFFFFFFFFF AND SUB PUSH2 0x8A5 JUMPI PUSH1 0x40 MLOAD PUSH32 0x8C379A000000000000000000000000000000000000000000000000000000000 DUP2 MSTORE PUSH1 0x4 ADD PUSH2 0x89C SWAP1 PUSH2 0x16B1 JUMP JUMPDEST PUSH1 0x40 MLOAD DUP1 SWAP2 SUB SWAP1 REVERT JUMPDEST CALLER PUSH20 0xFFFFFFFFFFFFFFFFFFFFFFFFFFFFFFFFFFFFFFFF AND PUSH1 0x3 PUSH0 DUP5 DUP2 MSTORE PUSH1 0x20 ADD SWAP1 DUP2 MSTORE PUSH1 0x20 ADD PUSH0 KECCAK256 PUSH0 ADD PUSH0 SWAP1 SLOAD SWAP1 PUSH2 0x100 EXP SWAP1 DIV PUSH20 0xFFFFFFFFFFFFFFFFFFFFFFFFFFFFFFFFFFFFFFFF AND PUSH20 0xFFFFFFFFFFFFFFFFFFFFFFFFFFFFFFFFFFFFFFFF AND SUB PUSH2 0x945 JUMPI PUSH1 0x40 MLOAD PUSH32 0x8C379A000000000000000000000000000000000000000000000000000000000 DUP2 MSTORE PUSH1 0x4 ADD PUSH2 0x93C SWAP1 PUSH2 0x1719 JUMP JUMPDEST PUSH1 0x40 MLOAD DUP1 SWAP2 SUB SWAP1 REVERT JUMPDEST PUSH0 PUSH1 0x3 PUSH0 DUP5 DUP2 MSTORE PUSH1 0x20 ADD SWAP1 DUP2 MSTORE PUSH1 0x20 ADD PUSH0 KECCAK256 PUSH0 ADD PUSH0 SWAP1 SLOAD SWAP1 PUSH2 0x100 EXP SWAP1 DIV PUSH20 0xFFFFFFFFFFFFFFFFFFFFFFFFFFFFFFFFFFFFFFFF AND SWAP1 POP DUP2 PUSH1 0x5 PUSH0 CALLER PUSH20 0xFFFFFFFFFFFFFFFFFFFFFFFFFFFFFFFFFFFFFFFF AND PUSH20 0xFFFFFFFFFFFFFFFFFFFFFFFFFFFFFFFFFFFFFFFF AND DUP2 MSTORE PUSH1 0x20 ADD SWAP1 DUP2 MSTORE PUSH1 0x20 ADD PUSH0 KECCAK256 PUSH0 DUP4 PUSH20 0xFFFFFFFFFFFFFFFFFFFFFFFFFFFFFFFFFFFFFFFF AND PUSH20 0xFFFFFFFFFFFFFFFFFFFFFFFFFFFFFFFFFFFFFFFF AND DUP2 MSTORE PUSH1 0x20 ADD SWAP1 DUP2 MSTORE PUSH1 0x20 ADD PUSH0 KECCAK256 DUP2 SWAP1 SSTORE POP POP POP POP JUMP JUMPDEST PUSH0 DUP1 SLOAD SWAP1 PUSH2 0x100 EXP SWAP1 DIV PUSH20 0xFFFFFFFFFFFFFFFFFFFFFFFFFFFFFFFFFFFFFFFF AND DUP2 JUMP JUMPDEST PUSH1 0x3 PUSH1 0x20 MSTORE DUP1 PUSH0 MSTORE PUSH1 0x40 PUSH0 KECCAK256 PUSH0 SWAP2 POP SWAP1 POP DUP1 PUSH0 ADD PUSH0 SWAP1 SLOAD SWAP1 PUSH2 0x100 EXP SWAP1 DIV PUSH20 0xFFFFFFFFFFFFFFFFFFFFFFFFFFFFFFFFFFFFFFFF AND SWAP1 DUP1 PUSH1 0x1 ADD SLOAD SWAP1 DUP1 PUSH1 0x2 ADD PUSH0 SWAP1 SLOAD SWAP1 PUSH2 0x100 EXP SWAP1 DIV PUSH1 0xFF AND SWAP1 POP DUP4 JUMP JUMPDEST PUSH0 DUP2 GT DUP1 ISZERO PUSH2 0xA82 JUMPI POP PUSH1 0x2 SLOAD DUP2 GT ISZERO JUMPDEST PUSH2 0xAC1 JUMPI PUSH1 0x40 MLOAD PUSH32 0x8C379A000000000000000000000000000000000000000000000000000000000 DUP2 MSTORE PUSH1 0x4 ADD PUSH2 0xAB8 SWAP1 PUSH2 0x1781 JUMP JUMPDEST PUSH1 0x40 MLOAD DUP1 SWAP2 SUB SWAP1 REVERT JUMPDEST PUSH0 PUSH20 0xFFFFFFFFFFFFFFFFFFFFFFFFFFFFFFFFFFFFFFFF AND PUSH1 0x3 PUSH0 DUP4 DUP2 MSTORE PUSH1 0x20 ADD SWAP1 DUP2 MSTORE PUSH1 0x20 ADD PUSH0 KECCAK256 PUSH0 ADD PUSH0 SWAP1 SLOAD SWAP1 PUSH2 0x100 EXP SWAP1 DIV PUSH20 0xFFFFFFFFFFFFFFFFFFFFFFFFFFFFFFFFFFFFFFFF AND PUSH20 0xFFFFFFFFFFFFFFFFFFFFFFFFFFFFFFFFFFFFFFFF AND EQ PUSH2 0xB61 JUMPI PUSH1 0x40 MLOAD PUSH32 0x8C379A000000000000000000000000000000000000000000000000000000000 DUP2 MSTORE PUSH1 0x4 ADD PUSH2 0xB58 SWAP1 PUSH2 0x17E9 JUMP JUMPDEST PUSH1 0x40 MLOAD DUP1 SWAP2 SUB SWAP1 REVERT JUMPDEST PUSH0 PUSH1 0x4 PUSH0 CALLER PUSH20 0xFFFFFFFFFFFFFFFFFFFFFFFFFFFFFFFFFFFFFFFF AND PUSH20 0xFFFFFFFFFFFFFFFFFFFFFFFFFFFFFFFFFFFFFFFF AND DUP2 MSTORE PUSH1 0x20 ADD SWAP1 DUP2 MSTORE PUSH1 0x20 ADD PUSH0 KECCAK256 SLOAD EQ PUSH2 0xBE0 JUMPI PUSH1 0x40 MLOAD PUSH32 0x8C379A000000000000000000000000000000000000000000000000000000000 DUP2 MSTORE PUSH1 0x4 ADD PUSH2 0xBD7 SWAP1 PUSH2 0x1851 JUMP JUMPDEST PUSH1 0x40 MLOAD DUP1 SWAP2 SUB SWAP1 REVERT JUMPDEST PUSH1 0x1 SLOAD CALLVALUE EQ PUSH2 0xC24 JUMPI PUSH1 0x40 MLOAD PUSH32 0x8C379A000000000000000000000000000000000000000000000000000000000 DUP2 MSTORE PUSH1 0x4 ADD PUSH2 0xC1B SWAP1 PUSH2 0x18B9 JUMP JUMPDEST PUSH1 0x40 MLOAD DUP1 SWAP2 SUB SWAP1 REVERT JUMPDEST CALLER PUSH1 0x3 PUSH0 DUP4 DUP2 MSTORE PUSH1 0x20 ADD SWAP1 DUP2 MSTORE PUSH1 0x20 ADD PUSH0 KECCAK256 PUSH0 ADD PUSH0 PUSH2 0x100 EXP DUP2 SLOAD DUP2 PUSH20 0xFFFFFFFFFFFFFFFFFFFFFFFFFFFFFFFFFFFFFFFF MUL NOT AND SWAP1 DUP4 PUSH20 0xFFFFFFFFFFFFFFFFFFFFFFFFFFFFFFFFFFFFFFFF AND MUL OR SWAP1 SSTORE POP DUP1 PUSH1 0x4 PUSH0 CALLER PUSH20 0xFFFFFFFFFFFFFFFFFFFFFFFFFFFFFFFFFFFFFFFF AND PUSH20 0xFFFFFFFFFFFFFFFFFFFFFFFFFFFFFFFFFFFFFFFF AND DUP2 MSTORE PUSH1 0x20 ADD SWAP1 DUP2 MSTORE PUSH1 0x20 ADD PUSH0 KECCAK256 DUP2 SWAP1 SSTORE POP POP JUMP JUMPDEST PUSH0 PUSH1 0x3 PUSH0 DUP4 DUP2 MSTORE PUSH1 0x20 ADD SWAP1 DUP2 MSTORE PUSH1 0x20 ADD PUSH0 KECCAK256 SWAP1 POP DUP1 PUSH1 0x2 ADD PUSH0 SWAP1 SLOAD SWAP1 PUSH2 0x100 EXP SWAP1 DIV PUSH1 0xFF AND PUSH2 0xD1E JUMPI PUSH1 0x40 MLOAD PUSH32 0x8C379A000000000000000000000000000000000000000000000000000000000 DUP2 MSTORE PUSH1 0x4 ADD PUSH2 0xD15 SWAP1 PUSH2 0x1921 JUMP JUMPDEST PUSH1 0x40 MLOAD DUP1 SWAP2 SUB SWAP1 REVERT JUMPDEST PUSH0 PUSH1 0x4 PUSH0 CALLER PUSH20 0xFFFFFFFFFFFFFFFFFFFFFFFFFFFFFFFFFFFFFFFF AND PUSH20 0xFFFFFFFFFFFFFFFFFFFFFFFFFFFFFFFFFFFFFFFF AND DUP2 MSTORE PUSH1 0x20 ADD SWAP1 DUP2 MSTORE PUSH1 0x20 ADD PUSH0 KECCAK256 SLOAD EQ PUSH2 0xD9D JUMPI PUSH1 0x40 MLOAD PUSH32 0x8C379A000000000000000000000000000000000000000000000000000000000 DUP2 MSTORE PUSH1 0x4 ADD PUSH2 0xD94 SWAP1 PUSH2 0x1851 JUMP JUMPDEST PUSH1 0x40 MLOAD DUP1 SWAP2 SUB SWAP1 REVERT JUMPDEST DUP1 PUSH1 0x1 ADD SLOAD CALLVALUE EQ PUSH2 0xDE3 JUMPI PUSH1 0x40 MLOAD PUSH32 0x8C379A000000000000000000000000000000000000000000000000000000000 DUP2 MSTORE PUSH1 0x4 ADD PUSH2 0xDDA SWAP1 PUSH2 0x18B9 JUMP JUMPDEST PUSH1 0x40 MLOAD DUP1 SWAP2 SUB SWAP1 REVERT JUMPDEST PUSH0 DUP2 PUSH0 ADD PUSH0 SWAP1 SLOAD SWAP1 PUSH2 0x100 EXP SWAP1 DIV PUSH20 0xFFFFFFFFFFFFFFFFFFFFFFFFFFFFFFFFFFFFFFFF AND SWAP1 POP PUSH0 PUSH1 0x64 PUSH1 0xA DUP5 PUSH1 0x1 ADD SLOAD PUSH2 0xE1D SWAP2 SWAP1 PUSH2 0x193F JUMP JUMPDEST PUSH2 0xE27 SWAP2 SWAP1 PUSH2 0x19AD JUMP JUMPDEST SWAP1 POP PUSH0 DUP2 DUP5 PUSH1 0x1 ADD SLOAD PUSH2 0xE3A SWAP2 SWAP1 PUSH2 0x19DD JUMP JUMPDEST SWAP1 POP DUP3 PUSH20 0xFFFFFFFFFFFFFFFFFFFFFFFFFFFFFFFFFFFFFFFF AND PUSH2 0x8FC DUP3 SWAP1 DUP2 ISZERO MUL SWAP1 PUSH1 0x40 MLOAD PUSH0 PUSH1 0x40 MLOAD DUP1 DUP4 SUB DUP2 DUP6 DUP9 DUP9 CALL SWAP4 POP POP POP POP ISZERO DUP1 ISZERO PUSH2 0xE7F JUMPI RETURNDATASIZE PUSH0 DUP1 RETURNDATACOPY RETURNDATASIZE PUSH0 REVERT JUMPDEST POP PUSH0 DUP1 SLOAD SWAP1 PUSH2 0x100 EXP SWAP1 DIV PUSH20 0xFFFFFFFFFFFFFFFFFFFFFFFFFFFFFFFFFFFFFFFF AND PUSH20 0xFFFFFFFFFFFFFFFFFFFFFFFFFFFFFFFFFFFFFFFF AND PUSH2 0x8FC DUP4 SWAP1 DUP2 ISZERO MUL SWAP1 PUSH1 0x40 MLOAD PUSH0 PUSH1 0x40 MLOAD DUP1 DUP4 SUB DUP2 DUP6 DUP9 DUP9 CALL SWAP4 POP POP POP POP ISZERO DUP1 ISZERO PUSH2 0xEE2 JUMPI RETURNDATASIZE PUSH0 DUP1 RETURNDATACOPY RETURNDATASIZE PUSH0 REVERT JUMPDEST POP CALLER DUP5 PUSH0 ADD PUSH0 PUSH2 0x100 EXP DUP2 SLOAD DUP2 PUSH20 0xFFFFFFFFFFFFFFFFFFFFFFFFFFFFFFFFFFFFFFFF MUL NOT AND SWAP1 DUP4 PUSH20 0xFFFFFFFFFFFFFFFFFFFFFFFFFFFFFFFFFFFFFFFF AND MUL OR SWAP1 SSTORE POP PUSH0 DUP5 PUSH1 0x2 ADD PUSH0 PUSH2 0x100 EXP DUP2 SLOAD DUP2 PUSH1 0xFF MUL NOT AND SWAP1 DUP4 ISZERO ISZERO MUL OR SWAP1 SSTORE POP DUP5 PUSH1 0x4 PUSH0 CALLER PUSH20 0xFFFFFFFFFFFFFFFFFFFFFFFFFFFFFFFFFFFFFFFF AND PUSH20 0xFFFFFFFFFFFFFFFFFFFFFFFFFFFFFFFFFFFFFFFF AND DUP2 MSTORE PUSH1 0x20 ADD SWAP1 DUP2 MSTORE PUSH1 0x20 ADD PUSH0 KECCAK256 DUP2 SWAP1 SSTORE POP PUSH1 0x4 PUSH0 DUP5 PUSH20 0xFFFFFFFFFFFFFFFFFFFFFFFFFFFFFFFFFFFFFFFF AND PUSH20 0xFFFFFFFFFFFFFFFFFFFFFFFFFFFFFFFFFFFFFFFF AND DUP2 MSTORE PUSH1 0x20 ADD SWAP1 DUP2 MSTORE PUSH1 0x20 ADD PUSH0 KECCAK256 PUSH0 SWAP1 SSTORE POP POP POP POP POP JUMP JUMPDEST PUSH0 PUSH1 0x4 PUSH0 CALLER PUSH20 0xFFFFFFFFFFFFFFFFFFFFFFFFFFFFFFFFFFFFFFFF AND PUSH20 0xFFFFFFFFFFFFFFFFFFFFFFFFFFFFFFFFFFFFFFFF AND DUP2 MSTORE PUSH1 0x20 ADD SWAP1 DUP2 MSTORE PUSH1 0x20 ADD PUSH0 KECCAK256 SLOAD SWAP1 POP PUSH0 DUP2 SUB PUSH2 0x104B JUMPI PUSH1 0x40 MLOAD PUSH32 0x8C379A000000000000000000000000000000000000000000000000000000000 DUP2 MSTORE PUSH1 0x4 ADD PUSH2 0x1042 SWAP1 PUSH2 0x1649 JUMP JUMPDEST PUSH1 0x40 MLOAD DUP1 SWAP2 SUB SWAP1 REVERT JUMPDEST DUP2 PUSH1 0x3 PUSH0 DUP4 DUP2 MSTORE PUSH1 0x20 ADD SWAP1 DUP2 MSTORE PUSH1 0x20 ADD PUSH0 KECCAK256 PUSH1 0x1 ADD DUP2 SWAP1 SSTORE POP PUSH1 0x1 PUSH1 0x3 PUSH0 DUP4 DUP2 MSTORE PUSH1 0x20 ADD SWAP1 DUP2 MSTORE PUSH1 0x20 ADD PUSH0 KECCAK256 PUSH1 0x2 ADD PUSH0 PUSH2 0x100 EXP DUP2 SLOAD DUP2 PUSH1 0xFF MUL NOT AND SWAP1 DUP4 ISZERO ISZERO MUL OR SWAP1 SSTORE POP POP POP JUMP JUMPDEST PUSH1 0x60 PUSH0 DUP1 PUSH1 0x1 SWAP1 POP JUMPDEST PUSH1 0x2 SLOAD DUP2 GT PUSH2 0x10EE JUMPI PUSH1 0x3 PUSH0 DUP3 DUP2 MSTORE PUSH1 0x20 ADD SWAP1 DUP2 MSTORE PUSH1 0x20 ADD PUSH0 KECCAK256 PUSH1 0x2 ADD PUSH0 SWAP1 SLOAD SWAP1 PUSH2 0x100 EXP SWAP1 DIV PUSH1 0xFF AND ISZERO PUSH2 0x10DB JUMPI DUP2 DUP1 PUSH2 0x10D7 SWAP1 PUSH2 0x1550 JUMP JUMPDEST SWAP3 POP POP JUMPDEST DUP1 DUP1 PUSH2 0x10E6 SWAP1 PUSH2 0x1550 JUMP JUMPDEST SWAP2 POP POP PUSH2 0x109D JUMP JUMPDEST POP PUSH0 PUSH1 0x2 DUP3 PUSH2 0x10FD SWAP2 SWAP1 PUSH2 0x193F JUMP JUMPDEST PUSH8 0xFFFFFFFFFFFFFFFF DUP2 GT ISZERO PUSH2 0x1116 JUMPI PUSH2 0x1115 PUSH2 0x1A10 JUMP JUMPDEST JUMPDEST PUSH1 0x40 MLOAD SWAP1 DUP1 DUP3 MSTORE DUP1 PUSH1 0x20 MUL PUSH1 0x20 ADD DUP3 ADD PUSH1 0x40 MSTORE DUP1 ISZERO PUSH2 0x1144 JUMPI DUP2 PUSH1 0x20 ADD PUSH1 0x20 DUP3 MUL DUP1 CALLDATASIZE DUP4 CALLDATACOPY DUP1 DUP3 ADD SWAP2 POP POP SWAP1 POP JUMPDEST POP SWAP1 POP PUSH0 DUP1 PUSH1 0x1 SWAP1 POP JUMPDEST PUSH1 0x2 SLOAD DUP2 GT PUSH2 0x1200 JUMPI PUSH1 0x3 PUSH0 DUP3 DUP2 MSTORE PUSH1 0x20 ADD SWAP1 DUP2 MSTORE PUSH1 0x20 ADD PUSH0 KECCAK256 PUSH1 0x2 ADD PUSH0 SWAP1 SLOAD SWAP1 PUSH2 0x100 EXP SWAP1 DIV PUSH1 0xFF AND ISZERO PUSH2 0x11ED JUMPI DUP1 DUP4 DUP4 DUP2 MLOAD DUP2 LT PUSH2 0x1191 JUMPI PUSH2 0x1190 PUSH2 0x1A3D JUMP JUMPDEST JUMPDEST PUSH1 0x20 MUL PUSH1 0x20 ADD ADD DUP2 DUP2 MSTORE POP POP PUSH1 0x3 PUSH0 DUP3 DUP2 MSTORE PUSH1 0x20 ADD SWAP1 DUP2 MSTORE PUSH1 0x20 ADD PUSH0 KECCAK256 PUSH1 0x1 ADD SLOAD DUP4 PUSH1 0x1 DUP5 PUSH2 0x11C0 SWAP2 SWAP1 PUSH2 0x1A6A JUMP JUMPDEST DUP2 MLOAD DUP2 LT PUSH2 0x11D1 JUMPI PUSH2 0x11D0 PUSH2 0x1A3D JUMP JUMPDEST JUMPDEST PUSH1 0x20 MUL PUSH1 0x20 ADD ADD DUP2 DUP2 MSTORE POP POP PUSH1 0x2 DUP3 PUSH2 0x11EA SWAP2 SWAP1 PUSH2 0x1A6A JUMP JUMPDEST SWAP2 POP JUMPDEST DUP1 DUP1 PUSH2 0x11F8 SWAP1 PUSH2 0x1550 JUMP JUMPDEST SWAP2 POP POP PUSH2 0x114E JUMP JUMPDEST POP DUP2 SWAP4 POP POP POP POP SWAP1 JUMP JUMPDEST PUSH1 0x2 SLOAD DUP2 JUMP JUMPDEST PUSH0 DUP1 REVERT JUMPDEST PUSH0 PUSH20 0xFFFFFFFFFFFFFFFFFFFFFFFFFFFFFFFFFFFFFFFF DUP3 AND SWAP1 POP SWAP2 SWAP1 POP JUMP JUMPDEST PUSH0 PUSH2 0x123D DUP3 PUSH2 0x1214 JUMP JUMPDEST SWAP1 POP SWAP2 SWAP1 POP JUMP JUMPDEST PUSH2 0x124D DUP2 PUSH2 0x1233 JUMP JUMPDEST DUP2 EQ PUSH2 0x1257 JUMPI PUSH0 DUP1 REVERT JUMPDEST POP JUMP JUMPDEST PUSH0 DUP2 CALLDATALOAD SWAP1 POP PUSH2 0x1268 DUP2 PUSH2 0x1244 JUMP JUMPDEST SWAP3 SWAP2 POP POP JUMP JUMPDEST PUSH0 PUSH1 0x20 DUP3 DUP5 SUB SLT ISZERO PUSH2 0x1283 JUMPI PUSH2 0x1282 PUSH2 0x1210 JUMP JUMPDEST JUMPDEST PUSH0 PUSH2 0x1290 DUP5 DUP3 DUP6 ADD PUSH2 0x125A JUMP JUMPDEST SWAP2 POP POP SWAP3 SWAP2 POP POP JUMP JUMPDEST PUSH0 DUP2 SWAP1 POP SWAP2 SWAP1 POP JUMP JUMPDEST PUSH2 0x12AB DUP2 PUSH2 0x1299 JUMP JUMPDEST DUP3 MSTORE POP POP JUMP JUMPDEST PUSH0 PUSH1 0x20 DUP3 ADD SWAP1 POP PUSH2 0x12C4 PUSH0 DUP4 ADD DUP5 PUSH2 0x12A2 JUMP JUMPDEST SWAP3 SWAP2 POP POP JUMP JUMPDEST PUSH2 0x12D3 DUP2 PUSH2 0x1299 JUMP JUMPDEST DUP2 EQ PUSH2 0x12DD JUMPI PUSH0 DUP1 REVERT JUMPDEST POP JUMP JUMPDEST PUSH0 DUP2 CALLDATALOAD SWAP1 POP PUSH2 0x12EE DUP2 PUSH2 0x12CA JUMP JUMPDEST SWAP3 SWAP2 POP POP JUMP JUMPDEST PUSH0 PUSH1 0x20 DUP3 DUP5 SUB SLT ISZERO PUSH2 0x1309 JUMPI PUSH2 0x1308 PUSH2 0x1210 JUMP JUMPDEST JUMPDEST PUSH0 PUSH2 0x1316 DUP5 DUP3 DUP6 ADD PUSH2 0x12E0 JUMP JUMPDEST SWAP2 POP POP SWAP3 SWAP2 POP POP JUMP JUMPDEST PUSH0 DUP1 PUSH1 0x40 DUP4 DUP6 SUB SLT ISZERO PUSH2 0x1335 JUMPI PUSH2 0x1334 PUSH2 0x1210 JUMP JUMPDEST JUMPDEST PUSH0 PUSH2 0x1342 DUP6 DUP3 DUP7 ADD PUSH2 0x125A JUMP JUMPDEST SWAP3 POP POP PUSH1 0x20 PUSH2 0x1353 DUP6 DUP3 DUP7 ADD PUSH2 0x125A JUMP JUMPDEST SWAP2 POP POP SWAP3 POP SWAP3 SWAP1 POP JUMP JUMPDEST PUSH2 0x1366 DUP2 PUSH2 0x1233 JUMP JUMPDEST DUP3 MSTORE POP POP JUMP JUMPDEST PUSH0 PUSH1 0x20 DUP3 ADD SWAP1 POP PUSH2 0x137F PUSH0 DUP4 ADD DUP5 PUSH2 0x135D JUMP JUMPDEST SWAP3 SWAP2 POP POP JUMP JUMPDEST PUSH0 DUP2 ISZERO ISZERO SWAP1 POP SWAP2 SWAP1 POP JUMP JUMPDEST PUSH2 0x1399 DUP2 PUSH2 0x1385 JUMP JUMPDEST DUP3 MSTORE POP POP JUMP JUMPDEST PUSH0 PUSH1 0x60 DUP3 ADD SWAP1 POP PUSH2 0x13B2 PUSH0 DUP4 ADD DUP7 PUSH2 0x135D JUMP JUMPDEST PUSH2 0x13BF PUSH1 0x20 DUP4 ADD DUP6 PUSH2 0x12A2 JUMP JUMPDEST PUSH2 0x13CC PUSH1 0x40 DUP4 ADD DUP5 PUSH2 0x1390 JUMP JUMPDEST SWAP5 SWAP4 POP POP POP POP JUMP JUMPDEST PUSH0 DUP2 MLOAD SWAP1 POP SWAP2 SWAP1 POP JUMP JUMPDEST PUSH0 DUP3 DUP3 MSTORE PUSH1 0x20 DUP3 ADD SWAP1 POP SWAP3 SWAP2 POP POP JUMP JUMPDEST PUSH0 DUP2 SWAP1 POP PUSH1 0x20 DUP3 ADD SWAP1 POP SWAP2 SWAP1 POP JUMP JUMPDEST PUSH2 0x1406 DUP2 PUSH2 0x1299 JUMP JUMPDEST DUP3 MSTORE POP POP JUMP JUMPDEST PUSH0 PUSH2 0x1417 DUP4 DUP4 PUSH2 0x13FD JUMP JUMPDEST PUSH1 0x20 DUP4 ADD SWAP1 POP SWAP3 SWAP2 POP POP JUMP JUMPDEST PUSH0 PUSH1 0x20 DUP3 ADD SWAP1 POP SWAP2 SWAP1 POP JUMP JUMPDEST PUSH0 PUSH2 0x1439 DUP3 PUSH2 0x13D4 JUMP JUMPDEST PUSH2 0x1443 DUP2 DUP6 PUSH2 0x13DE JUMP JUMPDEST SWAP4 POP PUSH2 0x144E DUP4 PUSH2 0x13EE JUMP JUMPDEST DUP1 PUSH0 JUMPDEST DUP4 DUP2 LT ISZERO PUSH2 0x147E JUMPI DUP2 MLOAD PUSH2 0x1465 DUP9 DUP3 PUSH2 0x140C JUMP JUMPDEST SWAP8 POP PUSH2 0x1470 DUP4 PUSH2 0x1423 JUMP JUMPDEST SWAP3 POP POP PUSH1 0x1 DUP2 ADD SWAP1 POP PUSH2 0x1451 JUMP JUMPDEST POP DUP6 SWAP4 POP POP POP POP SWAP3 SWAP2 POP POP JUMP JUMPDEST PUSH0 PUSH1 0x20 DUP3 ADD SWAP1 POP DUP2 DUP2 SUB PUSH0 DUP4 ADD MSTORE PUSH2 0x14A3 DUP2 DUP5 PUSH2 0x142F JUMP JUMPDEST SWAP1 POP SWAP3 SWAP2 POP POP JUMP JUMPDEST PUSH0 DUP3 DUP3 MSTORE PUSH1 0x20 DUP3 ADD SWAP1 POP SWAP3 SWAP2 POP POP JUMP JUMPDEST PUSH32 0x596F7520646F6E2774206F776E2074686973207469636B657400000000000000 PUSH0 DUP3 ADD MSTORE POP JUMP JUMPDEST PUSH0 PUSH2 0x14EF PUSH1 0x19 DUP4 PUSH2 0x14AB JUMP JUMPDEST SWAP2 POP PUSH2 0x14FA DUP3 PUSH2 0x14BB JUMP JUMPDEST PUSH1 0x20 DUP3 ADD SWAP1 POP SWAP2 SWAP1 POP JUMP JUMPDEST PUSH0 PUSH1 0x20 DUP3 ADD SWAP1 POP DUP2 DUP2 SUB PUSH0 DUP4 ADD MSTORE PUSH2 0x151C DUP2 PUSH2 0x14E3 JUMP JUMPDEST SWAP1 POP SWAP2 SWAP1 POP JUMP JUMPDEST PUSH32 0x4E487B7100000000000000000000000000000000000000000000000000000000 PUSH0 MSTORE PUSH1 0x11 PUSH1 0x4 MSTORE PUSH1 0x24 PUSH0 REVERT JUMPDEST PUSH0 PUSH2 0x155A DUP3 PUSH2 0x1299 JUMP JUMPDEST SWAP2 POP PUSH32 0xFFFFFFFFFFFFFFFFFFFFFFFFFFFFFFFFFFFFFFFFFFFFFFFFFFFFFFFFFFFFFFFF DUP3 SUB PUSH2 0x158C JUMPI PUSH2 0x158B PUSH2 0x1523 JUMP JUMPDEST JUMPDEST PUSH1 0x1 DUP3 ADD SWAP1 POP SWAP2 SWAP1 POP JUMP JUMPDEST PUSH32 0x4E6F2073776170206F6666657220666F7220796F750000000000000000000000 PUSH0 DUP3 ADD MSTORE POP JUMP JUMPDEST PUSH0 PUSH2 0x15CB PUSH1 0x15 DUP4 PUSH2 0x14AB JUMP JUMPDEST SWAP2 POP PUSH2 0x15D6 DUP3 PUSH2 0x1597 JUMP JUMPDEST PUSH1 0x20 DUP3 ADD SWAP1 POP SWAP2 SWAP1 POP JUMP JUMPDEST PUSH0 PUSH1 0x20 DUP3 ADD SWAP1 POP DUP2 DUP2 SUB PUSH0 DUP4 ADD MSTORE PUSH2 0x15F8 DUP2 PUSH2 0x15BF JUMP JUMPDEST SWAP1 POP SWAP2 SWAP1 POP JUMP JUMPDEST PUSH32 0x596F7520646F6E2774206F776E2061207469636B657400000000000000000000 PUSH0 DUP3 ADD MSTORE POP JUMP JUMPDEST PUSH0 PUSH2 0x1633 PUSH1 0x16 DUP4 PUSH2 0x14AB JUMP JUMPDEST SWAP2 POP PUSH2 0x163E DUP3 PUSH2 0x15FF JUMP JUMPDEST PUSH1 0x20 DUP3 ADD SWAP1 POP SWAP2 SWAP1 POP JUMP JUMPDEST PUSH0 PUSH1 0x20 DUP3 ADD SWAP1 POP DUP2 DUP2 SUB PUSH0 DUP4 ADD MSTORE PUSH2 0x1660 DUP2 PUSH2 0x1627 JUMP JUMPDEST SWAP1 POP SWAP2 SWAP1 POP JUMP JUMPDEST PUSH32 0x546172676574207469636B6574206E6F7420736F6C6400000000000000000000 PUSH0 DUP3 ADD MSTORE POP JUMP JUMPDEST PUSH0 PUSH2 0x169B PUSH1 0x16 DUP4 PUSH2 0x14AB JUMP JUMPDEST SWAP2 POP PUSH2 0x16A6 DUP3 PUSH2 0x1667 JUMP JUMPDEST PUSH1 0x20 DUP3 ADD SWAP1 POP SWAP2 SWAP1 POP JUMP JUMPDEST PUSH0 PUSH1 0x20 DUP3 ADD SWAP1 POP DUP2 DUP2 SUB PUSH0 DUP4 ADD MSTORE PUSH2 0x16C8 DUP2 PUSH2 0x168F JUMP JUMPDEST SWAP1 POP SWAP2 SWAP1 POP JUMP JUMPDEST PUSH32 0x43616E6E6F742073776170207769746820796F757273656C6600000000000000 PUSH0 DUP3 ADD MSTORE POP JUMP JUMPDEST PUSH0 PUSH2 0x1703 PUSH1 0x19 DUP4 PUSH2 0x14AB JUMP JUMPDEST SWAP2 POP PUSH2 0x170E DUP3 PUSH2 0x16CF JUMP JUMPDEST PUSH1 0x20 DUP3 ADD SWAP1 POP SWAP2 SWAP1 POP JUMP JUMPDEST PUSH0 PUSH1 0x20 DUP3 ADD SWAP1 POP DUP2 DUP2 SUB PUSH0 DUP4 ADD MSTORE PUSH2 0x1730 DUP2 PUSH2 0x16F7 JUMP JUMPDEST SWAP1 POP SWAP2 SWAP1 POP JUMP JUMPDEST PUSH32 0x496E76616C6964207469636B6574204944000000000000000000000000000000 PUSH0 DUP3 ADD MSTORE POP JUMP JUMPDEST PUSH0 PUSH2 0x176B PUSH1 0x11 DUP4 PUSH2 0x14AB JUMP JUMPDEST SWAP2 POP PUSH2 0x1776 DUP3 PUSH2 0x1737 JUMP JUMPDEST PUSH1 0x20 DUP3 ADD SWAP1 POP SWAP2 SWAP1 POP JUMP JUMPDEST PUSH0 PUSH1 0x20 DUP3 ADD SWAP1 POP DUP2 DUP2 SUB PUSH0 DUP4 ADD MSTORE PUSH2 0x1798 DUP2 PUSH2 0x175F JUMP JUMPDEST SWAP1 POP SWAP2 SWAP1 POP JUMP JUMPDEST PUSH32 0x5469636B657420616C726561647920736F6C6400000000000000000000000000 PUSH0 DUP3 ADD MSTORE POP JUMP JUMPDEST PUSH0 PUSH2 0x17D3 PUSH1 0x13 DUP4 PUSH2 0x14AB JUMP JUMPDEST SWAP2 POP PUSH2 0x17DE DUP3 PUSH2 0x179F JUMP JUMPDEST PUSH1 0x20 DUP3 ADD SWAP1 POP SWAP2 SWAP1 POP JUMP JUMPDEST PUSH0 PUSH1 0x20 DUP3 ADD SWAP1 POP DUP2 DUP2 SUB PUSH0 DUP4 ADD MSTORE PUSH2 0x1800 DUP2 PUSH2 0x17C7 JUMP JUMPDEST SWAP1 POP SWAP2 SWAP1 POP JUMP JUMPDEST PUSH32 0x596F7520616C7265616479206F776E2061207469636B65740000000000000000 PUSH0 DUP3 ADD MSTORE POP JUMP JUMPDEST PUSH0 PUSH2 0x183B PUSH1 0x18 DUP4 PUSH2 0x14AB JUMP JUMPDEST SWAP2 POP PUSH2 0x1846 DUP3 PUSH2 0x1807 JUMP JUMPDEST PUSH1 0x20 DUP3 ADD SWAP1 POP SWAP2 SWAP1 POP JUMP JUMPDEST PUSH0 PUSH1 0x20 DUP3 ADD SWAP1 POP DUP2 DUP2 SUB PUSH0 DUP4 ADD MSTORE PUSH2 0x1868 DUP2 PUSH2 0x182F JUMP JUMPDEST SWAP1 POP SWAP2 SWAP1 POP JUMP JUMPDEST PUSH32 0x496E636F7272656374207061796D656E7420616D6F756E740000000000000000 PUSH0 DUP3 ADD MSTORE POP JUMP JUMPDEST PUSH0 PUSH2 0x18A3 PUSH1 0x18 DUP4 PUSH2 0x14AB JUMP JUMPDEST SWAP2 POP PUSH2 0x18AE DUP3 PUSH2 0x186F JUMP JUMPDEST PUSH1 0x20 DUP3 ADD SWAP1 POP SWAP2 SWAP1 POP JUMP JUMPDEST PUSH0 PUSH1 0x20 DUP3 ADD SWAP1 POP DUP2 DUP2 SUB PUSH0 DUP4 ADD MSTORE PUSH2 0x18D0 DUP2 PUSH2 0x1897 JUMP JUMPDEST SWAP1 POP SWAP2 SWAP1 POP JUMP JUMPDEST PUSH32 0x5469636B6574206E6F7420666F722073616C6500000000000000000000000000 PUSH0 DUP3 ADD MSTORE POP JUMP JUMPDEST PUSH0 PUSH2 0x190B PUSH1 0x13 DUP4 PUSH2 0x14AB JUMP JUMPDEST SWAP2 POP PUSH2 0x1916 DUP3 PUSH2 0x18D7 JUMP JUMPDEST PUSH1 0x20 DUP3 ADD SWAP1 POP SWAP2 SWAP1 POP JUMP JUMPDEST PUSH0 PUSH1 0x20 DUP3 ADD SWAP1 POP DUP2 DUP2 SUB PUSH0 DUP4 ADD MSTORE PUSH2 0x1938 DUP2 PUSH2 0x18FF JUMP JUMPDEST SWAP1 POP SWAP2 SWAP1 POP JUMP JUMPDEST PUSH0 PUSH2 0x1949 DUP3 PUSH2 0x1299 JUMP JUMPDEST SWAP2 POP PUSH2 0x1954 DUP4 PUSH2 0x1299 JUMP JUMPDEST SWAP3 POP DUP3 DUP3 MUL PUSH2 0x1962 DUP2 PUSH2 0x1299 JUMP JUMPDEST SWAP2 POP DUP3 DUP3 DIV DUP5 EQ DUP4 ISZERO OR PUSH2 0x1979 JUMPI PUSH2 0x1978 PUSH2 0x1523 JUMP JUMPDEST JUMPDEST POP SWAP3 SWAP2 POP POP JUMP JUMPDEST PUSH32 0x4E487B7100000000000000000000000000000000000000000000000000000000 PUSH0 MSTORE PUSH1 0x12 PUSH1 0x4 MSTORE PUSH1 0x24 PUSH0 REVERT JUMPDEST PUSH0 PUSH2 0x19B7 DUP3 PUSH2 0x1299 JUMP JUMPDEST SWAP2 POP PUSH2 0x19C2 DUP4 PUSH2 0x1299 JUMP JUMPDEST SWAP3 POP DUP3 PUSH2 0x19D2 JUMPI PUSH2 0x19D1 PUSH2 0x1980 JUMP JUMPDEST JUMPDEST DUP3 DUP3 DIV SWAP1 POP SWAP3 SWAP2 POP POP JUMP JUMPDEST PUSH0 PUSH2 0x19E7 DUP3 PUSH2 0x1299 JUMP JUMPDEST SWAP2 POP PUSH2 0x19F2 DUP4 PUSH2 0x1299 JUMP JUMPDEST SWAP3 POP DUP3 DUP3 SUB SWAP1 POP DUP2 DUP2 GT ISZERO PUSH2 0x1A0A JUMPI PUSH2 0x1A09 PUSH2 0x1523 JUMP JUMPDEST JUMPDEST SWAP3 SWAP2 POP POP JUMP JUMPDEST PUSH32 0x4E487B7100000000000000000000000000000000000000000000000000000000 PUSH0 MSTORE PUSH1 0x41 PUSH1 0x4 MSTORE PUSH1 0x24 PUSH0 REVERT JUMPDEST PUSH32 0x4E487B7100000000000000000000000000000000000000000000000000000000 PUSH0 MSTORE PUSH1 0x32 PUSH1 0x4 MSTORE PUSH1 0x24 PUSH0 REVERT JUMPDEST PUSH0 PUSH2 0x1A74 DUP3 PUSH2 0x1299 JUMP JUMPDEST SWAP2 POP PUSH2 0x1A7F DUP4 PUSH2 0x1299 JUMP JUMPDEST SWAP3 POP DUP3 DUP3 ADD SWAP1 POP DUP1 DUP3 GT ISZERO PUSH2 0x1A97 JUMPI PUSH2 0x1A96 PUSH2 0x1523 JUMP JUMPDEST JUMPDEST SWAP3 SWAP2 POP POP JUMP INVALID LOG2 PUSH5 0x6970667358 0x22 SLT KECCAK256 PUSH25 0xD8F5FC089E8C7E600CAC019AE0B7C07E4BED4CF613509A2B0B MUL DUP9 0x27 0x4B 0xFC LOG0 PUSH5 0x736F6C6343 STOP ADDMOD BYTE STOP CALLER "
				},
				"gasEstimates": {
					"creation": {
						"codeDepositCost": "1373400",
						"executionCost": "infinite",
						"totalCost": "infinite"
					},
					"external": {
						"acceptResale(uint256)": "infinite",
						"acceptSwap(uint256)": "infinite",
						"buyTicket(uint256)": "55728",
						"checkResale()": "infinite",
						"getTicketOf(address)": "2830",
						"manager()": "2528",
						"offerSwap(uint256)": "31750",
						"resaleTicket(uint256)": "49210",
						"swapOffers(address,address)": "infinite",
						"ticketOwners(address)": "2869",
						"ticketPrice()": "2448",
						"tickets(uint256)": "infinite",
						"totalTickets()": "2513"
					}
				},
				"methodIdentifiers": {
					"acceptResale(uint256)": "943ba212",
					"acceptSwap(uint256)": "1bf33004",
					"buyTicket(uint256)": "67dd74ca",
					"checkResale()": "c4a4be83",
					"getTicketOf(address)": "0412f4ab",
					"manager()": "481c6a75",
					"offerSwap(uint256)": "406b2c2c",
					"resaleTicket(uint256)": "a3c1a1fe",
					"swapOffers(address,address)": "212d94c3",
					"ticketOwners(address)": "1f6ea787",
					"ticketPrice()": "1209b1f6",
					"tickets(uint256)": "50b44712",
					"totalTickets()": "dd11247e"
				}
			},
			"storageLayout": {
				"storage": [
					{
						"astId": 10,
						"contract": "contracts/TicketSale.sol:TicketSale",
						"label": "manager",
						"offset": 0,
						"slot": "0",
						"type": "t_address"
					},
					{
						"astId": 12,
						"contract": "contracts/TicketSale.sol:TicketSale",
						"label": "ticketPrice",
						"offset": 0,
						"slot": "1",
						"type": "t_uint256"
					},
					{
						"astId": 14,
						"contract": "contracts/TicketSale.sol:TicketSale",
						"label": "totalTickets",
						"offset": 0,
						"slot": "2",
						"type": "t_uint256"
					},
					{
						"astId": 19,
						"contract": "contracts/TicketSale.sol:TicketSale",
						"label": "tickets",
						"offset": 0,
						"slot": "3",
						"type": "t_mapping(t_uint256,t_struct(Ticket)8_storage)"
					},
					{
						"astId": 23,
						"contract": "contracts/TicketSale.sol:TicketSale",
						"label": "ticketOwners",
						"offset": 0,
						"slot": "4",
						"type": "t_mapping(t_address,t_uint256)"
					},
					{
						"astId": 29,
						"contract": "contracts/TicketSale.sol:TicketSale",
						"label": "swapOffers",
						"offset": 0,
						"slot": "5",
						"type": "t_mapping(t_address,t_mapping(t_address,t_uint256))"
					}
				],
				"types": {
					"t_address": {
						"encoding": "inplace",
						"label": "address",
						"numberOfBytes": "20"
					},
					"t_bool": {
						"encoding": "inplace",
						"label": "bool",
						"numberOfBytes": "1"
					},
					"t_mapping(t_address,t_mapping(t_address,t_uint256))": {
						"encoding": "mapping",
						"key": "t_address",
						"label": "mapping(address => mapping(address => uint256))",
						"numberOfBytes": "32",
						"value": "t_mapping(t_address,t_uint256)"
					},
					"t_mapping(t_address,t_uint256)": {
						"encoding": "mapping",
						"key": "t_address",
						"label": "mapping(address => uint256)",
						"numberOfBytes": "32",
						"value": "t_uint256"
					},
					"t_mapping(t_uint256,t_struct(Ticket)8_storage)": {
						"encoding": "mapping",
						"key": "t_uint256",
						"label": "mapping(uint256 => struct TicketSale.Ticket)",
						"numberOfBytes": "32",
						"value": "t_struct(Ticket)8_storage"
					},
					"t_struct(Ticket)8_storage": {
						"encoding": "inplace",
						"label": "struct TicketSale.Ticket",
						"members": [
							{
								"astId": 3,
								"contract": "contracts/TicketSale.sol:TicketSale",
								"label": "owner",
								"offset": 0,
								"slot": "0",
								"type": "t_address"
							},
							{
								"astId": 5,
								"contract": "contracts/TicketSale.sol:TicketSale",
								"label": "price",
								"offset": 0,
								"slot": "1",
								"type": "t_uint256"
							},
							{
								"astId": 7,
								"contract": "contracts/TicketSale.sol:TicketSale",
								"label": "forSale",
								"offset": 0,
								"slot": "2",
								"type": "t_bool"
							}
						],
						"numberOfBytes": "96"
					},
					"t_uint256": {
						"encoding": "inplace",
						"label": "uint256",
						"numberOfBytes": "32"
					}
				}
			},
			"userdoc": {
				"kind": "user",
				"methods": {},
				"version": 1
			}
		}
	}
}